:020000041400E6
:1000000000800020CD010014910100149301001420
:1000100095010014970100149901001400000000DC
:100020000000000000000000000000009B01001420
:100030009D010014000000009F010014A1010014A4
:10004000A3010014A3010014A30100140000000088
:10005000A3010014A3010014A3010014A3010014C0
:10006000A9860010A3010014A3010014A301001429
:10007000A3010014A3010014A3010014A3010014A0
:10008000A3010014A301001431170010A3010014F0
:10009000A3010014A3010014A3010014D92300102C
:1000A00039250010A3010014A3010014A3010014BA
:1000B000A3010014A3010014A3010014A301001460
:1000C000A3010014A3010014A3010014A301001450
:1000D000A3010014A3010014A3010014A301001440
:1000E000A3010014A3010014A3010014A301001430
:1000F00000000000A3010014A3010014A3010014D8
:1001000000000000A3010014A3010014A3010014C7
:10011000A30100148C970114007301100C09000056
:100120008475011400000020000000008475011493
:1001300000000810000000008475011400800020F9
:10014000082200008C97011400C00020000000006D
:100150008802001400000010447001000000001428
:10016000000000101401000000800110481300007E
:100170000000002000000000000008100000000047
:1001800008A200200000000000C0002000000000C5
:10019000FEE7FEE7FEE7FEE7FEE7FEE7FEE7FEE737
:1001A000FEE7FEE710B50B465C1A944204D2441AEF
:1001B000E45843F8044BF7E710BD03461A1A8A4285
:1001C00003D2002243F8042BF8E7704710B572B64B
:1001D0001B4B1C4A1A601C4A5A601C4A4FF0FF33E2
:1001E000136053609360D360136153619361D36173
:1001F00062B6174C174B9C4207D294E803000C34AC
:1002000054F8042CFFF7CEFFF4E7134B9C4206D2C0
:1002100054F8080B54F8041CFFF7CFFFF5E7DFF89C
:100220004400016841F4700101600C4B1A680AB186
:100230000B4A136000F020F800F016F8FEE700BF4C
:10024000003105400010DF10FFF7DF0180E200E021
:100250001401001468010014900100140000001043
:1002600008ED00E088ED00E001B40248844601BCDE
:10027000604700BF6518001001B40248844601BC05
:08028000604700BF99C10010A6
:100288000000000000000000000000000000000066
:100298000000000000000000000000000000000056
:1002A8000000000000000000000000000000000046
:1002B8000000000000000000000000000000000036
:1002C8000000000000000000000000000000000026
:1002D8000000000000000000000000000000000016
:1002E8000000000000000000000000000000000006
:1002F80000000000000000000000000000000000F6
:1003080000000000000000000000000000000000E5
:1003180000000000000000000000000000000000D5
:1003280000000000000000000000000000000000C5
:1003380000000000000000000000000000000000B5
:1003480000000000000000000000000000000000A5
:100358000000000000000000000000000000000095
:100368000000000000000000000000000000000085
:100378000000000000000000000000000000000075
:100388000000000000000000000000000000000065
:1003980000000000002070470020704708B50120C9
:1003A8000321F022022305F053FF064B04229A6230
:1003B8004FF48062C3F81822A3F5003308225A606C
:1003C800002008BD0010104010B5054B00245C60EB
:1003D80001200321F022052305F03AFF204610BD35
:1003E80000100E401D4B70B50021054618681C4EC4
:1003F80002F093FB044638B32A7902234AB14188B4
:100408008288521A92FBF3F30B441B044FF4A07238
:1004180009E0C1880289521A92FBF3F3C3F1C803B9
:100428005B1A1B04C822B3FBF2F34FF6C0721A40E2
:100438000C4B1A606B7913B9642006F041F94FF43C
:100448008063C6F8143203E0064BC6F8140218603D
:10045800003418BF01246C71002070BD04800110A5
:100468000010104000100E400171704708B50820B8
:1004780000F04EFF044B0360012303710023437116
:10048800024B186008BD00BF8032011000800110C7
:1004980000B52DED028B814208EE103A0B4628BFBD
:1004A800034687B0934228BF13460390C01A0291AF
:1004B8004043C91A019201FB0101D21A02FB021042
:1004C80007EE900AF8EE677A17EE900A0BF0E4F957
:1004D80011F012F80BF046FC1E2804D8092803D89E
:1004E8000023059310E01E20DFED1E7AB8EE488A3F
:1004F80028EE278A07EE900AF8EEE77A28EE278A90
:10050800BCEEC88A8DED058A059BB3F57A6F88BF66
:100518004FF47A6305A888BF059305F019FD029981
:10052800019A039803F059FA03F070FA03A902AA92
:1005380001AB03F060FA039B8DF81130029B8DF834
:1005480012300DF11100019B8DF813300DF11201DD
:100558000DF1130205F0D2FC07B0BDEC028B5DF87B
:1005680004FB00BF8FC2753C00B593B0002306930F
:1005780040201023079300F0CDFE031D00F1440135
:10058800002223F8022C23F8042C04338B42F7D1E1
:10059800174B089018681749A023ADF82430642336
:1005A800ADF8263009AA06AB05F01BFB0323009320
:1005B800114B04211B680A4606A800F0CFFD06AAC5
:1005C8000C4909A804F0C2FE05A909A804F034FFE3
:1005D80002A903AA04AB03F00EFA02A80FC8FFF79A
:1005E80057FF089808B100F099FE13B05DF804FBB6
:1005F80004800110A8800110F480011013B501A82F
:100608000C4606F0A5F8019806F0A8F8A042FAD31F
:1006180006F002FD02B010BD13B5044602A800237F
:1006280040F8043D05F07EFC20464EF66021FFF7B9
:10063800E5FF6078034B03EB800005F073FC02B024
:1006480010BD00BF303B011037B50024054644708B
:10065800047202A840F8044D05F064FC2C7003B045
:1006680030BD10B50446FFF7EFFF204610BD00006F
:1006780073B505460E460024B44217DA02A80023D3
:1006880040F8043D05F04EFC4EF660212846FFF781
:10069800B5FF074B687803EB800005F043FC28465C
:1006A8004EF66021FFF7AAFF0134E5E702B070BDFE
:1006B800303B01101FB5A02200230446ADF80820E6
:1006C80064220393ADF80A20009303A8611C02AAD0
:1006D8000DF10A0300F0A0FD002808DB054B0121FD
:1006E800186801F0BFF820460421FFF7C1FF04B0E5
:1006F80010BD00BFF48001104378072B01D8FFF725
:100708008BBF70470129F8B504460F4647DD05F051
:10071800E1FF054606F080FC2678012E09D002D3B9
:10072800022E18D037E0201D06F012F8012323709E
:100738002DE04DB1201D06F00BF866702046FFF73E
:100748006BFF02232370E2E7606806F007F8154B99
:100758009842DCD901E04DB9657820460421FFF7BD
:1007680087FF2046FFF770FF2846F8BD606805F050
:10077800F5FF0D4B9842CAD9201D05F0E9FF6378B3
:100788000133DBB27A1C934208BF01236370204611
:10079800FFF7B2FFBBE72046FFF756FFB7E7002099
:1007A800F8BD00BF60E3160040420F0030B50446B4
:1007B80089B005F08FFF237A05460BB34FF4A0727A
:1007C800ADF81A20C822ADF81C2007AA0092694A81
:1007D800212312688DF815300023ADF81630ADF8D6
:1007E8001830019202930DF115000DF1160106AAB9
:1007F8000DF11A0303F09AFB2046FFF7B5FE1FE040
:100808002278EAB1ADF81630ADF818304FF4A0737D
:10081800ADF81A30C823ADF81C3007AB0093554B20
:100828001B680193212201238DF8152002930DF1F5
:1008380015000DF1160106AA0DF11A0303F076FB57
:100848002378052B00F28D80DFE803F00319315976
:10085800678A002D00F08880201D05F079FF464B3F
:1008680008AD1B8845F8043D284605F071FB0123B7
:10087800237028460023079305F054FB74E00DB954
:10088800257071E0606805F069FF3C4B98426BD9B0
:1008980003F004F910B10123637000E06070201DBB
:1008A80005F056FF2046FFF727FF02232CE095B9F5
:1008B80020460321FFF7DCFE201D05F049FF627882
:1008C80001232AB908A800F8043D03F02FFA00E034
:1008D8002372032318E0606805F040FF284B984214
:1008E80042D9201D05F034FF63780133DBB2082BB1
:1008F80008BF002363702046FFF7FEFE34E02DB1E9
:10090800201D05F025FF042323702DE0606805F005
:1009180025FF1C4B984227D923E07DB963784BB952
:1009280008A800F8045D03F001FA20460421FFF747
:100938009FFE16E02046FFF7BDFE12E0606805F056
:100948000DFF0E4B98420FD9637823B908A800F819
:10095800043D03F0EBF92046FFF776FE0523D3E7C5
:1009680015B92046FFF770FE2078003018BF012027
:1009780009B030BDF48001100C800110D0121300B2
:1009880040420F000087930330B50468013A2346BC
:1009980008681D1B854204D212F8010F03F8010BE9
:1009A800F6E730BD07B5002201A9054806F00AF9A7
:1009B800044B0199186805F011F803B05DF804FBC1
:1009C800403301100480011013B5074C0748214635
:1009D800002206F0F7F802A8238840F8043D05F045
:1009E800B7FA02B010BD00BF0C8001105A330110D5
:1009F80008B50278532A0B4608D1817A0D4A303956
:100A080010681A68C9B204F0E1FF06E04D2A04D163
:100A1800084A0968106804F0E5FF00F009FF38B1DA
:100A2800044B186804F0B5FEBDE8084000F00ABFA2
:100A380008BD00BF0480011030B501248BB01049F7
:100A4800224602A80CF0DEF802A8694601AA002393
:100A580006F0B8F8002810DB0A4D019A2868E1B2C0
:100A6800013404F06CFE082CE9D1286804F091FEEA
:100A7800054B186806F0E0FD00200BB030BD00BF44
:100A8800693301100480011008800110F0B597B097
:100A9800074618881C9B1288ADF80C200C4619884C
:100AA8001D9BADF80E001B88ADF812302378ADF809
:100AB80010105A1E062A37D81D4E32682AB91D480A
:100AC80006F018FB6FF0010030E01B4D03AA286800
:100AD800314604F00EFE2178286804F028FE3B68B1
:100AE800C361054603AA31460DA804F016FC00218F
:100AF8000DA804F0A1FCA86122781049002405A8DB
:100B08000CF080F8812120222B46009405A806F0DD
:100B18003DF8FFF791FF0A4806F0ECFA1E9801210C
:100B280000F0A0FE204601E04FF0FF3017B0F0BD06
:100B3800A880011075330110048001106933011079
:100B48008E33011070B5037892B0013B0024062B58
:100B580005460E4611940F940E940D940C940B9424
:100B68000A941BD8214620220AA80BF0E7FF0D495A
:100B78002A7802A80CF046F8812120220AAB0094BA
:100B880002A806F003F80446FFF756FFFFF754FFE4
:100B98003046012100F066FE204601E04FF0FF30AC
:100BA80012B070BD69330110F0B593B012AD0021D9
:100BB80045F8201D07462022284611910F910E91D5
:100BC8000D910C910B910BF0B9FF01240D492246B0
:100BD80002A800260CF016F8009602A8812120220F
:100BE8002B4605F0D3FF002809DB0134082CEDD192
:100BF800FFF722FF3846012100F034FE304613B0DB
:100C0800F0BD00BF6933011070B5B6B0002314936E
:100C18001293119310930F930E930D9301252A4667
:100C28007749784E15A80BF0EDFF2A4676491DA89E
:100C38000BF0E8FF2023002400930DAB0193012162
:100C480081231DAA029415A805F0E4FF2A466F49DE
:100C580015A80BF0D7FF2A466D491DA80BF0D2FF47
:100C68006C4B02940022CDE900234FF480711423C9
:100C78001DAA15A805F0CEFF07A9224615A805F05C
:100C8800A1FFE9B23068079A04F0A0FE013515A863
:100C9800614906F029F8082DC1D155A3D3E90023ED
:100CA8000294CDE900234FF480715C4A5C48142318
:100CB80005F0B0FF58495A4806F016F84EA3D3E994
:100CC80000232146CDE900230294564A56481423AE
:100CD80005F0A0FF01238DE818002146534A544827
:100CE80005F098FF4FF4FA638DE81800514A52480E
:100CF80004234FF4807105F08DFF50494E4805F0EC
:100D0800F3FF40F2EE238DE818004D4A4D480223C8
:100D18004FF4807105F07EFF4FF47A754A494948CF
:100D280005F0E2FF009521460194484A484802230D
:100D380005F070FF009521460194464A4648474D04
:100D4800022305F067FF14238DE8180021460423C9
:100D5800434A444805F05EFF06A922463C4805F090
:100D680031FF0DF11A0122463B4805F02BFF08A977
:100D780022463C4805F026FF0DF1170122462C4873
:100D880005F020FF0AA92246254805F01BFF0BA9FC
:100D98002246254805F016FF09A92246264805F0EF
:100DA80011FF29462246274805F00CFF9DF8173009
:100DB800BDF81A20BDF8181000933068089B01F0A0
:100DC800B1FD30680A9904F00DFE30680B9904F003
:100DD8001BFE0999306804F001FE36A82B8840F8FC
:100DE800A83D05F0B5F8FFF727FE36B070BD00BF87
:100DF800000000A09999B93F000000C0CCCCFC3F8E
:100E080069330110048001109E330110B1330110C1
:100E1800C433011000000440710700102A34011087
:100E28001B3401109F340110893401100B35011057
:100E3800FB3401106E3501104033011025070010F6
:100E4800F83501105A33011049070010A536011072
:100E58009A36011005370110EC3601100C8001108C
:100E6800733701106437011070B50546042000F08F
:100E78004FFA124C064606F075FB4FF424702660B4
:100E880000F046FA0E4A2168064601F00DFD0D4BAA
:100E98000D491E60284603F0AEFA0C4B0C49186841
:100EA800002204F04BF80B4B0028188003DBFFF7F7
:100EB800ABFE002070BD4FF0FF3070BD0880011000
:100EC800001009100480011098320110F8800110F8
:100ED800E937011000730110F0B58BB007460AA876
:100EE80001254FF0FF3300F8055D0E4614460993BF
:100EF80002F05AFF00281ADB0E4B0F48B3F9002006
:100F0800009704230193029654B1002109AC039180
:100F1800049405910691006804F003F8099806E026
:100F2800039404940068294603F0FBFF20460BB0A5
:100F3800F0BD00BF00730110F88001102DE9F04FDB
:100F4800DFF8C8802C4D8FB0002402264FF0410BEB
:100F58004FF0B10A64230B914FF4803241468DE87B
:100F6800100802940396049405960694CDF81CA0E4
:100F780008940994814603F0E2FC0746286806F0C5
:100F88005BFB1E491E480122FFF7A6FFC7F5803309
:100F9800DB0807F180511A460D9001F500212868F9
:100FA8000C9306F00EFB174A05460121106804F061
:100FB80085F8154A0B9B02938DE804080C9B039651
:100FC8004FF4A072ED000492C822069241461A46D8
:100FD80005966423CDF81CA008950994484603F0AB
:100FE800AEFC48464146EA1903F071F9DDF834C011
:100FF80060460FB0BDE8F08F08800110001009109E
:1010080000000910F8800110434351320000081015
:101018000121FFF793BF000030B58FB04124009441
:101028009DF84C400194422402940494C8240594E9
:101038000A24624308915208129907920C224FF42D
:10104800A0754A4300240395520882250A920B93FF
:10105800069509950C940D9421466422024B03F0E1
:101068001CFB20460FB030BD4343423208B5000296
:1010780044F62063B0FBF3F0C0B107EE900AF8EE37
:10108800E77A17EE900A0AF007FC10F0B5F900228B
:10109800074B0AF055FC0AF065FEFF2803D8002824
:1010A80008BF012000E0FF20C0B208BD012008BD34
:1010B8000000494030B5284C85B02068002101F077
:1010C8002CFD002842D00388072B9FBF216803F11D
:1010D800FF32142303FB0213428898BFD3F8F05061
:1010E8008388A3EB02030289C088A2EB000000FBFF
:1010F80003F088BF6FF07F45FFF7B8FF02AA0446E8
:1011080001A9284603AB02F076FC039A12B16243A8
:10111800120A0132029B039213B163431B0A013383
:101128000198029310B16043000A013001908DF8D4
:1011380001008DF803200DF101000DF102010DF100
:1011480003028DF8023004F0D9FE03E0039003A8EF
:1011580004F0E8FE05B030BD048001102DE9F04F21
:1011680091B0064689460F929DF868A01D46002B4F
:101178004BD0022400234FF0410BB2278DE808081A
:1011880002930493069308930A930C930D93039484
:1011980064230594079409940B9728461C494FF437
:1011A800903203F0CCFB3268B168804600F1805081
:1011B800A24000F500200BF027FC164BCDF808A044
:1011C8008DE808084FF4A0730493C82306930F9B77
:1011D8000A9333680394A3405B080C93059407941F
:1011E800CDF8209009940B97284609494FF490327E
:1011F800642303F0A4FB32680549284608EB820201
:1012080011B0BDE8F04F03F062B811B0BDE8F08F3F
:1012180000000810424C54312DE9F04796B09A4628
:10122800002302938046102340200E4603939146E4
:1012380000F070F8011D00F14403002421F8024C6D
:1012480021F8044C04319942F7D1317804904B1EAF
:10125800062B48D8294F3B682BB9294805F04AFF87
:101268006FF0010441E0274DBAF80030B9F80020CA
:101278000091ADF83420ADF836300DAA02AB3946EE
:10128800286804F080FD3178286804F050FAD8F80E
:101298000030C361054602AA39460DA804F056F885
:1012A80021460DA804F0C8F804210323A8610A46C2
:1012B800009302A81E9BFFF751FF3278124905A838
:1012C8000BF0A0FC812120222B46009405A805F0F4
:1012D8005DFCFFF7B1FB0D4805F00CFF1E980121DE
:1012E80000F0C0FA01E04FF0FF34049808B100F0B4
:1012F80015F8204616B0BDE8F08700BFA880011099
:101308007533011004800110693301108E33011008
:101318000BF0AAB80BF0A8B80BF0AEB80BF0ACB84D
:1013280000207047FEE70000012884B03CD870B95F
:101338001E4B1A680092009AD20117D5009AD24320
:1013480042F0807201921A4A01981060F1E7194B35
:101358001A680092009AD00417D5009AD24342F432
:1013680080520192144A01981060F1E7134A116003
:101378001A680292029AD10116D4029AD24322F034
:101388008072039203990A4AF1E70D4A11601A68BC
:101398000292029AD20407D4029AD24322F48052CB
:1013A80003920399044AF1E704B0704754310540A9
:1013B80004310540503105400031054004340440F3
:1013C80008330440014B002018707047408001101A
:1013D800034A01231370034A00201370704700BFAB
:1013E800408001101480011037B500240C4D009482
:1013F800214601940B4A0C48012305F00BFC2146B9
:10140800009401942846094A012305F003FC084981
:101418002846224603B0BDE8304005F0D3BB00BFE4
:10142800963C0110403C0110303C01109C3C0110DE
:101438001580011013B5037833B1082B2AD8013B66
:10144800164A52F823302BB3154B00221A60047841
:10145800B4B90DF107012246124805F0B3FB9DF817
:1014680007104A1ED3B2072B06D80C4951F8222080
:101478004AB10D4A137006E00B48047019B1F4E73D
:10148800094B013C1C70094A01231370084A0020CB
:10149800137001E04FF0FF3002B010BD2080011042
:1014A80010800110303C01101D8001104080011097
:1014B8001480011010B50C46FFF7BCFF0028A1BF2F
:1014C800024B22681A60002010BD00BF1080011076
:1014D80010B50024064B53F8243033B101340548C5
:1014E80021460CCB05F006FEF4E7184610BD00BFF8
:1014F80020800110D93C01107FB50B4903460868CC
:101508008988049004AAADF8141043B10021009210
:101518001846019102918222062303F0BEF80020AA
:1015280007B05DF804FB00BF503B011030B50388DD
:10153800112B85B012DCA1B10B4D05EBC3000024C3
:1015480040680190A1220846009202940394214623
:1015580055F8333003F0A1F8204603E04FF0FF3090
:1015680000E0084605B030BD50450110044B18781E
:1015780028B9044B1B78002B14BF022000207047A9
:10158800148001101C80011038B504460C20FFF7A8
:10159800BFFE0546FFF765F80F4B10491D60204652
:1015A8000F4C02F028FF20680E49002203F0C6FC09
:1015B8000D4B0E4918800022206803F0BFFC0C4B2D
:1015C8000C4918800022206803F0B8FC0A4B1880E8
:1015D800FFF70AFF002038BD18800110583B0110A2
:1015E800F8800110E53C011006730110E93C011078
:1015F80002730110F13C011004730110064B09B18C
:10160800D86107E053F821200AB10131FAE7024B0B
:1016180043F82100002070472080011010B50B4BC3
:1016280088B0B3F90020009007AB00210293084B63
:1016380001910391049104461868012303F071FC99
:10164800044B07981C7008B010BD00BF067301104A
:10165800F88001100E8001107FB5084BB3F9002007
:1016680005AB00210093064B0191029118680B46C7
:1016780003F057FC059807B05DF804FB04730110EC
:10168800F88001107FB5094BB3F9002005AB0021A4
:101698000093074B0191029118680B4603F041FC37
:1016A8009DF8140007B05DF804FB00BF0273011039
:1016B800F880011007B50023D9B2094A52F8212051
:1016C8000133002AF8D1074B1868FFF71BF802AB63
:1016D80003F8010D1846FFF7ADFE03B05DF804FBF3
:1016E800208001101880011008B5FFF78DFA00F06E
:1016F8007DFD02F071FC06F077F800F0B9FBBDE85B
:101708000840FFF771BE000008B505F085FC074BDF
:101718001868FFF74BF8064B187005F0DDFA18B19A
:10172800BDE80840FFF7E0BF08BD00BF1880011002
:101738001C80011073B5FFF7BDFF00252C46344B04
:10174800186802F04DFD0646FFF7DEFF042C07D8A7
:10175800DFE804F0091D2F353E002E4B1B78F3B946
:1017680003243546EBE72C4B1B7823B902A840F835
:10177800043D04F0D7FB294B1A78294B53F8223043
:101788009B6898470028B4BF03240124E9E7254B48
:101798001B78002BE1D0FFF75FFF0224E1E71F4B26
:1017A8001A781F4B53F82230DB689847002822DA52
:1017B800D6E71C4B1B78002B08BF0024D1E7154A3D
:1017C80000231370184A04241370FFF745FFC8E775
:1017D800104B1B781BB1FFF7FBFD0024C1E71EB1BE
:1017E800124B1B78002BBCD102A8002400F8044D32
:1017F800FFF720FEB5E7002DB3D0002EB1D104F0DD
:10180800BBFF02A8344600F8046DFFF713FEA8E7F3
:10181800F480011040800110508001101D800110DB
:10182800208001101C80011014800110CC8A011046
:1018380010B5FFF727FF044608B1FFF70DFF204654
:1018480010BD000008B5054B186805F0F5FE044BFF
:101858001878BDE80840FFF7E1BE00BF0880011016
:101868000E8001101FB548B1042300930023019195
:10187800029318216422034B02F00FFF05B05DF8B4
:1018880004FB00BF45565431C269006A101A7047FC
:1018980070B503460024944217D0D8691D6A401BCE
:1018A800002801DC224610E058691D69461C5E616B
:1018B800285C0855186A5D6901301862D868854245
:1018C80004BF002058610134E5E7104670BD0000F0
:1018D800034B4FF48022C3F880200020704700BFDC
:1018E80000E100E0826838B5536803F0F803982BEC
:1018F800044651D00BD8802B18D003D8602B4BD07E
:10190800702B11E0882B47D0902B0FD048E0B82BD4
:1019180024D004D8A02B3FD0A82B1FD040E0C82B40
:101928003AD0F82B38D0C02B3AD135E09368216AE9
:10193800E269511AE268521A002ADBB226DDA2696E
:101948002169501CA0618B54E369A2690133E361EA
:10195800E3689A421AD10023A36117E0237913B1EF
:101968000023936022E0256B35B9636BA06A616A36
:1019780098472063B8B1E562E36AA26A591CE1623C
:10198800D25C236B013B2363A3689A60A36804229B
:101998001A6008229A6138BD04231360082300E006
:1019A8002C23936138BDA368986001232371EDE768
:1019B800014B1868FFF796BF4480011083683822EE
:1019C8009A6144221A60704738B503210546F0220F
:1019D8000120002304F03CFC02200121F022042312
:1019E80004F036FC02200121F022042304F030FC2C
:1019F80001200421F022002304F02AFC0021022007
:101A0800F022042304F024FC064B0024C3F81842F7
:101A1800054B2C714FF4802228461A60FFF7CEFF41
:101A2800204638BD0010104000E100E008B583688A
:101A38001B685B0701D4FFF7C1FF002008BD13B581
:101A48008DF8051002A9002401F8044D80688DF86E
:101A5800074004F0D1FB204602B010BD2DE9F84341
:101A680020269946134B03600446C66030460F464D
:101A78009046FFF74FFC002520616561A561E5618F
:101A8800256266623046FFF745FCE562A062256381
:101A98003846C4F83490A760074904F06BFB204629
:101AA8004146FFF7CCFF054B83F817532046BDE8A6
:101AB800F88300BFE8450110A086010000E100E0BE
:101AC80038B505463820FFF723FC2B460349542236
:101AD8000446FFF7C3FF024B1C6038BD00100A40E4
:101AE8004480011010B50E4C05F0A4FA2068FFF7E9
:101AF800BBF900F0CFFB2068FFF746FD002109483D
:101B0800FFF77CFD00F0B4F900210748FFF776FDE8
:101B180001210648FFF772FDFFF70CFE002010BDFB
:101B2800F4800110087301101C7301102C7301104C
:101B380013B502AC012304F8013D204602F034F944
:101B48000B4B186803F025FE0A4B186805F074FD66
:101B58000020FFF763FD00F0B1FB036821469B6896
:101B6800012298470028F6D1034B187002B010BD27
:101B78000480011008800110488001102DE9F3410C
:101B880000F09CFB0A260446454D2F78012F07D00C
:101B980002D3022F17D079E0424BFF221A7073E06C
:101BA800236820469B6869463A46984700286FD0C4
:101BB8003C4A9DF8001013783B48117041EA032312
:101BC8000380022363E0384B1B88FF2B26D1236850
:101BD8002046DB68984703285ADD23683A469B6805
:101BE80001A92046984723683A4602AF9B680DF141
:101BF80006014FF000082046984707F8058D01A90F
:101C0800384605F035FD012338460DF106018DF8FB
:101C1800033005F02DFD85F8008039E0FE2B0AD150
:101C2800236820469B6869460122984780B3684626
:101C380001F0B2FF2AE0FD2B26D123682046DB689D
:101C48009847022824DD23680DF101019B680122D1
:101C58002046984723680DF102019B68012220461F
:101C6800984723680DF103019B6801222046984795
:101C78000DF103020DF101000DF1020104F03EF92E
:101C88000A4B01221A7001E0012300E000232B70A7
:101C9800013E16F0FF067FF477AF02B0BDE8F08191
:101CA80048800110498001101873011050800110FC
:101CB80010B5204C86B0206801F0BCFD00280BDA76
:101CC8001D4B1B78002B32D01C4B1D4819684A1C31
:101CD8001A6005F00FFA2AE0FFF750FF05AB0093F2
:101CE800206802A904AA03AB00F065FF059B0093D6
:101CF80001230193134B0299049A1868039BFFF779
:101D08008BF900F0DBFA03681B6998470E4B1B78C8
:101D18000BB9FFF7CFF90D4B1B681B689A88DB8856
:101D280092B29BB29A4202D1FFF728FFF3E7002054
:101D380006B010BD04800110158001104C80011000
:101D480000460110F4800110508001100880011035
:101D5800094B4FF4FA725A604FF448729A604FF088
:101D680000421A60054B4FF42F7159604FF46171AE
:101D780099601A60704700BF54800110608001109C
:101D88004368B3F1004F37B504460D461BD0CB1A54
:101D98000169C2684B4302FB053203684FF47A714C
:101DA80092FBF1F213448B4201DD016003E0002B4A
:101DB800B8BF00230360204602A950F8083B21F869
:101DC800023D05F055FC656003B030BD30B51D4DD2
:101DD80087B0286801F02EFD2868002100F09DFEDC
:101DE800C0B1C38804894288E41A022194FBF1F443
:101DF8001C44838814489B1A93FBF1F11144A4B244
:101E080089B2C1F1A001643CFFF7BAFF0F4821462F
:101E1800FFF7B6FF05AB0093286802A904AA03AB35
:101E280000F0C9FE059B009301230193084B02991A
:101E3800049A1868039BFFF7EFF8FFF73BF90020B7
:101E480007B030BD048001106C8001108080011043
:101E5800F480011007B502A94FF4FA7340F8083B63
:101E680021F8023D05F004FC03B05DF804FB000016
:101E78002DE9FF41DFF8C080264F274A274E284D1D
:101E880000244FF4AF738DE81800404680210423E6
:101E980004F0C0FE4FF416738DE818003846802110
:101EA800204A042304F0B6FE4FF4FA738DE81800B4
:101EB800304680211C4A042304F0ACFE4FF42F73F3
:101EC8008DE81800284604238021184A04F0A2FE51
:101ED80002A92246404604F075FE03A92246384668
:101EE80004F070FE124B029ADA60039A1A6102A992
:101EF8002246304604F066FE2246284603A904F02E
:101F080061FE0C4B029ADA60039A1A6104B0BDE8CC
:101F1800F08100BF7046011036460110B34601102B
:101F2800FA4601107B460110BF4601100647011012
:101F38006C800110808001102B46011007B502A8A3
:101F4800012300F8013D01F02FFFFFF791FF0B4837
:101F5800FFF780FF0A48FFF77DFF0A4B1B680BB1AC
:101F6800FEF76AFD084B186805F066FB0020FFF7CE
:101F780055FB002003B05DF804FB00BF6C80011026
:101F880080800110A8800110088001100C4B0021EE
:101F980019724FF448714FF4FA7219614FF0004109
:101FA8001A60DA605960074B1A6001221A724FF4FE
:101FB8002F72DA604FF461721A615960704700BF7E
:101FC8006C80011080800110002070472DE9F041DD
:101FD800434B444C196801298EB01AD1424A0290E9
:101FE80041238DE80C00022303930593B1234FF49A
:101FF800A078C827079300264FF47A430893CDF8B2
:10200800108006970996206838494FF49032642367
:1020180030E0A1F16403632B43D80A2691FBF6F262
:1020280006FB121230321206642342F4B04242F028
:10203800450291FBF3F503FB1511B1FBF6F13031C5
:1020480042EA014200924122019202220392059241
:10205800B12202904FF4A078C827079200264FF4C7
:102068007A42206821490892CDF81080069709968F
:102078004FF4903202F063FC054600F18050C5F53C
:1020880090318DE8400102972122334600F5002067
:1020980001F0DEFE2068154905F57A4202F017F9CD
:1020A8001BE021238DF82F300023ADF83030ADF838
:1020B80032304FF4A073ADF83430C823ADF8363061
:1020C8000DF136030093236801930DF12F000CA93D
:1020D8000DF132020DAB01F073FF0EB0BDE8F081D7
:1020E80010800110F4800110434D56320000081092
:1020F8007FB5134B1B68E3B9ADF81030ADF812305B
:102108004FF4A073ADF81430C823ADF816300DF1B4
:10211800160300930B4B21221B688DF80F200193A7
:102128000DF10F0004A90DF1120205AB01F048FFF3
:1021380002E00120FFF74AFF002007B05DF804FB2A
:1021480010800110F480011008B50A4603490346BF
:102158000868194600F082FC08BD00BF0480011021
:10216800052838B5054631D81A4C206810B10368DF
:102178005B689847184B1D70013D042D1AD8DFE89D
:1021880005F003080A0D1100144B1868206000219F
:1021980014E0134B00E0134B1B6809E0124D0121BA
:1021A800286802E0104D28680021FEF75DF92B68C9
:1021B800236005E0094B18682060012100F04CF904
:1021C800206803681B689847002038BD4FF0FF302F
:1021D80038BD00BF94800110988001109C800110C8
:1021E80044800110A080011000800110F0B5214F3B
:1021F800214E224A224D85B00024214600940194A4
:102208003846012304F006FD54238DE818003046B3
:1022180010211C4A012304F0FDFC4FF496438DE87D
:102228001800214604232846174A04F0F3FC0DF150
:102238000A012246384604F0C5FC9DF80A00FFF75B
:102248008FFF22460DF10B01304604F0BBFC0F4B0B
:102258009DF80B101868FFF7F2FB03A922462846E1
:1022680004F0B0FC0A4B0399186800F001FB05B0B4
:10227800F0BD00BF8E4701103B4801109C4701107C
:102288009C48011047480110AA48011044800110D9
:10229800A080011010B5084C2046FFF711FC20461D
:1022A80000F03CF9204600F0EDFAFEF7DFF8FFF702
:1022B8009DFF002010BD00BFC91E0010014B18680B
:1022C800704700BF9480011042698069101A7047F6
:1022D800F0B503460024944216D09D695869401B06
:1022E800002801DC22460FE0DE689F680135701C7B
:1022F80037F816609D615D68D860A84204BF002069
:10230800D8600E550134E6E71046F0BD044B0020B6
:10231800C3F81802034B4FF40002C3F8802070473B
:102328000010104000E100E00C4B4FF48042C3F86D
:10233800142296220A49086840070BD4013AF9D1B9
:10234800C3F8142210220868400703D4013AFAD1CE
:10235800012070470020C3F8140270470010104095
:1023680014610F4037B5054690F83D00D0B10E48CE
:102378000421002203F0CDFF01A804F0E9F9284662
:10238800FFF7D2FF044630B9019804F0E7F9074B8C
:102398009842F4D900E0012403480421012203F003
:1023A800B8FF204603B030BD00500C4020A1070004
:1023B80038B50F4B042405469C6301200321F02205
:1023C800052303F045FF21460120F022052303F0F1
:1023D8003FFF012013210346F02203F039FF054B8C
:1023E8004FF400021A602846FFF7BCFF002038BDF2
:1023F8000010104000E100E038B590F83D30044688
:1024080023B3426B836B9A4216D090F830507DB953
:1024180090F83C300133DBB2052B80F83C3013D107
:10242800FFF7A0FF0A4804F065FE84F83C500BE073
:10243800002380F83C3007E0064B4FF48042C3F895
:1024480014220022C3F81422636BA363002038BD52
:10245800284901100010104080F83D10044B21B1AC
:102468004FF48042C3F818227047C3F81812704717
:1024780000101040F0B5244B03601026044689B0C4
:10248800466020200F46FEF745FF0025A060E56066
:1024980025616561A561E6612020FEF73BFF1B4BC6
:1024A80007930F2320626562A5620293E762042303
:1024B8001748039502A904950695059303F0D2FEE3
:1024C8000825134E013DB3680193FAD13046012126
:1024D80003F016FF3046042103F025FF304604219F
:1024E800012203F016FF0B4B83F817530A4B84F8AD
:1024F800305020466563A56384F83C5084F83D500D
:10250800C3F8185209B0F0BD1049011000CB280CCF
:1025180000500C4000E100E00010104038B50546BE
:102528004020FEF7F5FE29460446FFF7A3FF014BBE
:102538001C6038BD9C80011070B5C56804460E4605
:1025480045B9016803694068490098474008E06058
:1025580058B1A560A3686268591C32F81330A160AD
:102568003380E368013BE360012070BD0269436981
:1025780070B50468D31AE31A002B0CDDC5684668E9
:102588006B1C0132A342C36026F81510026104D106
:102598000023C36001E0002070BD012070BD000071
:1025A80090F83D202A4B73B5044682B3294A4FF46C
:1025B8008041C2F814120021C2F8141204229D6846
:1025C8001A62234BDB6813F002030DD004F11C00E0
:1025D8000DF10601FFF7B0FF08B9ADF806001C4B76
:1025E800BDF806209A60ECE705F47F42B2F5B44FD7
:1025F80006D0B2F5B64F04D1201DA9B2FFF7B6FF39
:10260800012384F83030636B013363631EE00422D6
:102618009D681A620E4EF3689B0706D504F11C00EC
:102628000DF10601FFF788FF60B905F47F43B3F5A4
:10263800B64F0BD1201DA9B2FFF798FF012384F8EC
:10264800303003E0BDF80630B360E3E702B070BD98
:1026580000500C4000101040014B1868FFF7A0BF55
:102668009C8001108269C069101A704790F8343054
:1026780013B94268136013600020704770B50346B1
:102688000024944217D09869DD69401B002801DCBA
:10269800224610E01869DD68461C1E61285C085552
:1026A800D8691D690130D8619868854204BF002047
:1026B80018610134E5E7104670BD000008B5022036
:1026C8000021F022042303F0C3FD02200121F0229F
:1026D800042303F0BDFD034B4FF08072C3F8802044
:1026E800002008BD00E100E008B502200021F0222A
:1026F800012303F0ADFD01210B460220F02203F077
:10270800A7FD01200321F022002303F0A1FD0120F1
:102718000421F022002303F09BFD034B4FF080724D
:102728001A60002008BD00BF00E100E073B5044650
:102738000020626884F83400936803F00E03042BC9
:1027480016D11368E169A269511AA268521A824225
:10275800DBB22FDD6269E168551C65618B54A369A2
:1027680062690133A361A3689A4223D1606121E0C1
:102778000C2B02D1136801931CE0022B1AD11025EF
:10278800E66A36B9236B606A216A9847E06268B1E5
:10279800A662A36A626A591CA162D25CE36A013B21
:1027A800E362012384F8343063681A60013D15F050
:1027B800FF05E5D102B070BD014B1868FFF7B6BF41
:1027C800A08001102DE9FF412026264B0360044616
:1027D8008660304690460F46FEF79CFD0025E06077
:1027E800266225616561A561E5613046FEF792FDC7
:1027F8004FF496430193032360628DF809303846FD
:10280800194BA56201A9E562C4F83080676084F8B5
:102818003450039301268DF808508DF80A5003F0C0
:1028280047FE60688DF8025069468DF803508DF8B0
:1028380000608DF8016003F00BFF6068314603F01B
:1028480025FF60682946324603F0E4FE6068314699
:10285800324603F0DFFE054B204683F8185304B0D8
:10286800BDE8F0813849011000CB280C00E100E0F8
:1028780008B5034A406803F079FD002008BD00BF91
:1028880000CB280C38B505463820FEF741FD044931
:102898002A460446FFF796FF024B1C6038BD00BF6E
:1028A80000100840A08001102DE9F041884611462B
:1028B800044602F0D9FF04F5D27604F51A773546B6
:1028C80030461C3606F014FBBE42F9D11423C4F876
:1028D8008032A4F87A32052300266422A4F88432D0
:1028E800062384F87662A4F87822C4F88C62C4F8C7
:1028F800A081A4F8863284F888624FF47A70FEF7D3
:1029080009FDA4F86C62C4F86802A4F87C62A4F813
:102918007E6228461C3506F074FBBD42F9D120467C
:10292800BDE8F0816429C0F8803288BF64219DF831
:102938000030A0F87812A0F87A2280F888320020B7
:10294800704713B59DF8004061F302048DF800400C
:10295800BDF8004062F3CB04BDF80220ADF800409A
:1029680063F30902ADF80220BDF810201344BDF846
:102978000420013963F309021C2303FB010000F55D
:10298800D2706946ADF8042006F08CFB02B010BD89
:10299800112A2DE9F0415BD990F87632002B57D1F6
:1029A800B0F87E42B0F87422944254D2D0F87C3207
:1029B8002BB94AF6552321F8023B092400E00824E4
:1029C8004AF656230B80B0F87E32D0F870724FF07A
:1029D8000C0E0EFB03F337F803C0A1F804C0B0F8DF
:1029E8007E520EFB0575AB886A889A1A92B24A81A4
:1029F800B0F87E520EFB05752B89ED885B1B9BB2E8
:102A08008B81B0F87E520EFB05756E8806EB520678
:102A1800B6B2CE80B0F87E520EFB05751A44ED882A
:102A280005EB5305ADB20D81B0F87E820EFB087739
:102A380062447F89CF813A44B31815FA83F34B80F7
:102A4800B0F87E320133A0F87E326000BDE8F08134
:102A58000020BDE8F0811846BDE8F0810F2A2DE975
:102A6800F041B0F87C3205460C4653D9B0F86C6298
:102A7800B34206D390F888721FB1BDE8F041FFF762
:102A880087BF95F87602002844D1B34243D22BB9C8
:102A98004AF6552224F8022B082000E00720D5F832
:102AA80068624AF6552203EB8303228036F81380C6
:102AB800A4F8048002335900A1F1020C36F813304F
:102AC80036F80C70DF1B01F1020EBFB2314467818A
:102AD8008B8836F80E10591A89B2A1817A1808EB3A
:102AE800020336F80C2002EB5707BFB2E78017FA4B
:102AF80083F236F80E3003EB51039BB2238113FAAD
:102B080082F36380B5F87C320133A5F87C3240004B
:102B1800BDE8F0810020BDE8F081F0B5024619B1AA
:102B2800B0F86C62002040E0D0F88C02002841D157
:102B3800B2F86C7203460546BD4212DAD2F8680252
:102B48000A2101FB0501013588884E880C89861BFE
:102B5800C888201A7043984284BFC2F88C12034672
:102B6800EAE7B2F874720025BD4212DAD2F87002B0
:102B78000C2101FB0501013588884E880C89861BCC
:102B8800C888201A7043984284BFC2F88C12034642
:102B9800EAE7D2F88C02F0BD0A244443D2F868521E
:102BA8002B192C5B8C4204D00130B042F4DB00209E
:102BB800F0BD1846F0BD10B5D0F868420C60B0F80A
:102BC8006C121160D0F870221A60029BB0F874225F
:102BD8001A6010BD002070B50346044604EB840655
:102BE8009442B6B218D001EB460531F816602EB9FA
:102BF8000130002B08BF2B4680B20AE04BB11E8083
:102C08006E885E80AE889E80EE88DE802D891D816C
:102C18000A330134A4B2E1E770BD2DE9F74F02EBA6
:102C2800820293B2002000930246009B9A4240D051
:102C380031F8123001EB4204002B37D0531D009DB0
:102C48006688A788B4F806E0B4F808C001959BB276
:102C5800019DAB422AD031F813804FEA430B01EBB8
:102C68000B05B8F1000F1ED0B5F802A0B5F8049016
:102C7800B5F806802D89564509D84F4507D3C6456E
:102C880005D8AC4503D3002521F80B5009E0B2451F
:102C980009D8B94507D3F04505D8654503D30025BC
:102CA8002580013080B205339BB2D1E7053292B25C
:102CB800BBE703B0BDE8F08F2DE9F04F8BB002EB16
:102CC8008202039093B2002004930190049B019A1E
:102CD8009A4200F09380019A019B31F812405B0000
:102CE800002C00F083809C1C0D1931F804E0059538
:102CF8001C1D0D1931F804C006959C1D08330D19CB
:102D0800079531F803800C5BCD18134605339BB249
:102D18000293049B08950993029B099A934265D0F4
:102D2800029B4FEA430931F8133001EB0907002BE6
:102D380057D07D88BE88FB883F89754511D8039A8E
:102D4800B2F884B2C6EB0E0ADA450ADC9C4201D816
:102D5800434503D9BC4204D8474502D8059B1D808A
:102D68003AE0664511D3039AB2F884B2CCEB050A6F
:102D7800DA450ADC9C4201D8434503D9BC4204D851
:102D8800474538D8069B1E8026E0A34211D8039AEF
:102D9800B2F884B2C7EB040ADA450ADCAE4501D8BA
:102DA800654503D9B64504D8664502D8079A138005
:102DB80012E0474515D3039AB2F884A2C8EB03037F
:102DC80053450EDCAE4501D8654503D9B64508D84C
:102DD800664506D8089B1F800023013021F809307A
:102DE80080B2029B05339BB2029395E7019A0532A4
:102DF80093B201936AE7A342C9D9DCE70BB0BDE8F7
:102E0800F08F2DE9F04F87B088880190C8884B88EB
:102E18000290B2F804905088098903911FFA89F545
:102E28009CB281B20495B2F80880D58805950FFA4E
:102E380084FA0FFA81FCE245BDF80460BDF8087019
:102E4800BDF80CE0BDF814501FFA88F21DDB0FFA2C
:102E580087FC0FFA85FAD44503DC0FFA8EFBDA45B6
:102E68000BDD0FFA82FAD4450ADC0FFA8EFBDA453D
:102E780003DD0FFA85FAE24502DCC9EB03001AE02C
:102E88000BB20FFA84FC634517DB3BB20FFA85FCE3
:102E9800634546DC0FFA8EF9CC450ADD0FFA82F954
:102EA8004B450ADC12B20FFA8EFE724501DD9C45D5
:102EB80020DC019BC01A80B238E03BB22AB29342B0
:102EC80018DB23B20AB2934202DC30B2824209DD37
:102ED800BDF91000834209DC0FFA86FE704501DD5A
:102EE8009A4203DC029BC8EB0300E4E72DB23FB231
:102EF800BD4213DB24B209B28C4202DC33B29942E0
:102F080008DDBDF910309C4208DC36B2B34201DD61
:102F1800A14203DC059B039A981ACCE747F6FF7099
:102F280004E00FFA82F94B45BCDDCAE700B207B0EE
:102F3800BDE8F08F70B50E46098804461546E1B124
:102F48001388E3B1994228D090F88832022B04D133
:102F580094F88832022B07D113E001F0070102F040
:102F680056FD012819D1F3E72978204601F0070119
:102F780002F04DFD012810D103E0084670BD184647
:102F880070BD314620462A46FFF73BFFB4F886124B
:102F98008842CCBF0020012070BD002070BD10B554
:102FA80002203BB1948853884A88234493FBF0F36A
:102FB800888806E01489D388CA88234493FBF0F3F1
:102FC80008891044C3EB600080B2030444BF404248
:102FD80080B200B210BD0000F7B5CB8808890E4654
:102FE8001844D18813890B445B10C3EB600007EECB
:102FF800900AF8EEE77A174617EE900A08F04CFCAC
:103008007B8872880446B8881844B38813445B10D8
:10301800C3EB600007EE900AF8EEE77A0D4617EE6C
:10302800900A08F039FC02460B46204629460EF065
:1030380065F900220C4B08F083FC09A3D3E90023AF
:1030480008F0A8FD08F0AEFE07EE900AFDEEE77A5C
:10305800CDED017ABDF9040003B0F0BDAFF30080F7
:10306800000000C0CA21094000806640AFF300801C
:103078002DE9F04786B080469DF838A00D461646E3
:1030880099460024B44201AF0CD00A2C0AD055F856
:103098002420404649465346FFF781FF27F814008D
:1030A8000134EFE73A462B46002101204C1C1FFA59
:1030B80084FEB64504D30028F4D006B0BDE8F087F6
:1030C8000929F8D0B2F800E032F8021F8E4581BF16
:1030D80022F8021C93E80300A2F800E0586084BFBD
:1030E8001960002021460433E0E72DE9F04F00275E
:1030F800B2F900B08DB0B9463E465E453FDA51F8A8
:103108002600838844881C1B0389C0881B1A6343D4
:10311800642000FB03F54FF4FA74B5FBF4F4019452
:103128004FF4C8745C43B4FBF0F400201C4486469A
:10313800764516D051F82EC0BCF80250BCF804A051
:10314800C5EB0A0ABCF80850BCF806C0CCEB05056C
:1031580005FB0AFA019D554503D8A2459CBF0130DD
:1031680080B20EF1010EDE45E2DBB8429ABF43465B
:1031780038464FF00109013698460746BDE7B9F1D0
:10318800000F01D1A2F800900023B2F900E01E461A
:10319800764501DB002026E0092BFBD851F82640B4
:1031A800A0886588E788451B2089C01B68434FF0C5
:1031B800640C0CFB00F74FF4FA75B7FBF5F74745BD
:1031C8000FD84FF4C8754543B5FBFCF52844804536
:1031D8009FBF0CAD581C05EB830343F8284C98BFE0
:1031E80083B20136D4E7984206DA02AC54F820409C
:1031F80041F820400130F6E713800DB0BDE8F08FAC
:10320800F0B50023B2F900608BB01D461846B042F5
:103218009CB217DA0A2B14D051F820704DF823709D
:103228000130B0420BDA51F82040B7F800E02488AA
:103238008EEA0404640702D101300125F1E7013365
:10324800E5E71C464DB10023A34205DA5DF82300EB
:1032580041F823000133F7E714800BB0F0BDF0B557
:10326800D0F86852B0F86C620020B0420CDA0A2438
:10327800444301302B5B23F00707974202BF03F05A
:1032880007030B432B53F0E7F0BD2DE9F04FB0F8DF
:103298006C32D0F868720A2697B0044606FB0376AB
:1032A8004FF0000BB7423BD207F10A0807F11405AB
:1032B800A5F10A02B24231D220463946FFF73AFE5A
:1032C80050B338F80A3C35F80A2C072B11D8072ACE
:1032D80017D80BF101021FFA82FB4FEACB0292B218
:1032E800134328F80A3C35F80A3C1A4325F80A2CF7
:1032F80012E0072A05D823F00703134325F80A3CF0
:103308000AE035F80A2C072A06D9072B9EBF22F0B7
:103318000702134328F80A3C0A35C9E74746C1E7BC
:10332800D4F86892B14520D2CA463AF80A7B072FEA
:1033380019D927F00707BFB2D046B04513D2B8F85D
:103348000050072D0CD925F00705ADB2AF4207D0C4
:10335800204649464246FFF7EDFD002840F06281CD
:1033680008F10A08E9E7D146DCE7D4F86832D4F86E
:10337800705203F5777309930023A4F8743201227D
:1033880013B25B45D4F8683200F32F8109998D4256
:1033980080F02B8192B2D0000692002280B2ADF864
:1033A8002E20B34216D3ADF82E2020460CA90DF1DD
:1033B8002E02FFF79AFEBDF82EA00FFA8AF3012B12
:1033C80040F30F810023059304930393194618468D
:1033D8001F4611E011B20929E5DC1F8827F007070D
:1033E800874201BF16AF07EB8101013241F8283C43
:1033F80008BF92B20A33D4E70CAA0FFA87FE52F834
:103408002390B9F80220079216AA02EB8E0E079AAB
:103418005EF828ECB9F804C0BEF802E01FFA83F899
:10342800964588BF4746B9F8062008920FFA81FEEC
:1034380016AA02EB8E0E089A5EF828ECBEF806E093
:10344800964588BF414616AA0FFA80FE02EB8E0EFB
:1034580001335EF828ECBEF804E0E64538BF404684
:10346800B9F808E0BDF90C9002EB8909039A59F8FC
:10347800289CB9F80890F14538BF42460392079A4C
:10348800C2EB0C0C049A62440492089AC2EB0E0E2A
:10349800059A0FFA83FC72440FFA8AFEF4450592E6
:1034A800AADB16AA00B209B202EB810102EB800086
:1034B800BDF90C2050F8280C16AB0DF158083FB296
:1034C80003EB870708EB820257F8283C52F8282CB0
:1034D80051F8287CB3F802C08088F9881289A5F8C9
:1034E80002C0E9804FF06408CCEB000C511AA880A8
:1034F8002A8108FB0CFC049A92FBFEF008FB01F100
:103508009CFBF0FC059A92FBFEFE91FBFEF18C45BC
:10351800CCBF012100230DF13008C9BF00910093F1
:1035280020464146DEBF204641463B461FFA8AF206
:10353800FFF79EFD204641460DF12E02FFF760FE83
:10354800BDF92E30012B4CDD052BC4BF0523ADF88A
:103558002E300021BDF82E300F4608B21AB2904224
:1035680009DA58F82120128802F0070242EAC70255
:1035780097B20131F1E7013B9BB2002118B2002854
:1035880012DB0DF1580E0EEB8000013B50F828ECD1
:10359800BEF8000000F0070040EAC101002089B22F
:1035A800AEF800009BB2E9E78F4233BF16AB16AB0B
:1035B80003EB820203EB82022BBF29802F8052F893
:1035C8002C1C0C9935BF52F82C2C0C9A20462046FE
:1035D800FFF702FDB4F87432688101330C35A4F8A2
:1035E8007432069A013292B2CAE603F10A05A5F1CD
:1035F8000A039E4220D994F88832032B04D135F867
:103608000A3C072B0CD913E035F80A1C07290FD8F8
:10361800022B0DD02046C9B202F0F9F9012807D0D3
:103628000A35E4E7204639462A46FFF718FE97E6AA
:10363800002325F80A3CF3E717B0BDE8F08F38B54A
:1036480000F5D27400F51A75204605F05FFC204697
:103658001C3405F0A0FCAC42F6D138BD2DE9F04F82
:1036680089B000230646ADF81830ADF81E30ADF825
:103678001A30ADF81C301A469A464FF0FF38D6F883
:10368800A001059306A9049203F078FF049A059B0C
:103698000028F4D0BDF818404FF6FD718C4200F2B6
:1036A800B880002BEBDB54BB7AB103991FFA8BF07F
:1036B8000131091A431E89B200919BB2D1B230463A
:1036C8001FFA88F2FFF73DF90346BAF1050F08F132
:1036D80001080AF1010205D0924600224FF6FF7553
:1036E8001746CCE7524A04931068012101F0E6FC22
:1036F80000224FF6FF7517469246049BBFE7BDF8B8
:103708001A000490BDF81E00BDF91C10002804F032
:1037180007094FEAC13108BF01204FF0140E91FB91
:10372800F0FC09F1FF310EFB016E0EF1E00105918D
:10373800DEF8E010614521DA059949688C451DDA03
:10374800BDF910100EF1E80CDEF8E8E0C90391FBB2
:10375800F0F18E4512DADCF804E071450EDAD6F89D
:103768006C1188420ADBE410611B1FFA84FC0529EE
:10377800ADF818C01CD84F451AD114E0002A3FF400
:103788007EAF03991FFA8BF00131091A431E89B2E3
:1037980000919BB2D1B230461FFA88F2FFF7D1F8F8
:1037A800034600226BE75ABB77BB3A46AB462EE08E
:1037B80072B90CF1FF33022200929BB2304649469F
:1037C8001FFA88F2FFF7BDF8034625464F46E8E79B
:1037D80000250399CDF810C01FFA8BF00131091AA2
:1037E800431E89B200919BB2D1B230461FFA88F2CB
:1037F800FFF7A7F8DDF810C00346002DE5D1D8E79C
:103808004A4502D00125E4E7AB463A4603942546EB
:1038180035E73046FFF713FFBDF818304FF6FE7056
:1038280083424FF0FF3018BF002009B0BDE8F08F89
:10383800F48001102DE9F74F0446FFF70FFF002829
:1038480011DA04F5D27504F51A7628461C3505F008
:10385800D8FBB542F9D10023A4F86C32A4F874322D
:103868004FF0FF30B6E00025012684F87662C4F8F0
:103878008C52A4F86C52A4F8745294F88832022B33
:1038880007D02046F1B202F0C2F8431E5842584110
:1038980000E00120B4F86C82D4F8682208EB8803B1
:1038A80001931C2303FB0643019FD3F898314FF083
:1038B8000009DBB3B4F86CC2B4F878E2F44535D249
:1038C800B4F87AE2F14531D2D3F820E018B1BEF16C
:1038D800090F27DD03E0D4F880128E4522DBB3F808
:1038E80004C0B3F812A0B3F810B0998ACCF3C80C8E
:1038F8001FFA8CFECAEB0E0EBEF1010F12DD02EBB1
:10390800470E22F81760AEF802B0AEF80410AEF811
:1039180006A0AEF808C0B4F86CE20EF1010EA4F8E7
:103928006CE205371B6809F10109C2E778B9019B08
:1039380002EB4307B4F86C22C8EB02022046394672
:1039480092B2FFF7B9F910B10544ADB2F2E701360A
:10395800082E92D12046D4F86812B4F86C22FFF7EA
:103968005CF994F88832284485B283B3B4F86C22A1
:10397800D4F868320A2101FB0233C4F870322046B9
:10398800FFF783FC65B12046D4F86812B4F86C22BE
:10399800FFF720F9B4F86C32181AA4F86C0203E0A7
:1039A80094F88832002BEED10023A4F87C32A4F8D6
:1039B8007E3284F8763204F5D27504F51A742846F6
:1039C8001C3505F01EFBA542F9D1002002E0002DB0
:1039D800EAD0D8E703B0BDE8F08FFF2928BFFF2160
:1039E800FF2A28BFFF22FF2842EA012228BFFF2022
:1039F80042EA0040704710B5C4B21C60C0F3072308
:103A0800C0F307401360086010BD00007FB503A92C
:103A180004AA05ABFFF7EFFF049B039A9FED1B7AFF
:103A2800934238BF1346059A934238BF134607EEB0
:103A3800903AF8EE677A06EE102AC7EE277A9DEDDF
:103A4800037AF8EE476A9DED047AB8EE477A67EE96
:103A5800A66AB8EE466A27EE877AFCEEE66A67EE53
:103A6800867ABCEEC77ACDED016AFCEEE77A9DF85E
:103A780004008DED017A9DF80410CDED017A9DF8D2
:103A8800042007B05DF804EBFFF7A7BF00007F43F1
:103A9800014B1878704700BF41730110014B18782B
:103AA800704700BF3E730110014B1878704700BF84
:103AB8003F730110014B1878704700BF4073011025
:103AC800014B1878704700BFA480011038B5094D24
:103AD8000121286804F012F802210402286804F081
:103AE8000DF8204304020521286804F007F8204354
:103AF80038BD00BFB880011038B5094D16212868B7
:103B080003F0FCFF10210402286803F0F7FF2043AC
:103B180004020021286803F0F1FF204338BD00BFEC
:103B2800B880011008B5034B0178186803F0E6FF68
:103B380008BD00BFB880011038B50468094DE2B26D
:103B48002868052103F0C4FF2868C4F3072202216E
:103B580003F0BEFF28680121C4F3074203F0B8FF51
:103B6800002038BDB880011038B50468094DE2B2AC
:103B78002868002103F0ACFF2868C4F3072210214D
:103B880003F0A6FF28681621C4F3074203F0A0FF3C
:103B9800002038BDB880011038B504460A4D227897
:103BA8002868242103F094FF22782868142A86BF05
:103BB800143AD2B20022252103F08AFF034B22785F
:103BC8001A70002038BD00BFB88001104073011082
:103BD8002DE9F341134C0746884620680921102235
:103BE80003F076FF0025454510DA7E19795D2068D7
:103BF800727803F06DFF795D206803F07FFF7378BA
:103C080083421CBF002301930235ECE72068092199
:103C1800002203F05DFF0448FFF7BEFF02B0BDE8D5
:103C2800F08100BFB8800110407301102DE9F04108
:103C3800294C07461321206803F060FF032105463D
:103C4800206803F05BFF254A3B78117899420646C5
:103C5800904636D0A3B92068132105F0F70203F087
:103C680037FF2068032106F07F0203F031FF206848
:103C78000E21402203F02CFF2068212103221EE0A0
:103C8800012B15D12068132105F0F70203F020FF5E
:103C980066F07F0220680321D2B203F019FF206882
:103CA8000E21482203F014FF20682121332206E068
:103CB800022B0CD145F0080220681321D2B203F080
:103CC80007FF3B7888F800300020BDE8F0814FF00E
:103CD800FF30BDE8F08100BFB8800110A48001105A
:103CE80038B50B4C05469721206803F007FF2B7861
:103CF80002462BB140F00A0297212068D2B203E0B5
:103D08002068972102F0F50203F0E2FE002038BD9A
:103D1800B880011008B503780A780349086819467D
:103D280003F0D6FE002008BDB880011070B50F4E14
:103D380005783378AB4217D00D4C382120684DB93F
:103D48002A4603F0C5FE20689621E12203F0C0FE52
:103D5800357009E0102203F0BBFE20689621F1229D
:103D680003F0B6FE01233370002070BD3E730110CE
:103D7800B880011038B50A4C05782378AB420DD0CD
:103D8800084B1321186825B9A02203F0A1FE25705D
:103D980004E0A52203F09CFE01232370002038BD17
:103DA8003F730110B880011038B50A4D04782B789C
:103DB800A34209D00CB9084802E0012C06D10748F3
:103DC8001E21FFF705FF2C70002038BD4FF0FF3093
:103DD80038BD00BF41730110504901106E490110F0
:103DE80038B50C461549054608F03EFF20B920466F
:103DF800BDE83840FFF7D0BE2846114908F034FF27
:103E080050B923781BB9FFF777FE0E4B1860204690
:103E1800BDE83840FFF7AEBF28460B4908F024FF3D
:103E280050B923781BB9FFF751FE084B186020469C
:103E3800BDE83840FFF77ABF38BD00BF8C49011094
:103E48009E490110B4800110B7490110B0800110DB
:103E58002DE9F04393B09846BDF86C50BDF870401A
:103E6800BDF8687004FB05F306468B424FF0FF303F
:103E7800914611904CD8131108D108EB0503B3F5FE
:103E8800A06F4ADC3B19B3F5487F13E0012B08D13A
:103E980008EB0503B3F5207F3FDC3B19B3F5C87F7A
:103EA80008E0022B37D108EB0503B3F5A07F34DC1B
:103EB8003B19C82B31DC12A809F00F0300F8053DA7
:103EC800FFF772FF002828DB154BB3F90020CDF867
:103ED800009004230221019311AB039105910791EE
:103EE80009910C9300210F4B0296CDF8108006978C
:103EF80008950A940B910D910E911868012301F011
:103F080010F8119848B9084B1E609D80DC8004E0C9
:103F18006FF0010001E06FF0020013B0BDE8F0831C
:103F28003C730110F8800110A88001102DE9F047BA
:103F38008AB08246129D2048204F1E4689469046E8
:103F480041211A882B8806938DE803009DF85010AC
:103F5800029153430221039105910893B121002353
:103F6800049207910993394613984FF490326423C9
:103F780000F0E5FCB8F80010009131880191044682
:103F880029889AF80020B9F80030029100F1805091
:103F9800C4F5903100F50020FFF75AFF33882A88CE
:103FA80080463946139802FB034200F090F94046D8
:103FB8000AB0BDE8F08700BF424138310000081060
:103FC8001FB5069C0094079C019401240294FFF7F6
:103FD800ADFF04B010BD000030B5502387B00024F9
:103FE8008DE81800474A484801234FF4807101259D
:103FF80002F010FE4549444802F076FE444A019416
:104008002B4640F202210095424802F003FE3F4948
:10401800404802F069FE0094019429463E4A3F4810
:10402800042302F0F7FD3E4A00942B46019440F227
:1040380002213C4802F0EEFD34493A4802F054FEB1
:10404800394A01942B4640F202210095374802F084
:10405800E1FD2E49354802F047FE042300940194FF
:1040680029462D4A324802F0D5FD224603A92648A2
:1040780002F0A8FD22460DF10D01264802F0A2FD2E
:1040880022460DF10E01274802F09CFD22460DF153
:104098000F01264802F096FD03A8FFF77DFD0DF1FC
:1040A8000D00FFF767FE9DF80D407CB9214D1B48B8
:1040B8002A682AB10421234602F068FD2C6005E035
:1040C80004A902F07FFD04A8FFF74EFD0DF10E00D4
:1040D800FFF72CFE9DF80E3093B99DF80F407CB980
:1040E800154D13482A682AB10421234602F04EFDD3
:1040F8002C6005E005A902F065FD05A8FFF71CFD89
:1041080007B030BDCA4901108C490110613B00104D
:104118003B4A01109E490110A8590110824A01101A
:104128008C4A0110B74901101C4B0110FD4A0110BF
:104138009E4B0110B4800110B080011013B504200B
:10414800FDF7E6F86021044603F07CFC134B20469B
:10415800A0211C6003F0D2FC28211148FFF738FD8C
:1041680002A8002400F8014DFFF71EFE0D4B0E4972
:10417800186800F040F90D4B0D491868224600F008
:10418800DDFE0C4BA042188003DBFFF725FF20461D
:1041980001E04FF0FF3002B010BD00BFB880011041
:1041A80078550110F4800110B0530110F880011007
:1041B800785101103C730110024B00221A60DA801A
:1041C8009A807047A880011070470020704710B58A
:1041D8000023934203DACC5CC4540133F9E710BDE1
:1041E80090F83B007047836813B1436000238360F5
:1041F8007047F0B5002351F8232004689E008F19FA
:10420800002A32D0092B30DC251D12F8012C05605C
:10421800256815B96FF00200F0BD12F0800F12D1B9
:1042280002F00F02012A03D18A5912782A701AE083
:10423800022A03D18A5912882A8014E0042AE9D173
:104248008A59126802E0A12A8A5901D12A600AE033
:1042580012682A6004F10802026062680133002AC9
:10426800D8D07C6814600133C5E7231D036020683B
:104278000028CFD1F0BDF8B590F83B3005460E4682
:1042880017460BB98A061FD5EC681CB9330605D446
:104298000020F8BD4FF0FF30002401E04FF0FF3060
:1042A80095F839309C4209DA2B682846DB68314694
:1042B8003A4698470028EBD00134F1E7002805DAA0
:1042C800002385F83B30F8BD6FF00500F8BD38B520
:1042D80004468068636810B9A360616001E0994290
:1042E8000FD1236AD21AE26094F83A2062B91821F1
:1042F8002046FFF7C0FF05462046FFF774FF284613
:1043080038BD6FF0040038BD002038BDF8B5858E83
:104318000E4940352F01044638460CF0D1F80646C0
:1043280088B100213A4608F009FCA28E216B30467C
:10433800120108F069FB206B08B1FCF7EFFF266358
:10434800A5860020F8BD6FF00400F8BDCC6D011003
:10435800F8B506460F460025ACB2B28E23B293429A
:1043680009DA1B01326BD05818B1394608F07CFCC9
:1043780020B10135F0E74FF6FF7000E0204600B2AB
:10438800F8BDF8B504460D46164605B3204629463D
:10439800FFF7DEFF002813DAB4F834E00027B8B2DC
:1043A80003B2734505DB73450AD12046FFF7AEFF1C
:1043B800EBE71A01216B8A580137002AEFD1F2E79F
:1043C800226B03B21B01D118D5504E6001E04FF6A5
:1043D800FF7000B2F8BD38B505461C46FFF7D1FF9F
:1043E8000028A1BF2A6B02EB0010C4600020B8BFF0
:1043F8004FF0FF3038BD38B5054601F1080454F8D0
:10440800081C39B154F8042C23462846FFF7E3FF6B
:104418001834F4E7084638BD4185704738B5044676
:104428001546FFF795FF236B2A8803EB00131A81C3
:1044380038BD0000437E70B5054613B16FF0040027
:1044480070BD11B94469803401E001F1800420464F
:1044580008490CF035F806460028EFD069686A6903
:1044680008F0D2FA686808B1FCF758FF6E606C6112
:10447800002070BDCC6D01102DE9F04F8A4685B043
:104488001F46054640B190F83A30006A13B100F172
:10449800040802E0804600E080460123C8EB0209D8
:1044A80001933B6893F800B01A1D3A60BBF1000F06
:1044B80000F0DE800BF0BF02012A08F101040AEBCC
:1044C80008060AF808B008D13A68111D1268396060
:1044D80008F102060AF80420B0E0022A12D13A686C
:1044E800E60748BF24F0010402F1040148BF023482
:1044F80039600AEB0401128801F801BCA61C2AF8ED
:1045080004209BE0042A02D0BBF1640F11D13A6861
:10451800A00718BF24F0030402F1040118BF0434F3
:1045280039600AEB0401126801F801BC4AF804205A
:1045380016E0142A16D13A68073222F0070202F16F
:1045480008013960D2E9000107F02CFCA1071CBF63
:1045580024F0030404340AEB040202F801BC1060DE
:10456800261D6BE0A12A23D13A68111D3960136812
:104578000293184608F042FD421C1619A9F10801D9
:104588008E420FD915B96FF0040075E02846314600
:104598000392FFF74FFF00286EDBD5F804A0D5F88B
:1045A8001490039A02990AEB040008F02DFA45E0EA
:1045B80012065FD53968081D386008680BF03001AD
:1045C80030290BF00F0201BF00230BF08F0B86F888
:1045D80000B00193A3071CBF24F0030404340AEBC2
:1045E8000401261D01F801BC511E0E4218BF51429C
:1045F800019B4AF804001CBF0E40B618F3B100FB3B
:1046080002F3F418A9F1080294420DD90293002D7F
:10461800B9D028462146FFF70DFF00282CDBD5F836
:1046280004A0D5F81490029B3A68111D39600AEB72
:10463800060011681A4608F0E7F926462DB1AA7E49
:104648001AB91BF0400F18BF4646A9F108039E424D
:1046580001D8B04625E7002D95D028463146FFF70A
:10466800E9FE002808DBD5F804A0D5F81490F0E797
:10467800404601E06FF0020005B0BDE8F08F0B4640
:1046880010B5416842690446FFF7F6FE0028A1BF4D
:10469800236AC01AE060002010BD0EB4F3B59DF87F
:1046A8001C5090F83A60C768182D08BF002302A96B
:1046B80008BF80F83A3008AB41F8043D0446FFF7DC
:1046C800DEFF182D03D094F83A3033B928B92046C4
:1046D80018210022FFF7CFFDE76084F83A6002B0A6
:1046E800BDE8F04003B070472DE9F3410D88036839
:1046F800003518BF01250E46044629461B6890461A
:104708009847338884F83B50E38698F800300033A4
:1047180018BF012300210746A3760091E37E01918B
:1047280020460122FFF7B9FF384602B0BDE8F08104
:1047380070B5B1F90020838E056B88B000249A42C9
:1047480006468DF81F4012DA1301E918EB5873B1C9
:10475800C96861B1A122009201910292C9680391CE
:10476800049405942146FFF798FF204610E00DF1C8
:104778001F010191039113010021A12200920292CD
:10478800049105913046EB58FFF787FF4FF0FF3053
:1047980008B070BD2DE9F04190460422C26001F0D6
:1047A800200288B004460F4602F0FF05BAB1012284
:1047B800A02980F83A2004D193E80600FFF72EFEDE
:1047C8009BE0A12904D193E80600FFF78DFF94E050
:1047D800A22940F090801968FFF7AAFF8DE01829F8
:1047E80004D102681946926890479FE0828E9045EE
:1047F80080F29E80B8F1000FC0F29A80026B02EB43
:1048080008125668002E00F093802846C2B2013084
:1048180053F822100029F9D1012184F83A1012B96D
:104828002046B04769E0012A03D118682146B047FD
:1048380063E0022A04D193E803002246B0475CE013
:10484800032A04D193E807002346B04755E0042A19
:1048580003D100940FCBB0474FE0052A05D11A6960
:104868008DE814000FCBB04747E0062A07D11A6934
:1048780000925A69019202940FCBB0473DE0072A93
:1048880009D11A6900925A6901929A6902920394AD
:104898000FCBB04731E0082A0BD11A6900925A6948
:1048A80001929A690292DA69039204940FCBB04795
:1048B80023E0092A0DD11A6900925A6901929A696E
:1048C8000292DA6903921A6A049205940FCBB047F0
:1048D80013E00A2A0FD11A6900925A6901929A695B
:1048E8000292DA6903921A6A04925A6A0592069445
:1048F8000FCBB04701E04FF0FF300023FFB284F840
:104908003A303B0617D56268236AD050236B03EB15
:10491800081307F03F01204641F04001B3F9082091
:10492800FFF7A9FC05462046FFF75DFC284603E093
:104938004FF0FF3000E0002008B0BDE8F0810CB473
:1049480013B504AC02AB54F8042B43F8044DFFF73D
:1049580093FD02B0BDE8104002B070472DE9F8435E
:1049680007468846154602F10A0916460024731BB5
:104978004445DBB22CD24E452ED03A5D06F8012BC9
:10498800110604F1010002F00F0307D45A1E024277
:104998001EBF5A421040C018C418E8E702F0BF0210
:1049A800A12A05D1384408F029FB02340444DEE783
:1049B80082071CBF20F0030004305A1E3C58043004
:1049C80010421EBF5A421040C01803FB0404CEE731
:1049D8000020E854BDE8F8834FF0FF30BDE8F883C5
:1049E8002DE9F8434FF0000905460F461646C8461C
:1049F800B94546D2B8F10A0F4AD015F8094014F063
:104A0800800F09F1010004F00F020FFA88F10BD1B1
:104A1800531E03421EBF5442204080182B1846F8EC
:104A2800213000EB020927E004F0BF04A12C08D1D3
:104A3800284446F8210008F0E1FA09F10209814406
:104A48001AE083071CBF20F00300043005EB000EBA
:104A58002C5846F821E00430511E08421CBF514230
:104A6800084008F10103DBB218BF8018291846F87E
:104A7800231002FB0409984608F101035FFA83F842
:104A8800B6E70FFA88F3002046F82300BDE8F8835C
:104A98004FF0FF30BDE8F88310B58CB0144601AA7A
:104AA800FFF79EFF002803DB204601A9FFF7A1FBC3
:104AB8000CB010BD10B542180023904204D010F875
:104AC800014B23449BB2F8E7581880B210BD000090
:104AD80038B5436804461971104818606168E06A7F
:104AE800E3688B600368CA801D68638D4022A8470D
:104AF800002812DB226AE3681A44402A0CD9637E34
:104B080053B9E06A6168036840311D68638D403AB3
:104B1800A84700EAE07038BD002038BD5555AAAA5C
:104B280013B5034609B1592200E09522D86A8DF8D9
:104B3800072002685B8D14680DF107010122A04768
:104B48000028B4BF6FF06500002002B010BD00005F
:104B58002DE9F3410446C06A17460268884655683D
:104B680003B1A38C0DF105010122A847051E62DBE4
:104B780002D14FF0FF355EE000269DF80530E06A6F
:104B88001B0643EA16262E4B02689E42238D08D048
:104B980055680DF105010122A847051E4BDBECD134
:104BA800E7E756686168226AB047002841DB236A54
:104BB8009D42DEDB63681B7888F8003065686B8887
:104BC8003B80276A6E68E66039462846FFF772FF21
:104BD800C7F140078046E06ABE4228BF3E460368E8
:104BE800B71CD3F804C0238D29463A46E047051E72
:104BF80021DBBD42BDDB61680DF1060031440222B4
:104C0800FFF7E5FA60683146FFF754FFBDF8063054
:104C18004044834206D1266120460121FFF780FFE8
:104C2800002508E020460021FFF77AFF6FF0010514
:104C380001E06FF06405284602B0BDE8F08100BFCE
:104C48005555AAAA2DE9F8430446894690461D46BB
:104C5800E06A616803685E680DB1A38C00E02B46CA
:104C68004022B047071E1CDB032FF1DD63681B4A97
:104C780019689142ECD11B7989F800306368DA88A9
:104C88009968236AA8F80020E16019446369994289
:104C98003E4609D92046FFF7CDFB002804DABDE8D7
:104CA800F8833846BDE8F883256AE3681D44BD42A9
:104CB80001D9637E6BB10020BDE8F883E06A6168C2
:104CC800036831445F68238DAA1BB847002803DBBB
:104CD8000644AE42F2D3EEE7BDE8F8835555AAAADA
:104CE8002DE9F74F036AC1681944436903319942B2
:104CF800044605D9FFF79EFB061E01DA304656E04A
:104D08000027B8462369E568AB4246D2E28EE06ADE
:104D18006168ED1A954228BF154602681944D2F811
:104D280004C0E38CEA1CE047002838DBAB1CB34224
:104D380038DA236961682B440DF1060011F803A0E5
:104D4800013319440222FFF742FAD4F81090606840
:104D5800BDF806B04844691CFFF7ACFE83450FD187
:104D6800D04502BF4D4408F10108256120464FF0A7
:104D7800010108BF5FFA88F80027FFF7D1FEC1E7F5
:104D880020460021FFF7CCFE7B1C94F83820DBB2CC
:104D98009A420AD90237FFB2B4E7002007E06FF061
:104DA800640004E04FF0FF3001E06FF0030003B04F
:104DB800BDE8F08F2DE9F84304460F4690461D469E
:104DC8009DF82090FFF70FFA267E3EB1204639461F
:104DD80042464B46FFF736FF16E001364B46204663
:104DE80039464246FFF7B4FE831C07D194F83830A1
:104DF8009E42F2D36FF00300BDE8F88308B1BDE826
:104E0800F8832046FFF76CFFD8B93B78206A13F087
:104E1800400F0ED063681844042200F8042C61681F
:104E2800236A0B4403F8012CE368206A134404380E
:104E3800E3606368E16818442A46BDE8F843FFF771
:104E4800CFBDBDE8F8832DE9F0414FB290B0002FF7
:104E580004460D469046049303DB90F83B30002B44
:104E68005AD000262046E660FFF7BDF9204604A97F
:104E7800FFF705FC002851DB002FAABF80238DF81F
:104E88000D508DF80D3020469DF80D104246B8BFE4
:104E98003546FFF7F0F9002840D1E9073AD4E06A2F
:104EA80003689B689847012305AE009320460DF1DF
:104EB8000D010DF10E023346FFF77CFF70BB9DF824
:104EC8000D104A0610D42368BDF90E205F682046ED
:104ED8003346B847E06A0368DB689847A38C984272
:104EE800E1D96FF0640019E0AB070DD5049B1A1DDA
:104EF80004921A68002AF9D0002356F8231042F8C1
:104F0800231039B10133F8E704A83146FFF771F9E6
:104F1800002803DB002001E06FF0050010B0BDE8B9
:104F2800F0810CB407B504AB33F9042B0193FFF7F8
:104F38008AFF03B05DF804EB02B0704730B5044651
:104F480089B00D4612B1FFF71CFA01E04FF6FF7069
:104F580002230022019300B207AB0290049300954C
:104F6800039205922046A021A123FFF7DAFF00282B
:104F7800ACBFBDF81C004FF6FF7000B209B030BDE1
:104F880030B504468BB00D4609B1C38E00E00B4620
:104F9800009301230193E37E029309AB002204935B
:104FA8000DF123030593039206922046A1210223C3
:104FB800FFF7B7FF002808DB9DF82330099884F82D
:104FC8003B50003318BF0123A3760BB030BD00005F
:104FD8000B6810B5C16204461B6908460021984752
:104FE800C0F340002076E06A036800211B699847F7
:104FF80000F001006076E06A03685B699847237EE9
:10500800E0860BB10C2300E008232362637E63B1C2
:10501800E06A036801211B6998476060E06A0368D9
:1050280002211B699847606105E08020606106499C
:105038000BF046FA6060207F28B120460121BDE8C8
:105048001040FFF79DBF10BDCC6D011070B51E4616
:10505800184B03600446032380F8383080F8393051
:1050680000254FF47A738384C562057645764560DA
:1050780085604FF4FA7063854023E0842085E176EB
:1050880022770D4984F83A5084F83B50A576A386D8
:105098004FF480600BF014FAA28E206329461201A7
:1050A80007F04CFD1EB120463146FFF791FF204620
:1050B80070BD00BFA8550110CC6D0110F0B50546B4
:1050C8008FB00E4600240023009328460DF10901F5
:1050D8000DF10A0203ABFFF76DFE58B92B689DF876
:1050E80009105F68BDF90A20284603ABB8470EB11E
:1050F8000134E8E720460FB0F0BD37B5C06A134663
:1051080002680C4655680DF107010122A8470028DE
:105118000ADB0CD09DF80730592B4FF0000006BF72
:1051280001232370207004E06FF0640001E04FF069
:10513800FF3003B030BD0000F7B504460E46C06A24
:105148002A4B02A9154641F8043D036804221F684A
:10515800638DB847002846DB63681E706168E06AA3
:10516800E3684B6003684D80226A1D68638DA84719
:10517800002838DB6668216A3046FFF79BFCE56843
:10518800ADF80200E06A402D036828BF40251F687B
:10519800638D31462A46B847002802DA6FF0650069
:1051A80021E060682946FFF785FCBDF8023002A9B6
:1051B800184421F8060DE06A036802221E68638D10
:1051C800B0470028EADB20460DF10101A28CFFF769
:1051D80094FF002807DB9DF8013013B125610020FA
:1051E80001E06FF0010003B0F0BD00BF5555AAAA59
:1051F80073B5002304468DF804302369E568AB4293
:1052080044D2E28EE06A6168ED1A954228BF1546DD
:10521800026819441668638D2A46B047002802DAE6
:105228006FF0650033E0E06A036801A91E68638DCA
:105238000122B0470028F3DB236960682946184437
:10524800FFF738FC0121064601A8FFF733FC02A945
:10525800304421F8020DE06A036802221E68638D5B
:10526800B0470028DCDB20460DF10501E28CFFF792
:1052780044FF00280BDB9DF80530002BBDD02369C7
:105288001D449DF8043025610133B4E7002002B0C5
:1052980070BD037E70B504460E4615461BB1BDE8C9
:1052A8007040FFF715BC2A4620463146FFF744FFF9
:1052B800821CF8D020B92046BDE87040FFF798BF9F
:1052C80070BD09B100230362C26982B1036A116823
:1052D800994220DD926802EB830132F82320498845
:1052E80002810133042241818281C2810362002349
:1052F800436103614389B0F9041043F001039AB292
:10530800038943F001039BB201FB02330268134493
:105318008361012070470020704738B5002303607F
:10532800C3808380C381838104464381038103C989
:1053380084E803001068516804F1080503C5E361B7
:1053480020460121FFF7BDFF204638BD002310B5D8
:105358000360C38083800446C381838143810381C2
:1053680003C9E26184E8030020460121FFF7A9FF91
:10537800204610BDF0B5838904699C420AD30023F6
:1053880003614369B0F9044002334361836903EB65
:1053980044038361C38944699C4233D286690369A3
:1053A800F518F45C15F801CCB0F904505D1B16F83B
:1053B80005E0354415F8013C2AB10CEB0E056D10DB
:1053C8001470557093700569C1B104EB0C071F4444
:1053D800252F02DC02350561CDE704EB0E061E44DD
:1053E800252EF7DDCCEB0404CEEB0303E403DB034B
:1053F80094FBF7F493FBF6F30C604B600235056100
:105408000120F0BD0020F0BDC36970B504460E460A
:1054180015465BB1FFF7AEFF014658B92046FFF7C6
:1054280050FF014630B1204631462A46BDE870405B
:10543800FFF7A0BF084670BD2DE9F7430024884652
:10544800012181468DF806408DF805408DF804400D
:10545800FFF737FF2646254627464846002101AA7A
:10546800FFF7D2FF50B19DF804301F449DF8053076
:105478001D449DF8063001341E44EEE7B7FBF4F7EF
:10548800B5FBF4F5B6FBF4F0B8F1000F01D0C8F89D
:1054980000402D0245EA0745284303B0BDE8F083E4
:1054A8002DE9F04F87B0002408468B46012190462D
:1054B8009A4605940494FFF704FF00220023CDE9DF
:1054C8000023CDE90223254626462746A14658460D
:1054D80004A90022FFF798FF844630B3049AD8F84D
:1054E8000030D8F80C109A42D8F80430C8BF0137F9
:1054F8009A42059BB8BF01368B42D8F81010C8BF36
:1055080001358B42DDE90201B8BF0134801841EB57
:10551800E271CDE90201DDE90001C01841EBE37158
:10552800CDE9000109F10109D1E707EE909AF8EEFB
:10553800676A07EE907AB8EE677A07EE906A87EEA8
:10554800267ADDE902014A466346CDF808C08AEDAD
:10555800007AB8EE677A07EE905A87EE267A8AEDD7
:10556800017AB8EE677A07EE904AF8EE677A87EE26
:10557800267AC7EEA67A8AED027ACAED037A06F091
:1055880061FCDDF808C0C8F808004A46DDE90001FA
:10559800634606F057FCC8F8140007B0BDE8F08F62
:1055A8002DE9FF4100230746884614461361D3605E
:1055B800536013601F264FF080456B4638464146BE
:1055C8002246FFF76DFFD7ED5E7A9DED007A2368DE
:1055D800B4EEE77AF1EE10FA9DED017ACCBF5B19D3
:1055E8005B1BB4EEE77A236063689DED027AF1EE07
:1055F80010FACCBF5B1B5B19B4EEE77A6360E36813
:105608009DED037AF1EE10FACCBF5B195B1BE360EA
:10561800B4EEE77A2369F1EE10FACCBF5B1B5B1995
:10562800013E23614FEA6505C7D104B0BDE8F081AA
:105638000139C9B2062970B55AD84B01C2180344BA
:10564800D2699D68012A01F1600200EB8202D2ED65
:10565800017A08BF90ED607A4FEA41124FF01404C6
:1056680004FB0104815808BF67EE877A491B07EEDF
:10567800105A06EE901AB8EEC77AF8EEE66AB0EE5F
:10568800476AA6EEA76A8618D9685869FDEEC66A01
:10569800091AC4ED386A7268521B06EE902AF8EEB1
:1056A800E66A1A69A6EEA77A121A06EE901ABDEEF5
:1056B800C77AF8EEE66A84ED397A07EE100AB8EE92
:1056C800C77A9869B0EE476AA6EEA76AFDEEC66A81
:1056D800C4ED3A6A06EE902AF8EEE66AA6EEA77AD4
:1056E800BDEEC77A84ED3B7AFEF790F9C4F8F00076
:1056F80070BDF0B55C1E1F46E3B2062B8BB00646A4
:1057080011D806EB441401A8FFF707FE0025304620
:1057180001A92246FFF744FF3046E5613946FFF705
:1057280087FF284601E04FF0FF300BB0F0BD01398C
:10573800CBB2062B94BF00EB411000207047F8B5A0
:105748004C1EE3B2062B07460E460ED8154600EB54
:1057580044140FCD0FC495E80F0084E80F003846B5
:105768003146FFF765FF0020F8BD4FF0FF30F8BD68
:1057780010B50023D0F8702109B9D15404E0D45CE5
:105788008C4204BF0024D4540133B3F5805FF1D1B7
:1057980010BD2DE9F74F00210446FFF7E9FF012569
:1057A800E9B220460135FFF743FF082DF8D1002064
:1057B8000023C3EB00094FEAC93BC9F3C5094FEA07
:1057C8008912019200251918D4F86C2129449142B4
:1057D80004DA0435B5F5807FF5D138E0C3EB050868
:1057E8004FEAC8329BFBF1FC92FBF1F1019AC8F336
:1057F800C50808EB020AA64622460126DEF8007014
:1058080017B9DEF80470D7B1D2F8E070674516DA38
:10581800D2F8E470BC4512DAD2F8E8708F420EDA9A
:10582800D2F8EC70B9420ADAD4F8701111F80A709B
:105838000FB1B74201DD01F80A604146CC46013696
:10584800082E0EF1200E02F11402D7D1C1E704335D
:10585800B3F5807FADD10430B0F5807FA8D10020AA
:1058680003B0BDE8F08F000038B500F5807204463B
:1058780000F12003002543F8045C43F80C5C43F86E
:10588800105C43F8145C43F8185C43F81C5C43F85C
:10589800205C20339342EDD1C4F87011E0222946F0
:1058A800204607F04BF98C22294604F1E00007F066
:1058B80045F920462946FFF75BFF4C23C4F86C31B5
:1058C8004FF07A53C4F87C314FF4FA63C4F874315A
:1058D800084BC4F878314FF07F53C4F8803104F591
:1058E800D07204F5C273044943F8041B9342FAD1F9
:1058F800204638BD6666663F0000204043B90A88E6
:10590800032A2BD9043A0A808A8804328A8023E041
:10591800012B08D14A88032A20D9CB88043A0433BA
:105928004A80CB8018E0022B0AD188880B88B2F90C
:10593800042003440333934210DA043088800BE0D8
:10594800032B09D1C8884B88B2F9062003440333D6
:10595800934203DA0430C880002070470120704762
:105968002DE9F0470D468CB00024114603A82A46BD
:105978009A4602940194FFF7D0FC00260027B0460F
:10598800B94603A801A90022FFF73EFD054650B11C
:10599800019B18EB030849EBE379029BF61847EBE8
:1059A800E3770134EDE722462B464046494606F0A8
:1059B80049FA3946CAF80000224630462B4606F016
:1059C80041FACAF804000CB0BDE8F0874B1E062B5C
:1059D8009CBF00EB8100C0F880217047C0F87411AB
:1059E80070470000DFED077A07EE101A67EE277A96
:1059F800FCEEE77A17EE903A03B90123C0F86C3150
:105A0800704700BF00403F44C0F88011704701391B
:105A1800CBB2062B9ABF00EB4110C069002070473B
:105A28002DE9F041436805689D4204460F4631D18F
:105A380005F11008B8F1FE5F86681B4994BF4FEA6C
:105A480088004FF0FF300AF03BFD18B9A06068B13C
:105A5800002310E0031D0F356A1CF7D0002223F83D
:105A6800022C23F8042C013D0433F5E7A6604FF01F
:105A7800FF30BDE8F0812268934205DA56F823200A
:105A880040F823200133F6E7C4F8048016B1304605
:105A9800FBF744FC2368A268591C2160396842F866
:105AA80023100020BDE8F081CC6D01102DE9F04FE6
:105AB8002DED028B89B01D460423ADF81C30ADF8DE
:105AC8001E300B88ADF818304B880192ADF81A30AB
