:020000041400E6
:1000000000800020CD010014910100149301001420
:1000100095010014970100149901001400000000DC
:100020000000000000000000000000009B01001420
:100030009D010014000000009F010014A1010014A4
:10004000A3010014A3010014A30100140000000088
:10005000A3010014A3010014A3010014A3010014C0
:10006000E9AD0010A3010014A3010014A3010014C2
:10007000A3010014A3010014A3010014A3010014A0
:10008000A3010014A3010014913C0010A30100146B
:10009000A3010014A3010014A3010014154B0010C8
:1000A000754C0010A3010014A3010014A301001457
:1000B000A3010014A3010014A3010014A301001460
:1000C000A3010014A3010014A3010014A301001450
:1000D000A3010014A3010014A3010014A301001440
:1000E000A3010014A3010014A3010014A301001430
:1000F00000000000A3010014A3010014A3010014D8
:1001000000000000A3010014A3010014A3010014C7
:10011000A301001408E7011478C201107809000057
:1001200000C50114000000200000000000C50114FB
:10013000000008100000000000C50114008000202D
:100140000822000008E7011400C0002000000000A1
:100150008802001400000010A4BE0100000000147A
:10016000000000101401000000D00110081A000067
:100170000000002000000000000008100000000047
:1001800008A200200000000000C0002000000000C5
:10019000FEE7FEE7FEE7FEE7FEE7FEE7FEE7FEE737
:1001A000FEE7FEE710B50B465C1A944204D2441AEF
:1001B000E45843F8044BF7E710BD03461A1A8A4285
:1001C00003D2002243F8042BF8E7704710B572B64B
:1001D0001B4B1C4A1A601C4A5A601C4A4FF0FF33E2
:1001E000136053609360D360136153619361D36173
:1001F00062B6174C174B9C4207D294E803000C34AC
:1002000054F8042CFFF7CEFFF4E7134B9C4206D2C0
:1002100054F8080B54F8041CFFF7CFFFF5E7DFF89C
:100220004400016841F4700101600C4B1A680AB186
:100230000B4A136000F018F800F01EF8FEE700BF4C
:10024000003105400010DF10FFF7DF0180E200E021
:100250001401001468010014900100140000001043
:1002600008ED00E088ED00E001B40248844601BCDE
:10027000604700BFE9E9001001B40248844601BCB0
:08028000604700BFC53D0010FE
:100288000000000000000000000000000000000066
:100298000000000000000000000000000000000056
:1002A8000000000000000000000000000000000046
:1002B8000000000000000000000000000000000036
:1002C8000000000000000000000000000000000026
:1002D8000000000000000000000000000000000016
:1002E8000000000000000000000000000000000006
:1002F80000000000000000000000000000000000F6
:1003080000000000000000000000000000000000E5
:1003180000000000000000000000000000000000D5
:1003280000000000000000000000000000000000C5
:1003380000000000000000000000000000000000B5
:1003480000000000000000000000000000000000A5
:100358000000000000000000000000000000000095
:100368000000000000000000000000000000000085
:100378000000000000000000000000000000000075
:100388000000000000000000000000000000000065
:100398000000000082B00190002002AB03EBD00304
:1003A80000F0070213F8043C1341DB0702D40130C4
:1003B8002028F2D102B0704708B103F05DBA704747
:1003C800B0F1804F08B501D313F048F88000BDE8BC
:1003D800084003F04DBA036903FB01225109036881
:1003E80053F8210002F01F02D04000F001007047CE
:1003F800036903FB012202F01F0101238B4052090C
:10040800016810B551F822401C4201BF234341F84E
:1004180022304369013308BF436110BD10B504465B
:100428000068FFF7C9FF2068FFF7C6FF204610BD28
:1004380043788278002B10B5C4780CBF1146002190
:10044800002A0CBF22460022002C047911440CBF5C
:1004580022460022002C447911440CBF2246002277
:10046800002C847911440CBF22460022002CC47948
:1004780011440CBF22460022002C047A11440CBF00
:1004880022460022002C01EB020018BF002318446A
:1004980010BD2DE9FF4100240D4690462146224615
:1004A80006468DF805408DF806408DF80A408DF80F
:1004B8000B408DF80C40FFF78EFF8DF8040008B94B
:1004C80000202BE0304621460122FFF784FFB8F1D7
:1004D800010F07468DF8070006D83046012122464D
:1004E800FFF779FF8DF80900012130460A46FFF72A
:1004F80072FF9DF809308DF8080038441844023816
:100508000428DDD801A8FFF793FF01280446D7D1B6
:10051800002128460A46FFF76BFF204604B0BDE8D5
:10052800F0812DE9F043046985B00746002089462B
:1005380090468DF805008DF806008DF807008DF8B7
:1005480008008DF80C00023C06463B69651C9D427C
:1005580047D2384600212A46FFF73DFF8DF80400B0
:10056800E8B3B8F1000F0ED101212A463846FFF74B
:1005780032FF41468DF8090022463846FFF72BFF27
:100588008DF80B0010E0B8F1010F0DD100212246C3
:100598003846FFF720FF41468DF80B002A463846BB
:1005A800FFF719FF8DF80900384601212246FFF7A9
:1005B80012FF9DF809308DF80A0018449DF80B3099
:1005C8001844023804280AD801A8FFF731FF012887
:1005D80005D1484600212A46FFF70AFF01362C4676
:1005E800B3E7304605B0BDE8F0832DE9FF47C6689C
:1005F8000024771E88462246394681468DF80840F1
:100608008DF80C408DF809408DF80A408DF80B40A4
:10061800FFF7E1FE8DF8040008B9002028E0023E4B
:10062800314622464846FFF7D6FE394682468DF8BF
:10063800050001224846FFF7CEFE314605468DF8F3
:10064800070001224846FFF7C6FE8DF80600504411
:100658000544023D042DE0D801A8FFF7E9FE012872
:100668000546DAD1404639462246FFF7C1FE2846FC
:1006780004B0BDE8F0872DE9F04FC368066987B07C
:100688000024054601919146009303F1FF388DF847
:100698000E408DF80F408DF810408DF811408DF800
:1006A8001240023E2B69771C9F423AD228464146A7
:1006B8003A46FFF790FE8DF80C0080B3009BA3F13B
:1006C800020B284659463A46FFF785FE82468DF8C2
:1006D8000D00B9F1000F02D0B9F1010F06D128467B
:1006E80041463246FFF777FE8DF8130028465946F3
:1006F8003246FFF770FE9DF813308DF814009A44C7
:100708005044023804280AD803A8FFF791FE0128AC
:1007180005D1019841463A46FFF76AFE01343E4644
:10072800C0E7204607B0BDE8F08F2DE9F04F87B04D
:1007380000240546894617468DF80D408DF80E4071
:100748008DF81440A0462B69661C013B9E4261D27D
:10075800284600213246FFF73EFE8DF80C0000289F
:1007680056D004F1020B284600215A46FFF733FE03
:1007780082468DF80F00AFB9012132462846FFF7AF
:100788002AFE39468DF81100019022462846FFF7C7
:1007980022FE019B8DF81300BAF1000F12D08BB125
:1007A800B0BB0FE0012F0DD1002122462846FFF7EC
:1007B80012FE39468DF8130032462846FFF70BFE25
:1007C8008DF811005A4601212846FFF704FE012141
:1007D80083468DF8100022462846FFF7FCFDDA44D0
:1007E8009DF811B09DF813308DF81200DA4450448A
:1007F8001844023804280BD803A8FFF719FE01286B
:1008080006D1484600213246FFF7F2FD08F10108FB
:10081800344698E7404607B0BDE8F08F2DE9F04F21
:10082800C36889B0002405460391029201935F1EB4
:100838008DF818408DF819408DF81A4000942B69EE
:10084800661C013B9E425FD2284639463246FFF776
:10085800C2FD8DF81400002854D0019BA3F1020AB0
:10086800514632462846FFF7B6FD04F1020B8DF8D3
:1008780015008146394628465A46FFF7ACFD029BCB
:100888008DF8170080463BB9284639462246FFF7BF
:10089800A2FD8DF81B0010E0029B012B0DD128460C
:1008A80039462246FFF797FD8DF81B00B9F1000F76
:1008B80003D0B8F1000F00D020BB5A465146284655
:1008C800FFF789FD83468DF81600D944284651461E
:1008D8002246FFF780FDC8449DF81B908DF81C0048
:1008E800C8444044023804280CD805A8FFF7A0FDE6
:1008F800012807D1039839463246FFF779FD009B56
:100908000133009334469AE7009809B0BDE8F08FA8
:100918002DE9F04F87B000240546019191468DF8E6
:1009280012408DF813408DF814400226EB6806F14A
:10093800FF38013B984559D2284641460022FFF727
:100948004AFD8DF80C0000284ED0A6F1020B59463E
:1009580000222846FFF73FFD41468DF80D008246EC
:1009680001222846FFF737FD07468DF80F00B9F139
:10097800000F0CD1284631464A46FFF72CFD8DF86A
:100988001100BAF1000F0CD05FB168BB09E0B9F1F2
:10099800010F06D1284631460022FFF71CFD8DF8CD
:1009A8001100594601222846FFF715FD31468346B6
:1009B8008DF80E0001222846FFF70DFDDA44574452
:1009C8009DF811308DF81000384418440238042876
:1009D8000AD803A8FFF72CFD012805D10198414644
:1009E8000022FFF705FD013401369FE7204607B0D6
:1009F800BDE8F08F2DE9F04FD0F8109089B00025B0
:100A080004460191009209F1FF388DF816508DF8CF
:100A180017508DF818500226E368771E013B9F4255
:100A28006DD2204639464246FFF7D5FC8DF81400B2
:100A3800002862D0A6F1020B424620465946FFF72D
:100A4800CAFC009A8DF815008246A9F1020382B902
:100A58003146424620460293FFF7BDFC029B8DF8C3
:100A68001900394620461A46FFF7B5FC8DF81B00D9
:100A780017E0009A012A14D11A4639462046FFF792
:100A8800AAFC31468DF81B00029042462046FFF72B
:100A9800A2FC029B8DF81900BAF1000F01D000B139
:100AA8005BBBA9F1020C624631462046CDF80CC06A
:100AB800FFF791FCDDF80CC08DF81A000290624631
:100AC80020465946FFF787FC9DF81920029B8DF8B0
:100AD8001C00924453449DF81BA053441844023808
:100AE80004280AD805A8FFF7A3FC012805D1019816
:100AF80039464246FFF77CFC013501368CE728462B
:100B080009B0BDE8F08F000008B590E80C009A1A0B
:100B18009210914202D3024812F014FD08BD00BFA2
:100B2800D8730110036A994270B505460C460668E9
:100B380004D2FFF7E9FF56F8240070BDFFF7E4FF81
:100B4800EB6903F01F03C3F120034FF0FF30D840D7
:100B580056F82430184070BDF8B5144605460E46C0
:100B6800FFF7E0FFA0423AD02B6A013B9E4201BF4B
:100B7800EB6903F01F03C3F120034FF0FF3208BFF6
:100B880022FA03F34FF0000208BF1C40134624FA70
:100B980002F1134F01F00F0EC1F3031117F80EE025
:100BA800795C08327144202A0B44BE46EFD10022FA
:100BB800174620FA02F101F00F0CC1F303111EF8D9
:100BC8000CC01EF8011008326144202A0F44F0D1ED
:100BD8006A69DB1B13446B612B6843F82640F8BD38
:100BE800C87301102DE9F041076A054688460024BC
:100BF800BC4213D040462146FFF794FF064658B141
:100C080028462146FFF78EFF024628B1284621468E
:100C180022EA0602FFF7A0FF0134E9E7BDE8F08108
:100C28002DE9F0410F46C9688A4206461ED8D7F812
:100C3800108043451AD808FB023255093846294620
:100C480002F01F04FFF76EFFE0400AD0FFF7A2FB97
:100C580004EB45142044B0FBF8F3336008FB1300A1
:100C68001AE0D7F820806C1C444503D30023336076
:100C7800736013E038462146FFF754FF90B13B6894
:100C880053F82400FFF786FB3A6900EB4410B0FBE9
:100C9800F2F3336002FB13007060012333723046B5
:100CA800BDE8F0810134DFE72DE9F04FC3688FB06C
:100CB800013B039303690591013B01240026054686
:100CC800029204938DF820400196731C0BA82946C4
:100CD8002246FFF7A5FF9DF83430002B00F0AE80C8
:100CE8000B9C0C9E002CF0D0039B9C42EDD2002E56
:100CF800EBD0049B9C42E8D204F1FF3B59463246B4
:100D08002846FFF768FB06F1010A8DF821008046A6
:100D1800214628465246FFF75EFB029B8DF82300CA
:100D28008146002B57D12846611C3246FFF753FBFA
:100D380007468DF82500B8F1000F04D0B9F1000F6F
:100D480001D00028C1D128462146721EFFF743FB77
:100D58008DF82700B9F1000F37D152465946284679
:100D6800FFF739FB04F1010C6146524607468DF83E
:100D780022002846CDF818C0FFF72DFBDDF818C073
:100D88008DF82400721E6146079028460692FFF7E8
:100D980022FBDDF818C08DF8260082465946284601
:100DA8006246FFF718FB4744079B8DF82800B944B3
:100DB80099449DF825309944CA449DF82790CA441F
:100DC80050440238042880D829E0002FC5D00028D4
:100DD8007FF47BAFC1E7029B012BBED12846214699
:100DE800721EFFF7F8FA07468DF82700B8F1000FD2
:100DF80005D0B9F1000F02D000287FF466AF28466D
:100E0800611C3246FFF7E7FA8DF82500B8F1000FAC
:100E1800A3D00028A1D0002F7FF457AF9DE708A8E2
:100E2800FFF706FB01287FF450AF059821463246AC
:100E3800FFF7DEFA019B0133019346E701980FB0F3
:100E4800BDE8F08FF8B5436906460D46002B00F063
:100E580089800A6A08680027002192000EF0FAFAD1
:100E680029463A466F61AF613046FFF712FB2946C3
:100E780004463A463046FFF754FB294604443A46AE
:100E88003046FFF7B2FB294604443A463046FFF79E
:100E9800F2FB294604443A463046FFF746FC294609
:100EA80004443A463046FFF7B9FC294604443A461A
:100EB8003046FFF72DFD294604443A463046FFF7F1
:100EC80099FD3A46044429463046FFF7EDFE294687
:100ED80004443046FFF786FE294601223046FFF7D4
:100EE800D8FA2946044401223046FFF71AFB29465E
:100EF800044401223046FFF778FB294604440122C6
:100F08003046FFF7B8FB2946044401223046FFF774
:100F18000CFC2946044401223046FFF77FFC294691
:100F2800044401223046FFF7F3FC29460444012219
:100F38003046FFF75FFD0444294630460122FFF79B
:100F4800B3FE294604443046FFF74CFE54B1294607
:100F580030460022FFF7A8FE294604463046FFF730
:100F680041FEE9E7F8BD38B50C1A1346A208054654
:100F780005D01846294622460EF008FA03461819E5
:100F880038BD00002DE9F04706460F4699468A46C7
:100F98001546002A7FD0446883681B1BB2EBA30F59
:100FA8003BD8D9F80080C1EB04094FEAA902AA424C
:100FB8001AD9AD00C5EB0409224648462146FFF779
:100FC800D2FF7368C7EB09022B447360930803D000
:100FD800A01A39460EF0DAF93D44AA4502D04AF87B
:100FE800048BFAE7BDE8F087AA1A134621461BB11D
:100FF80041F8048B013BFAE704EB82027260384641
:101008002146FFF7B0FF73684B447360A24502D0D6
:101018004AF8048BFAE7BDE8F0870268A41AA4101E
:101028006FF040410B1BAB4202D21C4812F058FA39
:10103800A5422CBF63192319A34204D38B4228BFAE
:101048000B461C4600E00C46C2EB070A24B12046BA
:10105800FFF7B6F9804600E0A046D9F8001008EB83
:101068000A022B46013B42F8041BFBD13946424693
:101078003068FFF778FF716800EB85023846FFF7A4
:1010880072FF08EB840405463068FFF795F9C6F847
:1010980000807560B460BDE8F08700BF227401105D
:1010A80073B502614A4312F01F0FC2614FEA521230
:1010B80018BF01320262066AC1600023B6F1804F90
:1010C8000446036043608360836102D3144812F0CE
:1010D80007FA86B13046FFF773F9054600202A461D
:1010E8000146FFF740FF2068FFF766F92560656055
:1010F80005EB8605A560226A6168002301931AB191
:10110800204601ABFFF73EFF226A206800219200CB
:101118000EF0A0F9002320466361A36102B070BD00
:101128003974011082B00190002002AB03EBD003A8
:1011380000F0070213F8043C1341DB0702D4013026
:101148002028F2D102B0704708B102F095BB704771
:1011580008B102F091BB704708B548B1B0F1005F23
:1011680001D312F07BF9C000BDE8084002F080BB53
:1011780008BD036903FB012210B502F01F010468D2
:101188005209012303FA01F154F822300B421FBF20
:101198008B4344F82230436903F1FF3318BF43619E
:1011A80010BD10B5026A04460021006892000EF0D6
:1011B80051F900236361A36110BDF8B54B6904467A
:1011C8000E46002B38D08A690F6A95001346BB4239
:1011D80012D231684859291D58B1FFF7A3FF326967
:1011E80000EBC500B0FBF2F302FB13002360606064
:1011F8001EE001330D46EAE7BA4228BF002019462F
:1012080028BFB0619D0001E001311D46914211D215
:10121800336858592B1D0028F6D0FFF783FF326931
:1012280000EBC500B0FBF2F3236002FB130363601D
:10123800012303E000237361236063602372204667
:10124800F8BD70B5041E0D461E4607DB13699C42A7
:1012580004D2002902DBD368994201D3002070BD73
:1012680010462246FFF7B7F840B1304629462246D5
:10127800FFF7B1F880F00100C0B270BD70BD03681F
:1012880070B505464469466A5BB10436B4422346E4
:1012980004D21868043402F0EFFAF7E7286802F07D
:1012A800EBFA284670BD026A8369043A93422DE935
:1012B800F04704460F4604D00BB10A681A6004339D
:1012C80070E0426A05684368511BA3EBA10101293C
:1012D80056D84169561AB610013606F10108B3EB23
:1012E800480F15D9C8EB03035B0805EB83050432E7
:1012F8008D42A2EB010203D293082FD0284604E0C6
:1013080093082BD0C2EB860028440EF03FF825E066
:10131800002B14BF99464FF0010902339944B9F1E3
:10132800804F01D312F09AF84FEA890002F0A0FA30
:10133800626A61690432C8EB0905521A6D0893089C
:10134800824600EB850502D028460EF01FF820687B
:1013580002F092FAC4F800A0C4F8049065612B6802
:10136800E36006F1804603F50073013E236105EB57
:101378008603636255F82630E36103F50073236240
:101388004FF40070656A02F073FA6860A3690BB1E4
:101398003A681A60636A1A1D62625B68E36103F562
:1013A80000722262A361BDE8F0872DE9F04F91B089
:1013B8001D46002304460693089309930A930B934A
:1013C8000C930D930E930F932020082388461746FD
:1013D800079302F04DFA079E0690013E7608814673
:1013E80000EB860A4FF4007002F042FA49F8260032
:1013F800CDF82CA059F82620099202F500730A931B
:10140800CDF83CA059F826300D9303F50071284615
:101418000C930E910892FFF7C4FEE368984502D238
:1014280023699F4204D306A8FFF729FF012093E10F
:10143800204641463A46FEF7CEFF0028F3D028461C
:1014480041463A46FEF7D4FF204641463A46FFF762
:1014580090FE06A805A9ADF81480ADF81670FFF740
:1014680022FF089B0C9A9A4200F04B811A8803923B
:101478000A9A0998B3F802A0043A934201D00433B7
:1014880009E002F0F9F90B9B1A1D0B925B680993AE
:1014980003F500720A92BDF80C600893731C9BB2A6
:1014A8000093BDF90090E36899450FFA8AF722D2B4
:1014B80023699F421FD2284649463A46FEF78BFFCA
:1014C800C8B9204649463A46FEF785FF98B1BDF8A7
:1014D8000030ADF8143006A805A9ADF816A0FFF73E
:1014E800E2FE284649463A46FEF782FF204649462C
:1014F8003A46FFF73EFE013EB3B20193BDF90460E0
:10150800E3689E4222D223699F421FD22846314671
:101518003A46FEF760FFC8B9204631463A46FEF71C
:101528005AFF98B1BDF80430ADF8143006A805A9E3
:10153800ADF816A0FFF7B7FE284631463A46FEF743
:1015480057FF204631463A46FFF713FE1FFA8AFA3C
:101558000AF101039BB20293BDF90CB0E368BDF92F
:1015680008709B4524D223699F4221D228465946B8
:101578003A46FEF730FFD8B9204659463A46FEF7B4
:101588002AFFA8B1BDF80C30ADF8143006A8BDF894
:101598000830ADF8163005A9FFF785FE28465946EC
:1015A8003A46FEF725FF204659463A46FFF7E1FD41
:1015B800E3680AF1FF3A1FFA8AFA9B450FFA8AF89C
:1015C80022D2236998451FD2284659464246FEF73B
:1015D80002FFC8B9204659464246FEF7FCFE98B1BC
:1015E800BDF80C30ADF8143006A805A9ADF816A062
:1015F800FFF759FE284659464246FEF7F9FE2046AF
:1016080059464246FFF7B5FDE368994524D2236958
:101618009F4221D2284649463A46FEF7DCFED8B911
:10162800204649463A46FEF7D6FEA8B1BDF8003036
:10163800ADF8143006A8BDF80830ADF8163005A985
:10164800FFF731FE284649463A46FEF7D1FE2046C6
:1016580049463A46FFF78DFDE368994522D223694A
:1016680098451FD2284649464246FEF7B4FEC8B9F7
:10167800204649464246FEF7AEFE98B1BDF8003016
:10168800ADF8143006A805A9ADF816A0FFF70BFEB3
:10169800284649464246FEF7ABFE204649464246A2
:1016A800FFF767FDE3689E4222D2236998451FD25F
:1016B800284631464246FEF78EFEC8B920463146D6
:1016C8004246FEF788FE98B1BDF80430ADF81430F4
:1016D80006A805A9ADF816A0FFF7E5FD284631468E
:1016E8004246FEF785FE204631464246FFF741FD59
:1016F800E3689E42BFF4B5AE23699F42BFF4B1AE22
:1017080003E006A8FFF7BBFD26E0284631463A4627
:10171800FEF761FE00287FF4A4AE204631463A4623
:10172800FEF759FE00283FF49CAEBDF80430ADF832
:10173800143006A8BDF80830ADF8163005A9FFF733
:10174800B2FD284631463A46FEF752FE204631465B
:101758003A46FFF70EFD84E611B0BDE8F08F026A45
:101768008369043A93422DE9F04704460F4605D0B1
:101778000BB10A681A60A369043370E0426A05680D
:101788004368511BA3EBA101012956D84169561A98
:10179800B610013606F10108B3EB480F15D9C8EBAE
:1017A80003035B0805EB830504328D42A2EB0102BB
:1017B80003D293082FD0284604E093082BD0C2EB1D
:1017C800860028440DF0E2FD25E0002B14BF994661
:1017D8004FF0010902339944B9F1804F01D311F058
:1017E8003DFE4FEA890002F043F8626A61690432FB
:1017F800C8EB0905521A6D089308824600EB850567
:1018080002D028460DF0C2FD206802F035F8C4F871
:1018180000A0C4F8049065612B68E36006F1804677
:1018280003F50073013E236105EB8603636255F8F7
:101838002630E36103F5007323624FF40070656A94
:1018480002F016F86860A3690BB13A681A60636A17
:101858001A1D62625B68E36103F500722262A3618C
:10186800BDE8F087026A83690C3A93422DE9F04794
:1018780004460F4605D013B107C983E807000C33A7
:1018880072E0426A05684368511BA3EBA101012974
:1018980056D84169561AB610013606F10108B3EB5D
:1018A800480F15D9C8EB03035B0805EB8305043221
:1018B8008D42A2EB010203D293082FD0284604E000
:1018C80093082BD0C2EB860028440DF05FFD25E07D
:1018D800002B14BF99464FF0010902339944B9F11E
:1018E800804F01D311F0BAFD4FEA890001F0C0FF23
:1018F800626A61690432C8EB0905521A6D089308D7
:10190800824600EB850502D028460DF03FFD206891
:1019180001F0B2FFC4F800A0C4F8049065612B6818
:10192800E36006F1804603F5FC73013E236105EB95
:101938008603636255F82630E36103F5FC7323627E
:101948004FF4FC70656A01F093FF6860A3691BB1EE
:1019580097E8070083E80700636A1A1D62625B68FC
:10196800E36103F5FC722262A361BDE8F087000021
:101978002DE9F04F2DED028B93B000241F4606464B
:101988000823202088460392099308940A940B940C
:101998000C940D940E940F941094119401F068FF18
:1019A800099D0890013D6D08814600EB850A4FF4BA
:1019B800FC7001F05DFF49F82500CDF834A059F816
:1019C80025200B9202F5FC730C93CDF844A059F82E
:1019D80025300F9303F5FC71109198E803000E93DE
:1019E80005AB83E803000A921946002208A807926B
:1019F800FFF738FF3846D8F80410D8F80020FEF76B
:101A0800F7FCD8F80430D8F80090029301940A9BA8
:101A18000E9A9A424BD00C9A93ED028A0B980C3A84
:101A2800934293E8000CBDEEC88A01D00C3309E05C
:101A380001F022FF0D9B1A1D0D925B680B9303F5B5
:101A4800FC720C920A9318EE102A019B9A42C2BFAC
:101A5800CDF808B0D1468DED018A4FF00008244B2F
:101A6800039A53F82850234B53F8284055445C44B4
:101A7800284621463B46FFF7E4FB90B1384621460D
:101A88002A46FEF7B5FCF8EEC87AB7EE007A77EE8C
:101A9800877A08A805A905950694CDED077AFFF77A
:101AA800E1FE08F10108B8F1080FD8D1AFE7DDED84
:101AB800017A029B7360F8EEE77A089BC6F80090FB
:101AC800C6ED027A0D9C119D5BB10435AC422346EC
:101AD80004D21868043401F0CFFEF7E7089801F043
:101AE800CBFE304613B0BDEC028BBDE8F08F00BFD3
:101AF80098C2011078C2011010B504460068FFF7BB
:101B080027FB204610BD10B50446FFF7F5FF204619
:101B180010BD70B590E860000446B54204D0284670
:101B2800FFF7EAFF0C35F8E7206808B101F0A4FEDA
:101B3800204670BD38B509C81B1ADB106FF0604429
:101B4800E51A8D4202D2104611F0CAFC8B422CBF16
:101B5800D8185818984203D3A04228BF204638BD49
:101B6800204638BDB1F1804F2DE9F843054602D330
:101B7800124811F0B5FCD0F800808368C8EB030365
:101B8800B1EBA30F18D9D0F804908E00C8EB090761
:101B980021B1304601F06CFE044600E00C462246B6
:101BA80049464046FFF7DFF92868FFF7CDFA274492
:101BB8002C6034446F60AC60BDE8F8833974011060
:101BC80037B5036801920D464168CA1A92109542CA
:101BD80004D9AA1A01ABFFF7D5F903E03CBF03EB20
:101BE8008503436003B030BD10B5044602FB01F322
:101BF800C069226113F01F0F4FEA531218BF013258
:101C08008342E160E361226208D92046216AFFF736
:101C1800A9FF2046216A0022FFF7D2FF10BD38B580
:101C28000B1AD9080546A2EB030404D0204629461E
:101C38001A460DF0ABFB204638BD38B50C1A1346D2
:101C4800E208054605D01846294622460DF09EFBB7
:101C58000346181938BD00002DE9F8434568836824
:101C68009D420446884607D015B103C985E803009C
:101C780008356560BDE8F8830121134AFFF75AFF6C
:101C880023688146EF1AFFF767FAC319064618BF9B
:101C980098E80300324618BF83E803002946206805
:101CA800FFF7CBFF616800F108022846FFF7C5FF80
:101CB80005462068FFF74CFA266006EBC906656002
:101CC800A660BDE8F88300BF8C74011070B54B683E
:101CD8000D685D1B00230446036043608360E810C1
:101CE8000E46FFF739FA054420606060A560024699
:101CF80096E80300FFF7A1FF6060204670BD8142AF
:101D08002DE9F04104460E462FD091E88001226863
:101D1800A368C7EB0805E8109B1AB0EBE30F0ED9D0
:101D2800FFF71AFA0646324641463846FFF785FF5E
:101D38002068FFF70DFA26602E44A66012E063685B
:101D4800991AB0EBE10F384601D8414608E039440A
:101D5800FFF773FF94E8050033687168101A184498
:101D6800FFF76BFF23681D4465602046BDE8F081DE
:101D78002DE9F04304464068A368984285B0884638
:101D8800164624D0A0F10C0108B1FFF79FFF636845
:101D98000C33636001A83146FFF798FF6068334B46
:101DA8001838C8EB0004A4105C43002C07DDA0F130
:101DB8000C052946FFF7A3FF013C2846F5E74046F6
:101DC80001A9FFF79CFF01A8FFF796FE4AE02768E4
:101DD800264BC01B8010584314BF054601252B18FD
:101DE800234D02D29D4228BF1D46C7EB08072DB1DF
:101DF8000C20684301F03CFD814600E0A94619EB40
:101E0800070002D03146FFF761FF2668484646457D
:101E180000F10C0706D010B13146FFF757FF0C361A
:101E28003846F4E7D4F80480464507D01FB1384651
:101E38003146FFF74BFF0C370C36F5E794E84001C5
:101E4800464504D03046FFF757FE0C36F8E72068C1
:101E580008B101F011FD0C2000FB0595C4F80090B5
:101E68006760A56005B0BDE8F08300BFABAAAAAA69
:101E7800555555152DE9F04705460C469A46164620
:101E8800002A6BD047688368DB1BB2EBE30F3BD8B3
:101E98009AE80003C1EB070A4FEAEA02B24218D9EE
:101EA800F600C6EB070A39463A465046FFF7C5FE24
:101EB8006B6833446B60204651463A46FFF7AFFEE5
:101EC8002644B44203D084E800030834F9E7BDE8A7
:101ED800F087B21A3B461146083319B103E90003EB
:101EE8000139F9E707EBC2026A6020463946FFF775
:101EF800A4FE6B6853446B60BC4203D084E80003C3
:101F08000834F9E7BDE8F0871146154AFFF712FED5
:101F18002A688146A71AFFF71FF9C21980460027C9
:101F28009AE8030002EBC7030137B74283E80300CE
:101F3800F6D1214642462868FFF77FFE696800EB24
:101F4800C7022046FFF779FE04462868FFF700F924
:101F580008EBC900C5F800806C60A860BDE8F08790
:101F6800227401102DE9F04F4369A5B080460D4653
:101F78000BB9002053E111A84146FFF71EF99DF85F
:101F88004C30002BF5D0129B0D9308AC119B0E938F
:101F98002846FFF706F920462B460DA94246FFF7CB
:101FA800E7FC94E8070014AE86E807002846FFF728
:101FB800F8F8204631462B464246FFF7D9FC94E80C
:101FC800070017AF87E807002846FFF7EAF800245C
:101FD800082320201B931A941C941D941E941F946C
:101FE800209421942294239401F042FC1B9E1A9081
:101FF800013E7608814600EB860A4FF4007001F036
:1020080037FC49F82600CDF87CA059F826201D9207
:1020180002F500731E93CDF88CA059F82630219351
:1020280003F500710C201C922291209301F020FCF2
:1020380003460C9097E8030083E803000C2001F0A6
:1020480017FC0C9A04604460846039469060FFF77E
:1020580003FE1AA80CA9FFF782FB28461899179ABD
:10206800FEF7C6F91C9B209A9A4200F0C7801E68AA
:102078001D9832680692726805921E9AB768043AEB
:10208800934201D0043309E001F0F6FB1F9B1A1DAF
:102098001F925B681D9303F500721E921C937A6869
:1020A8003B68D31A0493DB10039344B194E80C0003
:1020B8009B1A039AB2EBE30F88BF3C4600E03C460C
:1020C800039B01330293DB000793002301939B4694
:1020D800019A544B53F82230069A02EB030A019AEC
:1020E800514B53F82230059A02EB030950464946F2
:1020F80042462B46FFF7A5F8002865D028464946F2
:102108005246FEF775F90C2001F0B2FB0C90C0F8AE
:102118000490C0F800A0BBF1000F01D1876049E02E
:102128000C2001F0A5FB0C9B4FF0000BC0F800B091
:10213800C0F804B0C0F808B09860029BB3F1005F23
:10214800814602D3394811F0CBF9029BA3B1184656
:10215800FFF702F88246594652465846FFF76DFD8A
:10216800D9F80000FEF7F4FF079BC9F800A0534414
:10217800C9F804A0C9F808300C9B98684168D0F8E1
:1021880000E000230F931093CEEB0102039BD210C3
:10219800934204D99A1A0FABFFF76CFE03E03EBFD7
:1021A800049B734443600C9B39689B68049A1868C5
:1021B8000DF052F80C998868FFF74EFD1AA80CA983
:1021C800FFF7CDFA4FF0010B019B0133082B019368
:1021D8007FF47EAFBBF1000F0CD1B068A04209D0EC
:1021E800FFF78AFCB7682FB13846FFF785FC3846F9
:1021F80001F042FB304601F03FFB33E71A9B1F9D7D
:10220800239E5BB10436B5422B4604D218680435C8
:1022180001F032FBF7E71A9801F02EFB204625B0B3
:10222800BDE8F08F6C7401104C7401103974011002
:102238002DE9F04FA74E2DED028B1C4633688946D9
:10224800D90785B00546924612D4304610F066FD8F
:1022580070B1A14BA1481968A14B1A68FEF720FF7D
:10226800304610F077FD9D489E499F4A01F008FBD3
:102278009E4E3368DA0712D4304610F04FFD70B125
:10228800954B9B481968964B1A68FEF709FF30462C
:1022980010F060FD96489349934A01F0F1FA954E83
:1022A8003368DB0712D4304610F038FD70B18A4B22
:1022B800914819688A4B1A68FEF7F2FE304610F00A
:1022C80049FD8D488749884A01F0DAFADFF85482D7
:1022D800D8F8006016F001060FD1404610F01EFD38
:1022E80058B1864F40463E607E60BE6010F032FDB9
:1022F800384683497C4A01F0C3FADFF82C82814EC4
:10230800D8F8007017F001070ED1404610F006FD0E
:1023180050B1404637607760B76010F01BFD30461B
:102328007949714A01F0ACFA96E8000947465F45D9
:1023380004D03846FFF7E0FB0C37F8E7C6F804800E
:10234800724E33689C421BD0002C08BF0124644F96
:1023580034604FF49E72D021B2FBF4F2B1FBF4F179
:102368005D4C5E483A602160FFF73EFC604821689A
:102378003A68FFF739FC604821683A68FFF734FC8F
:102388003468DFED637A554804FB04F308EE103A2D
:10239800B8EE488AC9F1000828EE278AFEF701FF3F
:1023A800C4F1D00302934FF49E736343BCEEC88A12
:1023B800C4F59E7C01930026029B9E4234D2C346FC
:1023C800002767452BD200221046A24223D04FF4A3
:1023D8009E71931901FB03734B4401FB12B103EB8C
:1023E800010EA64515D213F801EBBEF13E0FF6D843
:1023F80018EE10EA01307045F1D93848B6FBF4F10F
:10240800B7FBF4F2CDF80CC0FDF7F2FFDDF80CC015
:1024180001E00132D9E72744C4EB0B0BD1E7019B5C
:102428002644C3EB0808C7E72C483349FEF70AFDE2
:10243800384C2A492046FEF7C0FE217A002938D0B8
:102448002B4E2648334694E80600FEF7AEFF736924
:10245800092BEDD9304628492F4CFFF783FD206022
:102468000028E5D05146254A00F01AFA24682CB114
:102478002046FFF741FB204601F0FEF91F4C94E887
:102488000C009B1ADB08224610D01E4E7168B368F8
:10249800994208D019B108462146FFF717FC73681E
:1024A8000C33736002E03046FFF762FC2368636018
:1024B800BEE7144A194C5368166869609E1BB3102E
:1024C8005C432960A960174634D0154B9C422DD92E
:1024D80010F0C4FF0CD00110BCC2011020D00110B4
:1024E800C0C201109D010010ECCB0110A4D0011056
:1024F8007CD001106CD0011044D0011070D00110B4
:102508008718001000D0011093180010B8C20110ED
:10251800CDCC4C3E10D0011068D00110ABAAAAAAAD
:10252800555555151CD00110A0D00110304601F0AA
:102538009FF9044626442C606C60AE6097E8400121
:10254800464507D01CB120463146FFF7BFFB0C3487
:102558000C36F5E728466C6005B0BDEC028BBDE88B
:10256800F08F00BF002070470020704708B5012099
:102578000321F022022306F00BFA064B04229A628A
:102588004FF48062C3F81822A3F5003308225A607A
:10259800002008BD0010104010B5054B00245C60F9
:1025A80001200321F022052306F0F2F9204610BD90
:1025B80000100E401D4B70B50021054618681C4ED2
:1025C80002F049FE044638B32A7902234AB1418809
:1025D8008288521A92FBF3F30B441B044FF4A07247
:1025E80009E0C1880289521A92FBF3F3C3F1C803C8
:1025F8005B1A1B04C822B3FBF2F34FF6C0721A40F1
:102608000C4B1A606B7913B9642006F0F9FB4FF490
:102618008063C6F8143203E0064BC6F8140218604B
:10262800003418BF01246C71002070BDACD00110BB
:102638000010104000100E400171704708B50820C6
:1026480001F016F9044B0360012303710023437161
:10265800024B186008BD00BFB0740110A8D001106B
:10266800B0F1005F08B501D310F0F8FEC000BDE876
:10267800084001F0FDB870B50B6816680D46F11AF0
:102688002DED028B08EE901A51686A68F8EEE88A18
:102698000446881A08EE100AF5EE408AF1EE10FAA0
:1026A800B8EEC88A20682AD1B5EE408AF1EE10FA51
:1026B80025D1C01A07EE900AF8EEE77A4FF080416C
:1026C80017EE900A12F032F8636808EE100A68688C
:1026D800181A07EE900AF8EEE77A4FF0804117EEE5
:1026E800900A12F023F807EE900A78EE277ABDECEC
:1026F800028B17EE900ABDE8704012F0ABB9D4ED2A
:10270800017A07EE100AF8EEE77AB8EEC77A67EEB4
:10271800E87A7243E8EE077A4B43B0EE677A07EE41
:10272800902AF8EEE77A77EE277A07EE103AB8EEB5
:10273800C77A77EEC77A17EE900A0BF04DFC11F0C6
:1027480097FE28EE088A0446A8EEA88A0D4618EED9
:10275800100A12F07FF90BF03FFC02460B462046A8
:1027680029460BF0B7FD0BF045FFBDEC028B70BDA1
:1027780003684268D21AD210914210B502D30348B6
:1027880010F0E0FE03EBC10010BD00BFD8730110CC
:10279800F8B50023551A0446036043608360E810C7
:1027A8000F46164601D0FFF75BFF0544024620603E
:1027B800A56038463146FFF740FA60602046F8BD0C
:1027C8009A422DE9F74F04460E461746984661D0BF
:1027D800C2EB030A456883684FEAEA0B5B1BBBEB55
:1027E800E30F33D8C1EB05094FEAE9035B4511D97B
:1027F800CAEB050929462A464846FFF71EFA6368C8
:1028080053444946636030462A46FFF708FA38467B
:10281800414617E002EB090A41462A465046019311
:10282800FFF70BFA019BC3EB0B02636803EBC202D1
:10283800294662603046FFF700FA63684B446360DC
:10284800384651463246FFF7F8F923E05946134A0D
:10285800FFF770F9814618B1FFF702FF054600E05F
:10286800054631462A462068FFF7E7F94146024601
:102878003846FFF7E2F9616802463046FFF7DDF9AE
:102888000646206808B100F0F7FF84E8600005EB11
:10289800C905A56003B0BDE8F08F00BFC87401107A
:1028A8002DE9F04F436806689E1BF610012E95B07F
:1028B80004468B46154603D840F0978000218EE0E9
:1028C8000021FFF755FF03C806AB83E803004FF06C
:1028D800010A4FF0FF374FF000084FF00009731E50
:1028E8009A4520D2514620460593FFF741FF059BA4
:1028F800029019462046FFF73BFFDDF808C0024664
:1029080006A96046FFF7B7FE0BF066FB42464B464A
:10291800CDE902010BF044FE10B1DDE9028957460A
:102928000AF1010ADBE758460BF056FB02460B4654
:10293800404649460BF034FE0146002842D0216843
:10294800FF0007F108020A4411AB08A8FFF720FFAF
:1029580021686268394411AB0BA8FFF719FF0023FF
:1029680008A859460EAA0E930F9310931193129329
:102978001393FFF795FF0BA8594611AAFFF790FF8D
:102988004FF000038DF800300F9B69680E9A2846B7
:10299800083BFFF715FF4FF000036968119A8DF89F
:1029A80000302846129BFFF70BFF11A8FFF7A4F889
:1029B8000EA8FFF7A1F80BA8FFF79EF808A8FFF7E5
:1029C8009BF812E02046FFF7D3FE01462846FFF7A2
:1029D80043F994E80A00591AC91020460139FFF74B
:1029E800C7FE01462846FFF737F915B0BDE8F08F56
:1029F80000B52DED028B814208EE103A0B4628BF38
:102A0800034687B0934228BF13460390C01A029129
:102A18004043C91A019201FB0101D21A02FB0210BC
:102A280007EE900AF8EE677A17EE900A0BF0D4FAE0
:102A380011F026FE0BF0BEFD1E2804D8092803D885
:102A48000023059310E01E20DFED1E7AB8EE488AB9
:102A580028EE278A07EE900AF8EEE77A28EE278A0A
:102A6800BCEEC88A8DED058A059BB3F57A6F88BFE1
:102A78004FF47A6305A888BF059305F009FE02990B
:102A8800019A039803F049FB03F060FB03A902AA2B
:102A980001AB03F050FB039B8DF81130029B8DF8BE
:102AA80012300DF11100019B8DF813300DF1120158
:102AB8000DF1130205F0C2FD07B0BDEC028B5DF805
:102AC80004FB00BF8FC2753C00B593B0002306938A
:102AD80040201023079300F0CDFE031D00F14401B0
:102AE800002223F8022C23F8042C04338B42F7D15C
:102AF800174B089018681749A023ADF824306423B1
:102B0800ADF8263009AA06AB05F00BFC03230093A9
:102B1800114B04211B680A4606A800F0CFFD06AA3F
:102B28000C4909A804F0B2FF05A909A805F024F882
:102B380002A903AA04AB03F0FEFA02A80FC8FFF724
:102B480057FF089808B100F099FE13B05DF804FB30
:102B5800ACD001105CD10110A8D1011013B501A8A7
:102B68000C4606F095F9019806F098F9A042FAD3B8
:102B780006F0F2FD02B010BD13B5044602A800230A
:102B880040F8043D05F06EFD20464EF66021FFF743
:102B9800E5FF6078034B03EB800005F063FD02B0AE
:102BA80010BD00BF787D011037B50024054644707C
:102BB800047202A840F8044D05F054FD2C7003B0CF
:102BC80030BD10B50446FFF7EFFF204610BD0000EA
:102BD80073B505460E460024B44217DA02A800234E
:102BE80040F8043D05F03EFD4EF660212846FFF70B
:102BF800B5FF074B687803EB800005F033FD2846E6
:102C08004EF66021FFF7AAFF0134E5E702B070BD78
:102C1800787D01101FB5A02200230446ADF80820D6
:102C280064220393ADF80A20009303A8611C02AA4A
:102C38000DF10A0300F0A0FD002808DB054B012177
:102C4800186801F0BFF820460421FFF7C1FF04B05F
:102C580010BD00BFA8D101104378072B01D8FFF79A
:102C68008BBF70470129F8B504460F4647DD06F0CB
:102C7800D1F8054606F070FD2678012E09D002D35A
:102C8800022E18D037E0201D06F002F90123237028
:102C98002DE04DB1201D06F0FBF866702046FFF7C9
:102CA8006BFF02232370E2E7606806F0F7F8154B24
:102CB8009842DCD901E04DB9657820460421FFF738
:102CC80087FF2046FFF770FF2846F8BD606806F0CA
:102CD800E5F80D4B9842CAD9201D06F0D9F863785B
:102CE8000133DBB27A1C934208BF0123637020468C
:102CF800FFF7B2FFBBE72046FFF756FFB7E7002014
:102D0800F8BD00BF60E3160040420F0030B504462E
:102D180089B006F07FF8237A05460BB34FF4A0720A
:102D2800ADF81A20C822ADF81C2007AA0092694AFB
:102D3800212312688DF815300023ADF81630ADF850
:102D48001830019202930DF115000DF1160106AA33
:102D58000DF11A0303F08AFC2046FFF7B5FE1FE0C9
:102D68002278EAB1ADF81630ADF818304FF4A073F8
:102D7800ADF81A30C823ADF81C3007AB0093554B9B
:102D88001B680193212201238DF8152002930DF170
:102D980015000DF1160106AA0DF11A0303F066FCE1
:102DA8002378052B00F28D80DFE803F003193159F1
:102DB800678A002D00F08880201D06F069F8464BD0
:102DC80008AD1B8845F8043D284605F061FC012341
:102DD800237028460023079305F044FC74E00DB9DE
:102DE800257071E0606806F059F83C4B98426BD941
:102DF80003F0F4F910B10123637000E06070201D46
:102E080006F046F82046FFF727FF02232CE095B985
:102E180020460321FFF7DCFE201D06F039F8627812
:102E280001232AB908A800F8043D03F01FFB00E0BD
:102E38002372032318E0606806F030F8284B9842A4
:102E480042D9201D06F024F863780133DBB2082B41
:102E580008BF002363702046FFF7FEFE34E02DB163
:102E6800201D06F015F8042323702DE0606806F095
:102E780015F81C4B984227D923E07DB963784BB9E4
:102E880008A800F8045D03F0F1FA20460421FFF7D2
:102E98009FFE16E02046FFF7BDFE12E0606805F0D1
:102EA800FDFF0E4B98420FD9637823B908A800F8A4
:102EB800043D03F0DBFA2046FFF776FE0523D3E74F
:102EC80015B92046FFF770FE2078003018BF0120A2
:102ED80009B030BDA8D10110B4D00110D012130030
:102EE80040420F000087930330B50468013A234637
:102EF80008681D1B854204D212F8010F03F8010B64
:102F0800F6E730BD07B5002201A9054806F0FAF931
:102F1800044B0199186805F001F903B05DF804FB4A
:102F280088750110ACD0011013B5074C074821462D
:102F3800002206F0E7F902A8238840F8043D05F0CE
:102F4800A7FB02B010BD00BFB4D00110A2750110DC
:102F580008B50278532A0B4608D1817A0D4A3039D0
:102F680010681A68C9B205F0D1F806E04D2A04D1F4
:102F7800084A0968106805F0D5F800F009FF38B16B
:102F8800044B186804F0A5FFBDE8084000F00ABF2C
:102F980008BD00BFACD0011030B501248BB010497A
:102FA800224602A80CF0BAFA02A8694601AA002330
:102FB80006F0A8F9002810DB0A4D019A2868E1B24A
:102FC800013404F05CFF082CE9D1286804F081FF83
:102FD800054B186806F0D0FE00200BB030BD00BFCE
:102FE800B1750110ACD00110B0D00110F0B597B098
:102FF800074618881C9B1288ADF80C200C461988C7
:103008001D9BADF80E001B88ADF812302378ADF883
:1030180010105A1E062A37D81D4E32682AB91D4884
:1030280006F008FC6FF0010030E01B4D03AA286889
:10303800314604F0FEFE2178286804F018FF3B684A
:10304800C361054603AA31460DA804F006FD002118
:103058000DA804F091FDA86122781049002405A864
:103068000CF05CFA812120222B46009405A806F07A
:103078002DF9FFF791FF0A4806F0DCFB1E980121A5
:1030880000F0A0FE204601E04FF0FF3017B0F0BD81
:103098005CD10110BD750110ACD00110B1750110E3
:1030A800D675011070B5037892B0013B0024062B49
:1030B80005460E4611940F940E940D940C940B949F
:1030C8000A941BD8214620220AA80CF0C3F90D49FE
:1030D8002A7802A80CF022FA812120220AAB009457
:1030E80002A806F0F3F80446FFF756FFFFF754FF6F
:1030F8003046012100F066FE204601E04FF0FF3027
:1031080012B070BDB1750110F0B593B012AD0021C9
:1031180045F8201D07462022284611910F910E914F
:103128000D910C910B910CF095F901240D49224653
:1031380002A800260CF0F2F9009602A881212022AC
:103148002B4606F0C3F8002809DB0134082CEDD122
:10315800FFF722FF3846012100F034FE304613B055
:10316800F0BD00BFB175011070B5B6B0002314935F
:103178001293119310930F930E930D9301252A46E2
:103188007749784E15A80CF0C9F92A4676491DA842
:103198000CF0C4F92023002400930DAB0193012106
:1031A80081231DAA029415A806F0D4F82A466F496F
:1031B80015A80CF0B3F92A466D491DA80CF0AEF914
:1031C8006C4B02940022CDE900234FF48071142344
:1031D8001DAA15A806F0BEF807A9224615A806F0EC
:1031E80091F8E9B23068079A04F090FF013515A804
:1031F800614906F019F9082DC1D155A3D3E9002377
:103208000294CDE900234FF480715C4A5C48142392
:1032180006F0A0F858495A4806F006F94EA3D3E933
:1032280000232146CDE900230294564A5648142328
:1032380006F090F801238DE818002146534A5448B7
:1032480006F088F84FF4FA638DE81800514A52489E
:1032580004234FF4807106F07DF850494E4806F07B
:10326800E3F840F2EE238DE818004D4A4D4802235A
:103278004FF4807106F06EF84FF47A754A49494860
:1032880006F0D2F8009521460194484A484802239E
:1032980006F060F8009521460194464A4648474D95
:1032A800022306F057F814238DE81800214604235A
:1032B800434A444806F04EF806A922463C4806F020
:1032C80021F80DF11A0122463B4806F01BF808A91F
:1032D80022463C4806F016F80DF1170122462C4804
:1032E80006F010F80AA92246254806F00BF80BA9A3
:1032F8002246254806F006F809A92246264806F07F
:1033080001F829462246274805F0FCFF9DF81730AA
:10331800BDF81A20BDF8181000933068089B01F01A
:103328009FFE30680A9904F0FDFE30680B9904F09E
:103338000BFF0999306804F0F1FE36A82B8840F895
:10334800A83D05F0A5F9FFF727FE36B070BD00BF10
:10335800000000A09999B93F000000C0CCCCFC3F08
:10336800B1750110ACD00110E6750110F9750110A6
:103378000C76011000000440D12C00107276011068
:1033880063760110E7760110D176011053770110AA
:1033980043770110B677011088750110852C00104D
:1033A80040780110A2750110A92C0010ED780110C9
:1033B800E27801104D79011034790110B4D0011070
:1033C800BB790110AC79011070B50546042000F0F6
:1033D8004FFA124C064606F065FC4FF4247026603E
:1033E80000F046FA0E4A2168064601F0FBFD0D4B37
:1033F8000D491E60284603F09EFB0C4B0C491868CB
:10340800002204F03BF90B4B0028188003DBFFF780
:10341800ABFE002070BD4FF0FF3070BDB0D0011082
:1034280000100910ACD00110E0740110ACD10110EB
:10343800317A0110C4C20110F0B58BB007460AA852
:1034480001254FF0FF3300F8055D0E461446099339
:1034580003F04AF800281ADB0E4B0F48B3F9002096
:10346800009704230193029654B1002109AC0391FB
:10347800049405910691006804F0F3F8099806E0B1
:10348800039404940068294604F0EBF820460BB036
:10349800F0BD00BFC4C20110ACD101102DE9F04F3E
:1034A800DFF8C8802C4D8FB0002402264FF0410B66
:1034B8004FF0B10A64230B914FF4803241468DE8F6
:1034C800100802940396049405960694CDF81CA05F
:1034D80008940994814603F0D2FD0746286806F04F
:1034E8004BFC1E491E480122FFF7A6FFC7F5803393
:1034F800DB0807F180511A460D9001F50021286874
:103508000C9306F0FEFB174A05460121106804F0EB
:1035180075F9154A0B9B02938DE804080C9B0396DA
:103528004FF4A072ED000492C822069241461A4652
:1035380005966423CDF81CA008950994484603F025
:103548009EFD48464146EA1903F061FADDF834C0A9
:1035580060460FB0BDE8F08FB0D001100010091020
:1035680000000910ACD1011043435132000008108B
:103578000121FFF793BF000030B58FB041240094BC
:103588009DF84C400194422402940494C824059464
:103598000A24624308915208129907920C224FF4A8
:1035A800A0754A4300240395520882250A920B937A
:1035B800069509950C940D9421466422024B03F05C
:1035C8000CFC20460FB030BD4343423208B5000220
:1035D80044F62063B0FBF3F0C0B107EE900AF8EEB2
:1035E800E77A17EE900A0AF0F7FC10F0C9FF0022FC
:1035F800074B0AF045FD0AF0DDFFFF2803D8002835
:1036080008BF012000E0FF20C0B208BD012008BDAE
:103618000000494030B5284C85B02068002101F0F1
:103628001AFE002842D00388072B9FBF216803F1A8
:10363800FF32142303FB0213428898BFD3F8F050DB
:103648008388A3EB02030289C088A2EB000000FB79
:1036580003F088BF6FF07F45FFF7B8FF02AA044662
:1036680001A9284603AB02F066FD039A12B1624332
:10367800120A0132029B039213B163431B0A0133FE
:103688000198029310B16043000A013001908DF84F
:1036980001008DF803200DF101000DF102010DF17B
:1036A80003028DF8023004F0C9FF03E0039003A879
:1036B80004F0D8FF05B030BDACD001102DE9F04FB3
:1036C80091B0064689460F929DF868A01D46002BCA
:1036D8004BD0022400234FF0410BB2278DE8080895
:1036E80002930493069308930A930C930D930394FF
:1036F80064230594079409940B9728461C494FF4B2
:10370800903203F0BCFC3268B168804600F180500A
:10371800A24000F500200BF09FFD164BCDF808A045
:103728008DE808084FF4A0730493C82306930F9BF1
:103738000A9333680394A3405B080C930594079499
:10374800CDF8209009940B97284609494FF49032F8
:10375800642303F094FC32680549284608EB82028A
:1037680011B0BDE8F04F03F052B911B0BDE8F08FC9
:1037780000000810424C54312DE9F04796B09A46A3
:10378800002302938046102340200E46039391465F
:1037980000F070F8011D00F14403002421F8024CE8
:1037A80021F8044C04319942F7D1317804904B1E2A
:1037B800062B48D8294F3B682BB9294806F03AF818
:1037C8006FF0010441E0274DBAF80030B9F8002045
:1037D8000091ADF83420ADF836300DAA02AB394669
:1037E800286804F070FE3178286804F040FBD8F8A7
:1037F8000030C361054602AA39460DA804F046F90F
:1038080021460DA804F0B8F904210323A8610A464B
:10381800009302A81E9BFFF751FF3278124905A8B2
:103828000BF07CFE812120222B46009405A805F090
:103838004DFDFFF7B1FB0D4805F0FCFF1E98012177
:1038480000F0C0FA01E04FF0FF34049808B100F02E
:1038580015F8204616B0BDE8F08700BF5CD101100E
:10386800BD750110ACD00110B1750110D6750110ED
:103878000BF022BA0BF020BA0BF026BA0BF024BAE0
:1038880000207047FEE70000012884B03CD870B9DA
:103898001E4B1A680092009AD20117D5009AD2439B
:1038A80042F0807201921A4A01981060F1E7194BB0
:1038B8001A680092009AD00417D5009AD24342F4AD
:1038C80080520192144A01981060F1E7134A11607E
:1038D8001A680292029AD10116D4029AD24322F0AF
:1038E8008072039203990A4AF1E70D4A11601A6837
:1038F8000292029AD20407D4029AD24322F4805246
:1039080003920399044AF1E704B070475431054023
:10391800043105405031054000310540043404406D
:1039280008330440014B002018707047E8D001109C
:10393800034A01231370034A00201370704700BF25
:10394800E8D00110BCD0011037B500240C4D00940C
:10395800214601940B4A0C48012305F0FBFC214643
:10396800009401942846094A012305F0F3FC08490C
:103978002846224603B0BDE8304005F0C3BC00BF6E
:10398800DE7E0110887E0110787E0110E47E011031
:10399800BDD0011013B5037833B1082B2AD8013BE9
:1039A800164A52F823302BB3154B00221A600478BC
:1039B800B4B90DF107012246124805F0A3FC9DF8A1
:1039C80007104A1ED3B2072B06D80C4951F82220FB
:1039D8004AB10D4A137006E00B48047019B1F4E7B8
:1039E800094B013C1C70094A01231370084A002046
:1039F800137001E04FF0FF3002B010BDC8D00110C5
:103A0800B8D00110787E0110C5D00110E8D001109F
:103A1800BCD0011010B50C46FFF7BCFF0028A1BFB1
:103A2800024B22681A60002010BD00BFB8D00110F8
:103A380010B50024064B53F8243033B1013405483F
:103A480021460CCB05F0F6FEF4E7184610BD00BF82
:103A5800C8D00110217F01107FB50B4903460868C3
:103A68008988049004AAADF8141043B1002100928B
:103A78001846019102918222062303F0AEF9002034
:103A880007B05DF804FB00BF987D011030B50388CE
:103A9800112B85B012DCA1B10B4D05EBC30000243E
:103AA80040680190A122084600920294039421469E
:103AB80055F8333003F091F9204603E04FF0FF301A
:103AC80000E0084605B030BD98870110044B18780F
:103AD80028B9044B1B78002B14BF02200020704724
:103AE800BCD00110C4D0011038B504460C20FFF733
:103AF800BFFE0546FFF765F80F4B10491D602046CD
:103B08000F4C03F018F820680E49002203F0B6FDA8
:103B18000D4B0E4918800022206803F0AFFD0C4BB6
:103B28000C4918800022206803F0A8FD0A4B188071
:103B3800FFF70AFF002038BDC0D00110A07D01109A
:103B4800ACD101102D7F0110CAC20110317F0110C4
:103B5800C6C20110397F0110C8C20110064B09B155
:103B6800D86107E053F821200AB10131FAE7024B86
:103B780043F8210000207047C8D0011010B50B4B46
:103B880088B0B3F90020009007AB00210293084BDE
:103B980001910391049104461868012303F061FD23
:103BA800044B07981C7008B010BD00BFCAC20110B2
:103BB800ACD10110B6D001107FB5084BB3F9002085
:103BC80005AB00210093064B0191029118680B4642
:103BD80003F047FD059807B05DF804FBC8C2011063
:103BE800ACD101107FB5094BB3F9002005AB00211A
:103BF8000093074B0191029118680B4603F031FDC1
:103C08009DF8140007B05DF804FB00BFC6C20110A0
:103C1800ACD1011007B50023D9B2094A52F82120C6
:103C28000133002AF8D1074B1868FFF71BF802ABDD
:103C380003F8010D1846FFF7ADFE03B05DF804FB6D
:103C4800C8D00110C0D0011008B5FFF78DFA00F0F8
:103C58006BFE02F061FD06F067F900F0BFFBBDE8FE
:103C68000840FFF771BE000008B505F075FD074B69
:103C78001868FFF74BF8064B187005F0CDFB18B124
:103C8800BDE80840FFF7E0BF08BD00BFC0D0011085
:103C9800C4D0011073B5FFF7BDFF00252C46344B87
:103CA800186802F03DFE0646FFF7DEFF042C07D831
:103CB800DFE804F0091D2F353E002E4B1B78F3B9C1
:103CC80003243546EBE72C4B1B7823B902A840F8B0
:103CD800043D04F0C7FC294B1A78294B53F82230CD
:103CE8009B6898470028B4BF03240124E9E7254BC3
:103CF8001B78002BE1D0FFF75FFF0224E1E71F4BA1
:103D08001A781F4B53F82230DB689847002822DACC
:103D1800D6E71C4B1B78002B08BF0024D1E7154AB7
:103D280000231370184A04241370FFF745FFC8E7EF
:103D3800104B1B781BB1FFF7FBFD0024C1E71EB138
:103D4800124B1B78002BBCD102A8002400F8044DAC
:103D5800FFF720FEB5E7002DB3D0002EB1D105F056
:103D6800ABF802A8344600F8046DFFF713FEA8E785
:103D7800A8D10110E8D00110F8D00110C5D0011069
:103D8800C8D00110C4D00110BCD00110A4DB0110B0
:103D980010B5FFF727FF044608B1FFF70DFF2046CF
:103DA80010BD000008B5054B186805F0E5FF044B89
:103DB8001878BDE80840FFF7E1BE00BFB0D0011099
:103DC800B6D001101FB548B1042300930023019118
:103DD800029318216422034B02F0FFFF05B05DF83F
:103DE80004FB00BF45565431C269006A101A704777
:103DF80070B503460024944217D0D8691D6A401B49
:103E0800002801DC224610E058691D69461C5E61E5
:103E1800285C0855186A5D6901301862D8688542BF
:103E280004BF002058610134E5E7104670BD00006A
:103E3800034B4FF48022C3F880200020704700BF56
:103E480000E100E0826838B5536803F0F803982B66
:103E5800044651D00BD8802B18D003D8602B4BD0F8
:103E6800702B11E0882B47D0902B0FD048E0B82B4F
:103E780024D004D8A02B3FD0A82B1FD040E0C82BBB
:103E88003AD0F82B38D0C02B3AD135E09368216A64
:103E9800E269511AE268521A002ADBB226DDA269E9
:103EA8002169501CA0618B54E369A2690133E36165
:103EB800E3689A421AD10023A36117E0237913B16A
:103EC8000023936022E0256B35B9636BA06A616AB1
:103ED80098472063B8B1E562E36AA26A591CE162B7
:103EE800D25C236B013B2363A3689A60A368042216
:103EF8001A6008229A6138BD04231360082300E081
:103F08002C23936138BDA368986001232371EDE7E2
:103F1800014B1868FFF796BFECD001108368382270
:103F28009A6144221A60704738B503210546F02289
:103F38000120002304F02CFD02200121F02204239B
:103F480004F026FD02200121F022042304F020FDC4
:103F580001200421F022002304F01AFD0021022090
:103F6800F022042304F014FD064B0024C3F8184281
:103F7800054B2C714FF4802228461A60FFF7CEFFBC
:103F8800204638BD0010104000E100E008B5836805
:103F98001B685B0701D4FFF7C1FF002008BD13B5FC
:103FA8008DF8051002A9002401F8044D80688DF8E9
:103FB800074004F0C1FC204602B010BD2DE9F843CB
:103FC80020269946134B03600446C66030460F46C8
:103FD8009046FFF74FFC002520616561A561E5610A
:103FE800256266623046FFF745FCE562A0622563FC
:103FF8003846C4F83490A760074904F05BFC2046B3
:104008004146FFF7CCFF054B83F817532046BDE820
:10401800F88300BF30880110A086010000E100E0AD
:1040280038B505463820FFF723FC2B4603495422B0
:104038000446FFF7C3FF024B1C6038BD00100A405E
:10404800ECD0011010B5104C05F094FB2068FFF778
:10405800BBF900F0BDFC2068FFF746FD00210B48C6
:10406800FFF77CFD00F0BAF900210948FFF776FD5B
:1040780000210848FFF772FD01210748FFF76EFD90
:10408800FFF708FE002010BDA8D10110CCC2011016
:10409800E0C20110F0C2011000C3011013B502AC58
:1040A800012304F8013D204602F01EFA0B4B186864
:1040B80003F00FFF0A4B186805F05EFE0020FFF7BB
:1040C8005DFD00F099FC036821469B680122984732
:1040D8000028F6D1034B187002B010BDACD0011007
:1040E800B0D00110F0D001102DE9F34100F084FCAC
:1040F8000A260446454D2F78012F07D002D3022FF8
:1041080017D079E0424BFF221A7073E023682046EB
:104118009B6869463A46984700286FD03C4A9DF804
:10412800001013783B48117041EA032303800223EF
:1041380063E0384B1B88FF2B26D123682046DB68B9
:10414800984703285ADD23683A469B6801A9204608
:10415800984723683A4602AF9B680DF106014FF075
:1041680000082046984707F8058D01A9384605F04C
:104178001FFE012338460DF106018DF8033005F0C6
:1041880017FE85F8008039E0FE2B0AD12368204607
:104198009B6869460122984780B3684602F09CF8FC
:1041A8002AE0FD2B26D123682046DB6898470228A1
:1041B80024DD23680DF101019B6801222046984700
:1041C80023680DF102019B68012220469847236865
:1041D8000DF103019B680122204698470DF1030267
:1041E8000DF101000DF1020104F028FA0A4B012239
:1041F8001A7001E0012300E000232B70013E16F045
:10420800FF067FF477AF02B0BDE8F081F0D001106F
:10421800F1D00110DCC20110F8D0011010B5204C0B
:1042280086B0206801F0A6FE00280BDA1D4B1B782B
:10423800002B32D01C4B1D4819684A1C1A6005F027
:10424800F9FA2AE0FFF750FF05AB0093206802A9AE
:1042580004AA03AB01F04DF8059B009301230193D9
:10426800134B0299049A1868039BFFF785F900F02D
:10427800C3FB03681B6998470E4B1B780BB9FFF704
:10428800C9F90D4B1B681B689A88DB8892B29BB2F0
:104298009A4202D1FFF728FFF3E7002006B010BDCD
:1042A800ACD00110BDD00110F4D001104888011025
:1042B800A8D10110F8D00110B0D00110094B4FF46B
:1042C800FA725A604FF448729A604FF000421A60CE
:1042D800054B4FF42F7159604FF4617199601A6062
:1042E800704700BFFCD0011008D101104368B3F13A
:1042F800004F37B504460D461BD0CB1A0169C2687A
:104308004B4302FB053203684FF47A7192FBF1F2DA
:1043180013448B4201DD016003E0002BB8BF00238A
:104328000360204602A950F8083B21F8023D05F039
:104338003FFD656003B030BD30B51D4D87B02868BE
:1043480001F018FE2868002100F085FFC0B1C3887D
:1043580004894288E41A022194FBF1F41C448388FE
:1043680014489B1A93FBF1F11144A4B289B2C1F12C
:10437800A001643CFFF7BAFF0F482146FFF7B6FFDC
:1043880005AB0093286802A904AA03AB00F0B1FFAB
:10439800059B009301230193084B0299049A18681E
:1043A800039BFFF7E9F8FFF735F9002007B030BDA8
:1043B800ACD0011014D1011028D10110A8D10110DE
:1043C80007B502A94FF4FA7340F8083B21F8023DFB
:1043D80005F0EEFC03B05DF804FB00002DE9FF4199
:1043E800DFF8C080264F274A274E284D00244FF477
:1043F800AF738DE8180040468021042304F0AAFF1B
:104408004FF416738DE8180038468021204A04239B
:1044180004F0A0FF4FF4FA738DE8180030468021AD
:104428001C4A042304F096FF4FF42F738DE81800FC
:10443800284604238021184A04F08CFF02A922464A
:10444800404604F05FFF03A92246384604F05AFFAD
:10445800124B029ADA60039A1A6102A92246304680
:1044680004F050FF2246284603A904F04BFF0C4BEA
:10447800029ADA60039A1A6104B0BDE8F08100BFBD
:10448800B88801107E880110FB880110428901104C
:10449800C3880110078901104E89011014D1011039
:1044A80028D101107388011007B502A8012300F86C
:1044B800013D02F019F8FFF791FF0B48FFF780FF65
:1044C8000A48FFF77DFF0A4B1B680BB1FEF764FD36
:1044D800084B186805F050FC0020FFF74FFB002040
:1044E80003B05DF804FB00BF14D1011028D10110FE
:1044F8005CD10110B0D001100C4B002119724FF49F
:1045080048714FF4FA7219614FF000411A60DA608D
:104518005960074B1A6001221A724FF42F72DA6041
:104528004FF461721A615960704700BF14D10110CD
:1045380028D101100020704770B50E460446D8B146
:104548004B680D685D1BEA104FF000030360436081
:10455800836008D0B2F1005F01D30EF07FFF2846D8
:10456800FFF786F90246154422606260A56096E866
:104578000300FDF762FB606070BD000081422DE919
:10458800F04705468A467DD091E84001D0F8009072
:1045980082683E4BC6EB0807C9EB0202BC109210BA
:1045A8005C435A43944226D944B1394B9C4201D9C1
:1045B8000EF054FF3846FFF75BF90446A14646451E
:1045C80007D048463146FFF7B7FF0C3609F10C090A
:1045D800F5E795E84001464505D0306808B1FFF792
:1045E8004BF90C36F7E7286808B1FFF745F92C6056
:1045F8003C44AC6043E04268C9EB02084FEAA808B3
:1046080003FB08F8A0451CD3A046CA46B8F1000F22
:1046180009DD50463146FDF772FB0C360AF10C0AEB
:1046280008F1FF38F2E724EAE4736E680C2404FB0F
:104638000394B44223D0206808B1FFF71DF90C3465
:10464800F7E7B8F1000F09DD48463146FDF757FB9B
:104658000C3609F10C0908F1FF38F2E795E850002B
:10466800DAF80030DAF80480341B1C44444506D0DC
:1046780030462146FFF760FF0C340C36F6E72B680E
:104688001F446F602846BDE8F08700BFABAAAAAAFE
:104698005555551530B589B00F4D4FF49E7300240C
:1046A8000193D02302930094234628464FF4903177
:1046B800212201F06DFF094A012305A82946FDF7CB
:1046C800B7FD05A90648FFF759FF05A8FDF721FA28
:1046D800204609B030BD00BF00000810CDCCCC3D4D
:1046E8003CD1011004480549054A00230360436092
:1046F8008360FFF7C5B800BF3CD1011093180010C4
:10470800ECCB0110002070472DE9F041434B444C9D
:10471800196801298EB01AD1424A029041238DE8C6
:104728000C00022303930593B1234FF4A078C82704
:10473800079300264FF47A430893CDF81080069724
:104748000996206838494FF49032642330E0A1F18B
:104758006403632B43D80A2691FBF6F206FB121278
:1047680030321206642342F4B04242F0450291FB13
:10477800F3F503FB1511B1FBF6F1303142EA0142C2
:10478800009241220192022203920592B1220290E4
:104798004FF4A078C827079200264FF47A42206881
:1047A80021490892CDF81080069709964FF4903267
:1047B80002F065FC054600F18050C5F590318DE8A2
:1047C800400102972122334600F5002001F0E0FE67
:1047D8002068154905F57A4202F019F91BE02123F2
:1047E8008DF82F300023ADF83030ADF832304FF46B
:1047F800A073ADF83430C823ADF836300DF1360368
:104808000093236801930DF12F000CA90DF13202DA
:104818000DAB01F075FF0EB0BDE8F081B8D0011006
:10482800A8D10110434D5632000008107FB5134B34
:104838001B68E3B9ADF81030ADF812304FF4A0732F
:10484800ADF81430C823ADF816300DF116030093F7
:104858000B4B21221B688DF80F2001930DF10F00DF
:1048680004A90DF1120205AB01F04AFF02E0012094
:10487800FFF74AFF002007B05DF804FBB8D001102D
:10488800A8D1011008B50A46034903460868194625
:1048980000F082FC08BD00BFACD00110052838B577
:1048A800054631D81A4C206810B103685B689847F0
:1048B800184B1D70013D042D1AD8DFE805F00308D8
:1048C8000A0D1100144B18682060002114E0134BE6
:1048D80000E0134B1B6809E0124D0121286802E033
:1048E800104D28680021FDF7A7FE2B68236005E01E
:1048F800094B18682060012100F04CF92068036812
:104908001B689847002038BD4FF0FF3038BD00BF06
:1049180048D101104CD1011050D10110ECD0011038
:1049280054D10110A8D00110F0B5214F214E224AD0
:10493800224D85B000242146009401943846012375
:1049480004F008FD54238DE81800304610211C4A55
:10495800012304F0FFFC4FF496438DE8180021462C
:1049680004232846174A04F0F5FC0DF10A012246F3
:10497800384604F0C7FC9DF80A00FFF78FFF22466F
:104988000DF10B01304604F0BDFC0F4B9DF80B10E8
:104998001868FFF704FB03A92246284604F0B2FC76
:1049A8000A4B0399186800F001FB05B0F0BD00BF81
:1049B800EB890110988A0110F9890110F98A011010
:1049C800A48A0110078B0110ECD0011054D10110FA
:1049D80010B5084C2046FFF723FB204600F03CF9B1
:1049E800204600F0EDFAFDF729FEFFF79DFF0020B5
:1049F80010BD00BF05460010014B1868704700BF86
:104A080048D1011042698069101A7047F0B5034611
:104A18000024944216D09D695869401B002801DC87
:104A280022460FE0DE689F680135701C37F8166073
:104A38009D615D68D860A84204BF0020D8600E550B
:104A48000134E6E71046F0BD044B0020C3F8180215
:104A5800034B4FF40002C3F8802070470010104049
:104A680000E100E00C4B4FF48042C3F81422962278
:104A78000A49086840070BD4013AF9D1C3F814224F
:104A880010220868400703D4013AFAD10120704780
:104A98000020C3F8140270470010104014610F4042
:104AA80037B5054690F83D00D0B10E4804210022E4
:104AB80003F0CFFF01A804F0EBF92846FFF7D2FF77
:104AC800044630B9019804F0E9F9074B9842F4D943
:104AD80000E0012403480421012203F0BAFF204624
:104AE80003B030BD00500C4020A1070038B50F4B73
:104AF800042405469C6301200321F022052303F0CA
:104B080047FF21460120F022052303F041FF012041
:104B180013210346F02203F03BFF054B4FF400023C
:104B28001A602846FFF7BCFF002038BD001010406F
:104B380000E100E038B590F83D30044623B3426BFD
:104B4800836B9A4216D090F830507DB990F83C307B
:104B58000133DBB2052B80F83C3013D1FFF7A0FFFF
:104B68000A4804F067FE84F83C500BE0002380F804
:104B78003C3007E0064B4FF48042C3F81422002271
:104B8800C3F81422636BA363002038BD808B011027
:104B98000010104080F83D10044B21B14FF48042C2
:104BA800C3F818227047C3F8181270470010104055
:104BB800F0B5244B03601026044689B046602020D7
:104BC8000F46FEF757FE0025A060E5602561656188
:104BD800A561E6612020FEF74DFE1B4B07930F23CE
:104BE80020626562A5620293E76204231748039571
:104BF80002A904950695059303F0D4FE0825134EE3
:104C0800013DB3680193FAD13046012103F018FF42
:104C18003046042103F027FF30460421012203F027
:104C280018FF0B4B83F817530A4B84F83050204673
:104C38006563A56384F83C5084F83D50C3F8185266
:104C480009B0F0BD688B011000CB280C00500C4057
:104C580000E100E00010104038B505464020FEF79E
:104C680007FE29460446FFF7A3FF014B1C6038BD29
:104C780050D1011070B5C56804460E4645B90168A3
:104C880003694068490098474008E06058B1A5604A
:104C9800A3686268591C32F81330A1603380E36856
:104CA800013BE360012070BD0269436970B5046887
:104CB800D31AE31A002B0CDDC56846686B1C013259
:104CC800A342C36026F81510026104D10023C36013
:104CD80001E0002070BD012070BD000090F83D206B
:104CE8002A4B73B5044682B3294A4FF48041C2F86F
:104CF80014120021C2F8141204229D681A62234B70
:104D0800DB6813F002030DD004F11C000DF106015D
:104D1800FFF7B0FF08B9ADF806001C4BBDF8062038
:104D28009A60ECE705F47F42B2F5B44F06D0B2F5CD
:104D3800B64F04D1201DA9B2FFF7B6FF012384F8AE
:104D48003030636B013363631EE004229D681A628E
:104D58000E4EF3689B0706D504F11C000DF1060101
:104D6800FFF788FF60B905F47F43B3F5B64F0BD161
:104D7800201DA9B2FFF798FF012384F8303003E023
:104D8800BDF80630B360E3E702B070BD00500C40D8
:104D980000101040014B1868FFF7A0BF50D1011058
:104DA8008269C069101A704790F8343013B94268A4
:104DB800136013600020704770B5034600249442C6
:104DC80017D09869DD69401B002801DC224610E0F5
:104DD8001869DD68461C1E61285C0855D8691D697C
:104DE8000130D8619868854204BF002018610134F9
:104DF800E5E7104670BD000008B502200021F0224A
:104E0800042303F0C5FD02200121F022042303F04E
:104E1800BFFD034B4FF08072C3F88020002008BD0F
:104E280000E100E008B502200021F022012303F090
:104E3800AFFD01210B460220F02203F0A9FD01205D
:104E48000321F022002303F0A3FD01200421F02216
:104E5800002303F09DFD034B4FF080721A60002081
:104E680008BD00BF00E100E073B504460020626899
:104E780084F83400936803F00E03042B16D11368EA
:104E8800E169A269511AA268521A8242DBB22FDD87
:104E98006269E168551C65618B54A36962690133D5
:104EA800A361A3689A4223D1606121E00C2B02D14F
:104EB800136801931CE0022B1AD11025E66A36B953
:104EC800236B606A216A9847E06268B1A662A36AA8
:104ED800626A591CA162D25CE36A013BE362012366
:104EE80084F8343063681A60013D15F0FF05E5D198
:104EF80002B070BD014B1868FFF7B6BF54D101105E
:104F08002DE9FF412026264B036004468660304683
:104F180090460F46FEF7AEFC0025E060266225614C
:104F28006561A561E5613046FEF7A4FC4FF4964340
:104F38000193032360628DF809303846194BA56246
:104F480001A9E562C4F83080676084F8345003939F
:104F580001268DF808508DF80A5003F049FE606864
:104F68008DF8025069468DF803508DF800608DF871
:104F7800016003F00DFF6068314603F027FF6068A9
:104F88002946324603F0E6FE60683146324603F0B1
:104F9800E1FE054B204683F8185304B0BDE8F081C4
:104FA800908B011000CB280C00E100E008B5034A03
:104FB800406803F07BFD002008BD00BF00CB280C33
:104FC80038B505463820FEF753FC04492A460446FE
:104FD800FFF796FF024B1C6038BD00BF0010084069
:104FE80054D101102DE9F04188461146044602F0DB
:104FF800DBFF04F5D27604F51A77354630461C36C1
:1050080006F016FBBE42F9D11423C4F88032A4F886
:105018007A32052300266422A4F88432062384F811
:105028007662A4F87822C4F88C62C4F8A081A4F847
:10503800863284F888624FF47A70FEF71BFCA4F875
:105048006C62C4F86802A4F87C62A4F87E62284600
:105058001C3506F076FBBD42F9D12046BDE8F0814B
:105068006429C0F8803288BF64219DF80030A0F818
:105078007812A0F87A2280F888320020704713B599
:105088009DF8004061F302048DF80040BDF800402F
:1050980062F3CB04BDF80220ADF8004063F30902C7
:1050A800ADF80220BDF810201344BDF804200139E2
:1050B80063F309021C2303FB010000F5D270694663
:1050C800ADF8042006F08EFB02B010BD112A2DE9C0
:1050D800F0415BD990F87632002B57D1B0F87E4278
:1050E800B0F87422944254D2D0F87C322BB94AF6E4
:1050F800552321F8023B092400E008244AF65623E8
:105108000B80B0F87E32D0F870724FF00C0E0EFBA8
:1051180003F337F803C0A1F804C0B0F87E520EFBC1
:105128000575AB886A889A1A92B24A81B0F87E529D
:105138000EFB05752B89ED885B1B9BB28B81B0F844
:105148007E520EFB05756E8806EB5206B6B2CE800F
:10515800B0F87E520EFB05751A44ED8805EB530531
:10516800ADB20D81B0F87E820EFB087762447F896C
:10517800CF813A44B31815FA83F34B80B0F87E32E6
:105188000133A0F87E326000BDE8F0810020BDE860
:10519800F0811846BDE8F0810F2A2DE9F041B0F8FA
:1051A8007C3205460C4653D9B0F86C62B34206D33C
:1051B80090F888721FB1BDE8F041FFF787BF95F8F6
:1051C8007602002844D1B34243D22BB94AF655227D
:1051D80024F8022B082000E00720D5F868624AF678
:1051E800552203EB8303228036F81380A4F8048049
:1051F80002335900A1F1020C36F8133036F80C705E
:10520800DF1B01F1020EBFB2314467818B8836F88B
:105218000E10591A89B2A1817A1808EB020336F8E0
:105228000C2002EB5707BFB2E78017FA83F236F873
:105238000E3003EB51039BB2238113FA82F3638090
:10524800B5F87C320133A5F87C324000BDE8F08126
:105258000020BDE8F081F0B5024619B1B0F86C62E3
:10526800002040E0D0F88C02002841D1B2F86C72DE
:1052780003460546BD4212DAD2F868020A2101FB4C
:105288000501013588884E880C89861BC888201A34
:105298007043984284BFC2F88C120346EAE7B2F81A
:1052A80074720025BD4212DAD2F870020C2101FB9B
:1052B8000501013588884E880C89861BC888201A04
:1052C8007043984284BFC2F88C120346EAE7D2F8CA
:1052D8008C02F0BD0A244443D2F868522B192C5B87
:1052E8008C4204D00130B042F4DB0020F0BD1846F7
:1052F800F0BD10B5D0F868420C60B0F86C121160BF
:10530800D0F870221A60029BB0F874221A6010BD9F
:10531800002070B50346044604EB84069442B6B2F6
:1053280018D001EB460531F816602EB90130002B74
:1053380008BF2B4680B20AE04BB11E806E885E80A3
:10534800AE889E80EE88DE802D891D810A33013467
:10535800A4B2E1E770BD2DE9F74F02EB820293B2E8
:10536800002000930246009B9A4240D031F8123048
:1053780001EB4204002B37D0531D009D6688A78897
:10538800B4F806E0B4F808C001959BB2019DAB42A1
:105398002AD031F813804FEA430B01EB0B05B8F123
:1053A800000F1ED0B5F802A0B5F80490B5F8068035
:1053B8002D89564509D84F4507D3C64505D8AC456C
:1053C80003D3002521F80B5009E0B24509D8B945A7
:1053D80007D3F04505D8654503D30025258001305E
:1053E80080B205339BB2D1E7053292B2BBE703B076
:1053F800BDE8F08F2DE9F04F8BB002EB82020390ED
:1054080093B2002004930190049B019A9A4200F001
:105418009380019A019B31F812405B00002C00F048
:1054280083809C1C0D1931F804E005951C1D0D198D
:1054380031F804C006959C1D08330D19079531F8FD
:1054480003800C5BCD18134605339BB20293049B73
:1054580008950993029B099A934265D0029B4FEAEB
:10546800430931F8133001EB0907002B57D07D8829
:10547800BE88FB883F89754511D8039AB2F884B273
:10548800C6EB0E0ADA450ADC9C4201D8434503D92B
:10549800BC4204D8474502D8059B1D803AE06645C2
:1054A80011D3039AB2F884B2CCEB050ADA450ADCC8
:1054B8009C4201D8434503D9BC4204D8474538D853
:1054C800069B1E8026E0A34211D8039AB2F884B244
:1054D800C7EB040ADA450ADCAE4501D8654503D9AD
:1054E800B64504D8664502D8079A138012E04745A6
:1054F80015D3039AB2F884A2C8EB030353450EDC14
:10550800AE4501D8654503D9B64508D8664506D8DD
:10551800089B1F800023013021F8093080B2029BCC
:1055280005339BB2029395E7019A053293B2019332
:105538006AE7A342C9D9DCE70BB0BDE8F08F2DE9D3
:10554800F04F87B088880190C8884B880290B2F8DD
:1055580004905088098903911FFA89F59CB281B299
:105568000495B2F80880D58805950FFA84FA0FFAE1
:1055780081FCE245BDF80460BDF80870BDF80CE098
:10558800BDF814501FFA88F21DDB0FFA87FC0FFADA
:1055980085FAD44503DC0FFA8EFBDA450BDD0FFAEA
:1055A80082FAD4450ADC0FFA8EFBDA4503DD0FFADE
:1055B80085FAE24502DCC9EB03001AE00BB20FFAE8
:1055C80084FC634517DB3BB20FFA85FC634546DC78
:1055D8000FFA8EF9CC450ADD0FFA82F94B450ADC41
:1055E80012B20FFA8EFE724501DD9C4520DC019B4C
:1055F800C01A80B238E03BB22AB2934218DB23B219
:105608000AB2934202DC30B2824209DDBDF91000D1
:10561800834209DC0FFA86FE704501DD9A4203DCFD
:10562800029BC8EB0300E4E72DB23FB2BD4213DB97
:1056380024B209B28C4202DC33B2994208DDBDF9CA
:1056480010309C4208DC36B2B34201DDA14203DCD3
:10565800059B039A981ACCE747F6FF7004E00FFA07
:1056680082F94B45BCDDCAE700B207B0BDE8F08F50
:1056780070B50E46098804461546E1B11388E3B1B2
:10568800994228D090F88832022B04D194F88832B5
:10569800022B07D113E001F0070102F058FD0128A1
:1056A80019D1F3E72978204601F0070102F04FFDF0
:1056B800012810D103E0084670BD184670BD314678
:1056C80020462A46FFF73BFFB4F886128842CCBF33
:1056D8000020012070BD002070BD10B502203BB134
:1056E800948853884A88234493FBF0F3888806E01B
:1056F8001489D388CA88234493FBF0F3088910449B
:10570800C3EB600080B2030444BF404280B200B2E1
:1057180010BD000000000000F7B5CB8808890E46D0
:105728001844D18813890B445B10C3EB600007EE63
:10573800900AF8EEE77A174617EE900A08F04CFC44
:105748007B8872880446B8881844B38813445B1071
:10575800C3EB600007EE900AF8EEE77A0D4617EE05
:10576800900A08F039FC02460B46204629460EF0FE
:1057780087FE00220C4B08F083FC09A3D3E9002321
:1057880008F0A8FD08F036FF07EE900AFDEEE77A6C
:10579800CDED017ABDF9040003B0F0BDAFF3008090
:1057A800000000C0CA21094000806640AFF30080B5
:1057B8002DE9F04786B080469DF838A00D4616467C
:1057C80099460024B44201AF0CD00A2C0AD055F8EF
:1057D8002420404649465346FFF77FFF27F8140028
:1057E8000134EFE73A462B46002101204C1C1FFAF2
:1057F80084FEB64504D30028F4D006B0BDE8F0878F
:105808000929F8D0B2F800E032F8021F8E4581BFAE
:1058180022F8021C93E80300A2F800E0586084BF55
:105828001960002021460433E0E72DE9F04F0027F6
:10583800B2F900B08DB0B9463E465E453FDA51F840
:105848002600838844881C1B0389C0881B1A63436D
:10585800642000FB03F54FF4FA74B5FBF4F40194EB
:105868004FF4C8745C43B4FBF0F400201C44864633
:10587800764516D051F82EC0BCF80250BCF804A0EA
:10588800C5EB0A0ABCF80850BCF806C0CCEB050505
:1058980005FB0AFA019D554503D8A2459CBF013076
:1058A80080B20EF1010EDE45E2DBB8429ABF4346F4
:1058B80038464FF00109013698460746BDE7B9F169
:1058C800000F01D1A2F800900023B2F900E01E46B3
:1058D800764501DB002026E0092BFBD851F826404D
:1058E800A0886588E788451B2089C01B68434FF05E
:1058F800640C0CFB00F74FF4FA75B7FBF5F7474556
:105908000FD84FF4C8754543B5FBFCF528448045CE
:105918009FBF0CAD581C05EB830343F8284C98BF78
:1059280083B20136D4E7984206DA02AC54F8204034
:1059380041F820400130F6E713800DB0BDE8F08F44
:10594800F0B50023B2F900608BB01D461846B0428E
:105958009CB217DA0A2B14D051F820704DF8237036
:105968000130B0420BDA51F82040B7F800E0248843
:105978008EEA0404640702D101300125F1E70133FE
:10598800E5E71C464DB10023A34205DA5DF8230084
:1059980041F823000133F7E714800BB0F0BDF0B5F0
:1059A800D0F86852B0F86C620020B0420CDA0A24D1
:1059B800444301302B5B23F00707974202BF03F0F3
:1059C80007030B432B53F0E7F0BD2DE9F04FB0F878
:1059D8006C32D0F868720A2697B0044606FB037644
:1059E8004FF0000BB7423BD207F10A0807F1140544
:1059F800A5F10A02B24231D220463946FFF738FEF5
:105A080050B338F80A3C35F80A2C072B11D8072A66
:105A180017D80BF101021FFA82FB4FEACB0292B2B0
:105A2800134328F80A3C35F80A3C1A4325F80A2C8F
:105A380012E0072A05D823F00703134325F80A3C88
:105A48000AE035F80A2C072A06D9072B9EBF22F050
:105A58000702134328F80A3C0A35C9E74746C1E755
:105A6800D4F86892B14520D2CA463AF80A7B072F83
:105A780019D927F00707BFB2D046B04513D2B8F8F6
:105A88000050072D0CD925F00705ADB2AF4207D05D
:105A9800204649464246FFF7EBFD002840F0628168
:105AA80008F10A08E9E7D146DCE7D4F86832D4F807
:105AB800705203F5777309930023A4F87432012216
:105AC80013B25B45D4F8683200F32F8109998D42EF
