:020000041000EA
:100000000080002061120010790100107B010010B7
:100010007D0100107F010010810100100000000030
:10002000000000000000000000000000830100103C
:1000300085010010000000008701001089010010F8
:100040008B0100108B0100108B01001000000000DC
:100050008B0100108B0100108B0100108B01001030
:10006000659900108B0100108B0100108B010010AE
:100070008B0100108B0100108B0100108B01001010
:100080008B0100108B010010E91800108B0100108B
:100090008B0100108B0100108B01001081280010D3
:1000A000E12900108B0100108B0100108B01001062
:1000B0008B0100108B0100108B0100108B010010D0
:1000C0008B0100108B0100108B0100108B010010C0
:1000D0008B0100108B0100108B0100108B010010B0
:1000E0008B0100108B0100108B0100108B010010A0
:1000F000000000008B0100108B0100108B0100102C
:10010000000000008B0100108B0100108B0100101B
:100110008B01001078C2011078C201106009000044
:1001200070A00110000000200000000070A001106D
:10013000000008100000000070A0011000800020E6
:100140000822000078C2011000C00020000000005A
:1001500000D0011048130000000000200000000043
:10016000000008100000000008A2002000000000AD
:1001700000C0002000000000FEE7FEE7FEE7FEE70B
:10018000FEE7FEE7FEE7FEE7FEE7FEE710B50B46FB
:100190005C1A944204D2441AE45843F8044BF7E73B
:1001A00010BD03461A1A8A4203D2002243F8042BD8
:1001B000F8E7704700207047002070470020704724
:1001C000002070470020704708B501200321F0226D
:1001D000022306F0C5FD064B04229A624FF48062AA
:1001E000C3F81822A3F5003308225A60002008BD86
:1001F0000010104010B5054B00245C600120032165
:10020000F022052306F0ACFD204610BD00100E4084
:100210001D4B70B50021054618681C4E02F0A8FD64
:10022000044638B32A7902234AB141888288521A97
:1002300092FBF3F30B441B044FF4A07209E0C18856
:100240000289521A92FBF3F3C3F1C8035B1A1B0431
:10025000C822B3FBF2F34FF6C0721A400C4B1A607F
:100260006B7913B9642007F0A7F94FF48063C6F8DF
:10027000143203E0064BC6F814021860003418BFAD
:1002800001246C71002070BD04D0011000101040DA
:1002900000100E40034A02600122027100224271E6
:1002A000704700BF605C01100171704708B50820FD
:1002B00000F07CFF044B03600123037100234371B2
:1002C000024B186008BD00BF605C011000D0011037
:1002D00000B52DED028B814208EE103A0B4628BF87
:1002E000034687B0934228BF13460390C01A029179
:1002F0004043C91A019201FB0101D21A02FB02100C
:1003000007EE900AF8EE677A17EE900A0CF016FEE8
:1003100013F07AFC0DF078F81E2804D8092803D8C9
:100320000023059310E01E20DFED1E7AB8EE488A08
:1003300028EE278A07EE900AF8EEE77A28EE278A59
:10034000BCEEC88A8DED058A059BB3F57A6F88BF30
:100350004FF47A6305A888BF059306F017F8029951
:10036000019A039803F0FBFC03F024FD03A902AA01
:1003700001AB03F002FD039B8DF81130029B8DF859
:1003800012300DF11100019B8DF813300DF11201A7
:100390000DF1130205F0D0FF07B0BDEC028B5DF844
:1003A00004FB00BF8FC2753C7047000000B593B0DE
:1003B0000023069340201023079300F0F9FE031D4D
:1003C00000F14401002223F8022C23F8042C04330A
:1003D0008B42F7D1174B089018681749A023ADF846
:1003E00024306423ADF8263009AA06AB05F017FEC9
:1003F00003230093114B04211B680A4606A800F052
:10040000FBFD06AA0C4909A805F0BEF905A909A833
:1004100005F030FA02A903AA04AB03F0AEFC02A86F
:100420000FC8FFF755FF089808B100F0C5FE13B0DC
:100430005DF804FB04D00110DCD001105CD1011088
:1004400013B501A80C4607F00BF9019807F00EF957
:10045000A042FAD307F0C0FD02B010BD13B50446A8
:1004600002A8002340F8043D05F07AFF20464EF62E
:100470006021FFF7E5FF6078034B03EB800005F098
:100480006FFF02B010BD00BF1065011037B500242A
:1004900005464470047202A840F8044D05F060FF60
:1004A0002C7003B030BD10B50446FFF7EFFF2046B7
:1004B00010BD000073B505460E460024B44217DA9D
:1004C00002A8002340F8043D05F04AFF4EF66021E3
:1004D0002846FFF7B5FF074B687803EB800005F06F
:1004E0003FFF28464EF66021FFF7AAFF0134E5E7FB
:1004F00002B070BD106501101FB5A0220023044694
:10050000ADF8082064220393ADF80A20009303A8F5
:10051000611C02AA0DF10A0300F0CCFD002808DBE3
:10052000054B0121186801F039F920460421FFF735
:10053000C1FF04B010BD00BF5CD101104378072B90
:1005400001D8FFF78BBF70470129F8B504460F4665
:1005500047DD07F047F8054607F03EFD2678012EF7
:1005600009D002D3022E18D037E0201D07F078F80A
:10057000012323702DE04DB1201D07F071F8667046
:100580002046FFF76BFF02232370E2E7606807F065
:100590006DF8154B9842DCD901E04DB965782046DD
:1005A0000421FFF787FF2046FFF770FF2846F8BDBC
:1005B000606807F05BF80D4B9842CAD9201D07F020
:1005C0004FF863780133DBB27A1C934208BF0123F2
:1005D00063702046FFF7B2FFBBE72046FFF756FFE8
:1005E000B7E70020F8BD00BF60E3160040420F00EF
:1005F00030B5044689B006F0F5FF237A05460BB303
:100600004FF4A072ADF81A20C822ADF81C2007AA3A
:100610000092694A212312688DF815300023ADF845
:100620001630ADF81830019202930DF115000DF15E
:10063000160106AA0DF11A0303F04CFE2046FFF73F
:10064000B5FE1FE02278EAB1ADF81630ADF81830EB
:100650004FF4A073ADF81A30C823ADF81C3007ABC7
:100660000093554B1B680193212201238DF815201F
:1006700002930DF115000DF1160106AA0DF11A03F2
:1006800003F028FE2378052B00F28D80DFE803F0CD
:1006900003193159678A002D00F08880201D06F06B
:1006A000DFFF464B08AD1B8845F8043D284605F0A2
:1006B0006DFE0123237028460023079305F050FEAA
:1006C00074E00DB9257071E0606806F0CFFF3C4B17
:1006D00098426BD903F0B6FB10B10123637000E0C0
:1006E0006070201D06F0BCFF2046FFF727FF0223A5
:1006F0002CE095B920460321FFF7DCFE201D06F013
:10070000AFFF627801232AB908A800F8043D03F07E
:10071000E1FC00E02372032318E0606806F0A6FF06
:10072000284B984242D9201D06F09AFF6378013386
:10073000DBB2082B08BF002363702046FFF7FEFEE4
:1007400034E02DB1201D06F08BFF042323702DE033
:10075000606806F08BFF1C4B984227D923E07DB9D7
:1007600063784BB908A800F8045D03F0B3FC204699
:100770000421FFF79FFE16E02046FFF7BDFE12E0C2
:10078000606806F073FF0E4B98420FD9637823B967
:1007900008A800F8043D03F09DFC2046FFF776FE14
:1007A0000523D3E715B92046FFF770FE2078003007
:1007B00018BF012009B030BD5CD1011010D001106C
:1007C000D012130040420F000087930330B5046835
:1007D000013A234608681D1B854204D212F8010F16
:1007E00003F8010BF6E730BD07B5002201A9054863
:1007F00007F0C8F9044B0199186805F00DFB03B028
:100800005DF804FB205D011004D0011013B5074C06
:1008100007482146002207F0B5F902A8238840F8CE
:10082000043D05F0B3FD02B010BD00BF10D00110B3
:100830003A5D011008B50278532A0B4608D1817A37
:100840000D4A303910681A68C9B205F0DDFA06E0C1
:100850004D2A04D1084A0968106805F0E1FA00F051
:1008600083FF38B1044B186805F0B2F9BDE80840C1
:1008700000F084BF08BD00BF04D00110024B026825
:100880001A600020704700BF08D0011030B5012465
:100890008BB01049224602A80DF028FD02A8694637
:1008A00001AA002307F06EF9002810DB0A4D019A17
:1008B0002868E1B2013405F061F9082CE9D1286813
:1008C00005F086F9054B186807F0AFFE00200BB065
:1008D00030BD00BF495D011004D001100CD00110E3
:1008E000F0B597B0074618881C9B1288ADF80C200D
:1008F0000C4619881D9BADF80E001B88ADF8123010
:100900002378ADF810105A1E062A37D81D4E3268CB
:100910002AB91D4807F0E6FB6FF0010030E01B4DDF
:1009200003AA2868314605F003F92178286805F004
:100930001DF93B68C361054603AA31460DA804F0C2
:100940000AFF00210DA804F095FFA8612278104944
:10095000002405A80DF0CAFC812120222B4600941A
:1009600005A807F0F3F8FFF791FF0A4807F0BAFB74
:100970001E98012100F012FF204601E04FF0FF30E9
:1009800017B0F0BDDCD00110555D011004D001108E
:10099000495D01106E5D011070B5037892B0013BA6
:1009A0000024062B05460E4611940F940E940D94C8
:1009B0000C940B940A941BD8214620220AA80DF00F
:1009C0000FFC0D492A7802A80DF090FC812120220D
:1009D0000AAB009402A807F0B9F80446FFF756FFE7
:1009E000FFF754FF3046012100F0D8FE204601E019
:1009F0004FF0FF3012B070BD495D0110F0B593B0FB
:100A000012AD002145F8201D0746202228461191ED
:100A10000F910E910D910C910B910DF0E1FB0124C2
:100A20000D49224602A800260DF060FC009602A89F
:100A3000812120222B4607F089F8002809DB0134A8
:100A4000082CEDD1FFF722FF3846012100F0A6FE69
:100A5000304613B0F0BD00BF495D0110000000003A
:100A600070B5B6B0002314931293119310930F93A3
:100A70000E930D9301252A467749784E15A80DF05F
:100A800035FC2A4676491DA80DF030FC20230024B1
:100A900000930DAB0193012181231DAA029415A897
:100AA00007F098F82A466F4915A80DF01FFC2A4652
:100AB0006D491DA80DF01AFC6C4B02940022CDE983
:100AC00000234FF4807114231DAA15A807F082F8A3
:100AD00007A9224615A807F055F8E9B23068079A29
:100AE00005F092F9013515A8614907F0DDF8082DE8
:100AF000C1D155A3D3E900230294CDE900234FF4DB
:100B000080715C4A5C48142307F064F858495A48DD
:100B100007F0CAF84EA3D3E900232146CDE900230C
:100B20000294564A5648142307F054F801238DE8DE
:100B300018002146534A544807F04CF84FF4FA6322
:100B40008DE81800514A524804234FF4807107F091
:100B500041F850494E4807F0A7F840F2EE238DE8DF
:100B600018004D4A4D4802234FF4807107F032F8C7
:100B70004FF47A754A49494807F096F8009521469E
:100B80000194484A4848022307F024F8009521467A
:100B90000194464A4648474D022307F01BF81423A8
:100BA0008DE8180021460423434A444807F012F810
:100BB00006A922463C4806F0E5FF0DF11A0122463F
:100BC0003B4806F0DFFF08A922463C4806F0DAFF62
:100BD0000DF1170122462C4806F0D4FF0AA922463F
:100BE000254806F0CFFF0BA92246254806F0CAFF8C
:100BF00009A92246264806F0C5FF2946224627486D
:100C000006F0C0FF9DF81730BDF81A20BDF8181087
:100C100000933068089B01F099FF30680A9905F04D
:100C2000FFF830680B9905F00DF90999306805F067
:100C3000F3F836A82B8840F8A83D05F0A7FBFFF78E
:100C400025FE36B070BD00BF000000A09999B93FE5
:100C5000000000C0CCCCFC3F495D011004D0011065
:100C60007E5D0110915D0110A45D01100000044043
:100C7000350800100A5E0110FB5D01107F5E011057
:100C8000695E0110EB5E0110DB5E01104E5F01102A
:100C9000205D0110E9070010D85F01103A5D0110D6
:100CA0000D080010856001107A600110E5600110E8
:100CB000CC60011010D0011053610110446101108B
:100CC00070B50546042000F071FA124C064607F094
:100CD00041FC4FF42470266000F068FA0E4A216847
:100CE000064601F0F5FE0D4B0D491E60284603F047
:100CF00056FD0C4B0C491868002204F00DFB0B4B01
:100D00000028188003DBFFF7ABFE002070BD4FF01A
:100D1000FF3070BD0CD001100010091004D001107C
:100D2000785C011060D10110C961011078C2011016
:100D3000F0B58BB007460AA801254FF0FF3300F845
:100D4000055D0E461446099303F002FA00281ADBEB
:100D50000E4B0F48B3F9002000970423019302962D
:100D600054B1002109AC03910494059106910068E7
:100D700004F0C5FA099806E0039404940068294633
:100D800004F0BDFA20460BB0F0BD00BF78C20110E0
:100D900060D101102DE9F04FDFF8C8802C4D8FB0E5
:100DA000002402264FF0410B4FF0B10A64230B914F
:100DB0004FF4803241468DE8100802940396049463
:100DC00005960694CDF81CA008940994814603F07A
:100DD0008CFF0746286807F028FC1E491E480122A0
:100DE000FFF7A6FFC7F58033DB0807F180511A46ED
:100DF0000D9001F5002128680C9307F0DBFB174AE2
:100E000005460121106804F078FB154A0B9B0293FC
:100E10008DE804080C9B03964FF4A072ED00049239
:100E2000C822069241461A4605966423CDF81CA0B6
:100E300008950994484603F058FF48464146EA1988
:100E400003F019FCDDF834C060460FB0BDE8F08F48
:100E50000CD00110001009100000091060D1011021
:100E600043435132000008100121FFF793BF0000F7
:100E700010B58CB041240193422302930493C823FC
:100E80000593822306930A2300945A434FF4A074D7
:100E90000394520800240792089109940A94214669
:100EA0006422034B03F0CFFD20460CB010BD00BF01
:100EB0004343423130B58FB0412400949DF84C40FB
:100EC0000194422402940494C82405940A246243A1
:100ED00008915208129907920C224FF4A0754A43C8
:100EE00000240395520882250A920B9306950995D2
:100EF0000C940D9421466422024B03F0A4FD20467D
:100F00000FB030BD4343423208B5000244F62063BF
:100F1000B0FBF3F0C0B107EE900AF8EEE77A17EEF7
:100F2000900A0CF00BF812F0EFFD0022074B0CF0CA
:100F300059F80CF069FAFF2803D8002808BF0120EF
:100F400000E0FF20C0B208BD012008BD00004940FC
:100F500030B5284C85B02068002101F009FF002839
:100F600042D00388072B9FBF216803F1FF3214236F
:100F700003FB0213428898BFD3F8F0508388A3EB99
:100F800002030289C088A2EB000000FB03F088BFC7
:100F90006FF07F45FFF7B8FF02AA044601A9284673
:100FA00003AB02F0EAFE039A12B16243120A013265
:100FB000029B039213B163431B0A0133019802930E
:100FC00010B16043000A013001908DF801008DF8E6
:100FD00003200DF101000DF102010DF103028DF866
:100FE000023005F0A9F903E0039003A805F0B8F971
:100FF00005B030BD04D001102DE9F04F91B0064688
:1010000089460F929DF868A01D46002B4BD0022404
:1010100000234FF0410BB2278DE808080293049398
:10102000069308930A930C930D93039464230594F9
:10103000079409940B9728461C494FF4903203F00B
:1010400054FE3268B168804600F18050A24000F53D
:1010500000200DF02BF8164BCDF808A08DE80808FD
:101060004FF4A0730493C82306930F9B0A9333682D
:101070000394A3405B080C9305940794CDF820904B
:1010800009940B97284609494FF49032642303F0E2
:101090002CFE32680549284608EB820211B0BDE8F3
:1010A000F04F03F0E8BA11B0BDE8F08F000008106F
:1010B000424C54312DE9F04796B09A4600230293F2
:1010C0008046102340200E460393914600F070F8AE
:1010D000011D00F14403002421F8024C21F8044CC6
:1010E00004319942F7D1317804904B1E062B48D831
:1010F000294F3B682BB9294806F0F4FF6FF0010433
:1011000041E0274DBAF80030B9F800200091ADF861
:101110003420ADF836300DAA02AB3946286805F008
:1011200050F83178286804F021FDD8F80030C36108
:10113000054602AA39460DA804F026FB21460DA853
:1011400004F098FB04210323A8610A46009302A837
:101150001E9BFFF751FF3278124905A80DF0C6F823
:10116000812120222B46009405A806F0EFFCFFF712
:101170008DFB0D4806F0B6FF1E98012100F00EFB16
:1011800001E04FF0FF34049808B100F015F8204654
:1011900016B0BDE8F08700BFDCD00110555D01102E
:1011A00004D00110495D01106E5D01100CF0AEBC61
:1011B0000CF0ACBC0CF0B2BC0CF0B0BC0020704722
:1011C000FEE70000012884B03CD870B91E4B1A68B5
:1011D0000092009AD20117D5009AD24342F0807251
:1011E00001921A4A01981060F1E7194B1A680092AF
:1011F000009AD00417D5009AD24342F4805201924B
:10120000144A01981060F1E7134A11601A680292BB
:10121000029AD10116D4029AD24322F0807203922C
:1012200003990A4AF1E70D4A11601A680292029A7C
:10123000D20407D4029AD24322F480520392039933
:10124000044AF1E704B070475431054004310540C9
:101250005031054000310540043404400833044057
:1012600010B572B61B4B1C4A1A601C4A5A601C4AC5
:101270004FF0FF33136053609360D3601361536189
:101280009361D36162B6174C174B9C4207D294E826
:1012900003000C3454F8042CFEF778FFF4E7134BEA
:1012A0009C4206D254F8080B54F8041CFEF779FF50
:1012B000F5E7DFF84400016841F4700101600C4B70
:1012C0001A680AB10B4A13600CF0F8FB00F0BAFB85
:1012D000FEE700BF003105400010DF10FFF7DF011F
:1012E00080E200E0140100105001001078010010AD
:1012F0000000001008ED00E088ED00E0014B002048
:101300001870704744D00110034A01231370034A38
:1013100000201370704700BF44D0011018D0011096
:1013200037B500240C4D0094214601940B4A0C481B
:10133000012306F04FFC2146009401942846094AF7
:10134000012306F047FC08492846224603B0BDE8C1
:10135000304006F017BC00BF766601102066011011
:10136000106601107C66011019D0011013B50378C6
:1013700033B1082B2AD8013B164A52F823302BB33D
:10138000154B00221A600478B4B90DF1070122460A
:10139000124806F0F7FB9DF807104A1ED3B2072B40
:1013A00006D80C4951F822204AB10D4A137006E0C4
:1013B0000B48047019B1F4E7094B013C1C70094A51
:1013C00001231370084A0020137001E04FF0FF3032
:1013D00002B010BD24D0011014D00110106601100D
:1013E00021D0011044D0011018D0011010B50C46C6
:1013F000FFF7BCFF0028A1BF024B22681A60002043
:1014000010BD00BF14D0011010B50024064B53F8D6
:10141000243033B10134054821460CCB06F062FE7E
:10142000F4E7184610BD00BF24D00110B9660110C2
:101430007FB50B49034608688988049004AAADF873
:10144000141043B1002100921846019102918222AA
:10145000062303F0F8FA002007B05DF804FB00BF94
:101460003065011030B50388112B85B012DCA1B1B5
:101470000B4D05EBC300002440680190A1220846F3
:10148000009202940394214655F8333003F0DBFABE
:10149000204603E04FF0FF3000E0084605B030BDC5
:1014A000306F0110044B187828B9044B1B78002BBF
:1014B00014BF02200020704718D0011020D0011066
:1014C00038B504460C20FFF771FE0546FEF7EBFF2A
:1014D0000F4B10491D6020460F4C03F060F9206847
:1014E0000E49002203F018FF0D4B0E491880002210
:1014F000206803F011FF0C4B0C4918800022206873
:1015000003F00AFF0A4B1880FFF70AFF002038BDDE
:101510001CD001103865011060D10110C5660110A2
:101520007EC20110C96601107AC20110D166011095
:101530007CC20110064B09B1D86107E053F82120A5
:101540000AB10131FAE7024B43F82100002070474D
:1015500024D0011010B50B4B88B0B3F900200090D7
:1015600007AB00210293084B0191039104910446BB
:101570001868012303F0C3FE044B07981C7008B0E1
:1015800010BD00BF7EC2011060D1011012D0011049
:101590007FB5084BB3F9002005AB00210093064B43
:1015A0000191029118680B4603F0A9FE059807B057
:1015B0005DF804FB7CC2011060D101107FB5094BBE
:1015C000B3F9002005AB00210093074B0191029174
:1015D00018680B4603F093FE9DF8140007B05DF801
:1015E00004FB00BF7AC2011060D1011007B50023CF
:1015F000D9B2094A52F821200133002AF8D1074B09
:101600001868FEF7A1FF02AB03F8010D1846FFF7BB
:10161000ADFE03B05DF804FB24D001101CD0011016
:1016200008B5FFF71DFA00F0EFFE02F0A9FE07F083
:10163000D3F800F02BFDBDE80840FFF771BE0000B5
:1016400008B506F0C9FC074B1868FEF7D1FF064B3A
:10165000187006F021FB18B1BDE80840FFF7E0BFA5
:1016600008BD00BF1CD0011020D0011073B5FFF7DA
:10167000BDFF00252C46344B186802F085FF064656
:10168000FFF7DEFF042C07D8DFE804F0091D2F3533
:101690003E002E4B1B78F3B903243546EBE72C4B69
:1016A0001B7823B902A840F8043D04F059FE294BE9
:1016B0001A78294B53F822309B6898470028B4BF0A
:1016C00003240124E9E7254B1B78002BE1D0FFF729
:1016D0005FFF0224E1E71F4B1A781F4B53F82230BB
:1016E000DB689847002822DAD6E71C4B1B78002BD2
:1016F00008BF0024D1E7154A00231370184A0424B8
:101700001370FFF745FFC8E7104B1B781BB1FFF7BD
:10171000FBFD0024C1E71EB1124B1B78002BBCD18E
:1017200002A8002400F8044DFFF720FEB5E7002DC5
:10173000B3D0002EB1D105F0D5FF02A8344600F891
:10174000046DFFF713FEA8E75CD1011044D001102F
:1017500054D0011021D0011024D0011020D001104C
:1017600018D0011034DD011010B5FFF727FF044633
:1017700008B1FFF70DFF204610BD000008B5054B6E
:10178000186806F052FF044B1878BDE80840FFF7D0
:10179000E1BE00BF0CD0011012D001101FB548B13E
:1017A0000423009300230191029318216422034B28
:1017B00003F049F905B05DF804FB00BF455654310C
:1017C000C269006A101A704770B50346002494423B
:1017D00017D0D8691D6A401B002801DC224610E0A2
:1017E00058691D69461C5E61285C0855186A5D6968
:1017F00001301862D868854204BF00205861013466
:10180000E5E7104670BD0000034B4FF48022C3F89B
:1018100080200020704700BF00E100E0826838B5FA
:10182000536803F0F803982B044651D00BD8802B53
:1018300018D003D8602B4BD0702B11E0882B47D0E9
:10184000902B0FD048E0B82B24D004D8A02B3FD049
:10185000A82B1FD040E0C82B3AD0F82B38D0C02B93
:101860003AD135E09368216AE269511AE268521A66
:10187000002ADBB226DDA2692169501CA0618B54CD
:10188000E369A2690133E361E3689A421AD1002354
:10189000A36117E0237913B10023936022E0256B45
:1018A00035B9636BA06A616A98472063B8B1E56295
:1018B000E36AA26A591CE162D25C236B013B236399
:1018C000A3689A60A36804221A6008229A6138BD4E
:1018D00004231360082300E02C23936138BDA36820
:1018E000986001232371EDE7014B1868FFF796BF5D
:1018F00048D00110836838229A6144221A607047E8
:1019000038B503210546F0220120002305F028FA0E
:1019100002200121F022042305F022FA02200121F5
:10192000F022042305F01CFA01200421F0220023F8
:1019300005F016FA00210220F022042305F010FA27
:10194000064B0024C3F81842054B2C714FF480223B
:1019500028461A60FFF7CEFF204638BD0010104021
:1019600000E100E008B583681B685B0701D4FFF75E
:10197000C1FF002008BD13B58DF8051002A9002491
:1019800001F8044D80688DF8074005F059F92046AC
:1019900002B010BD2DE9F84320269946134B036091
:1019A0000446C66030460F469046FFF701FC00250E
:1019B00020616561A561E561256266623046FFF7D9
:1019C000F7FBE562A06225633846C4F83490A7604F
:1019D000074904F0FDFD20464146FFF7CCFF054BCB
:1019E00083F817532046BDE8F88300BFC86F011085
:1019F000A086010000E100E038B505463820FFF779
:101A0000D5FB2B46034954220446FFF7C3FF024B84
:101A10001C6038BD00100A4048D0011010B50446C3
:101A20008CB00B462246684605490CF05FFCE0B2DC
:101A30004FF47F016A4605F01FFE0CB010BD00BFD9
:101A4000E06F011010B50E4C06F0D4FA2068FFF7D5
:101A500037F900F02DFD2068FFF732FD002109481D
:101A6000FFF768FD00F012FB00210748FFF762FD59
:101A700001210648FFF75EFDFFF7F8FD002010BDCD
:101A80005CD1011080C20110A4C20110B4C20110C7
:101A900013B502AC012304F8013D204602F058FBC7
:101AA0000B4B186804F094F80A4B186806F0BDFD5B
:101AB0000020FFF74FFD00F015FD036821469B68ED
:101AC000012298470028F6D1034B187002B010BDD0
:101AD00004D001100CD001104CD001102DE9F341BD
:101AE00000F000FD0A260446454D2F78012F07D04F
:101AF00002D3022F17D079E0424BFF221A7073E015
:101B0000236820469B6869463A46984700286FD06C
:101B10003C4A9DF8001013783B48117041EA0323BA
:101B20000380022363E0384B1B88FF2B26D12368F8
:101B30002046DB68984703285ADD23683A469B68AD
:101B400001A92046984723683A4602AF9B680DF1E9
:101B500006014FF000082046984707F8058D01A9B7
:101B6000384606F07DFD012338460DF106018DF85B
:101B7000033006F075FD85F8008039E0FE2B0AD1B0
:101B8000236820469B6869460122984780B36846CF
:101B900002F0D6F92AE0FD2B26D123682046DB6827
:101BA0009847022824DD23680DF101019B6801227A
:101BB0002046984723680DF102019B6801222046C8
:101BC000984723680DF103019B680122204698473E
:101BD0000DF103020DF101000DF1020104F0ACFB67
:101BE0000A4B01221A7001E0012300E000232B7050
:101BF000013E16F0FF067FF477AF02B0BDE8F0813A
:101C00004CD001104DD0011090C2011054D00110E1
:101C100010B5204C86B0206801F084FF00280BDA54
:101C20001D4B1B78002B32D01C4B1D4819684A1CD9
:101C30001A6006F057FA2AE0FFF750FF05AB009351
:101C4000206802A904AA03AB01F0E0F8059B009309
:101C500001230193134B0299049A1868039BFFF721
:101C600029F900F03FFC03681B6998470E4B1B786D
:101C70000BB9FFF76DF90D4B1B681B689A88DB8861
:101C800092B29BB29A4202D1FFF728FFF3E70020FD
:101C900006B010BD04D0011019D0011050D00110B1
:101CA000F86F01105CD1011054D001100CD001105C
:101CB000002801DD1E3001E018BF1E3800F5FA7063
:101CC00020EAE070B0F57A7FA8BF4FF47A707047D1
:101CD00082604FF0004241600260704710B50468B6
:101CE000B4F1004F12D0836842680C1B634302FBBF
:101CF00001324FF47A7392FBF3F3064A9342B8BF72
:101D00001346B3F5FA7FA8BF4FF4FA730160184683
:101D100010BD00BF0CFEFFFF4160826070470000F5
:101D200073B50446C1F182011648FFF7D7FFC4F12D
:101D3000A00106461448FFF7D1FF02250023044600
:101D4000301A90FBF5F08DF80530FFF7B1FF0DF17B
:101D50000601ADF806000DF1050006F081FC012337
:101D6000301990FBF5F08DF80530FFF7A1FF0DF16C
:101D70000601ADF806000DF1050006F071FC02B099
:101D800070BD00BF58D0011064D0011070B5234C55
:101D900086B0206801F0C6FE2068002100F0E8FF50
:101DA00005AD88B142888388C6889B1A022193FBBF
:101DB000F1F31A4403899B1B93FBF1F1314490B278
:101DC00089B2FFF7ADFF12E08DF810004FF4FA76FC
:101DD000294604A8ADF8146006F042FC012304A8CB
:101DE00029468DF81030ADF8146006F039FC2068F3
:101DF000009502A904AA03AB01F008F8059B009323
:101E000001230193064B0299049A1868039BFFF77C
:101E100051F8FFF79DF8002006B070BD04D0011006
:101E20005CD101102DE9F043DFF8BC80254F264A34
:101E3000264E85B000244FF4FA75009521464FF4E4
:101E4000487901944046042305F0C4FE2146CDF8AC
:101E50000090019438461E4A042305F0BBFE00950D
:101E60001C4D0194214630461B4A042305F0B2FE66
:101E700004232146CDF8009001942846174A05F026
:101E8000A9FE02A92246404605F07CFE03A922468F
:101E9000384605F077FE124B029A5A60039A9A6010
:101EA00002A92246304605F06DFE2246284603A9C7
:101EB00005F068FE0B4B029A5A60039A9A6005B0CF
:101EC000BDE8F0837170011036700110BE70011012
:101ED0008470011007710110CE700110177101108C
:101EE00058D0011064D001102370011073B502ACFA
:101EF000012604F8026D204602F02AF94FF4FA7523
:101F0000FFF790FF002321460DF105008DF8053005
:101F1000ADF8065006F0A4FB0DF1050021468DF842
:101F20000560ADF8065006F09BFB074B1B680BB134
:101F3000FEF7ACFC054B186806F077FB0020FFF7B6
:101F400009FB002002B070BDDCD001100CD00110E4
:101F5000094B4FF4FA725A604FF448729A604FF08E
:101F600000421A60054B4FF42F7159604FF46171B4
:101F700099601A60704700BF58D0011064D00110FA
:101F800030B503614FF4FA754FF0004305600172FC
:101F9000C260436030BD4368B3F1004F37B50446BB
:101FA0000D461BD0CB1A0169C2684B4302FB0532B8
:101FB00003684FF47A7192FBF1F213448B4201DD16
:101FC000016003E0002BB8BF00230360204602A994
:101FD00050F8083B21F8023D06F042FB656003B073
:101FE00030BD000030B51D4D87B0286801F09AFD66
:101FF0002868002100F0BCFEC0B1C3880489428873
:10200000E41A022194FBF1F41C44838814489B1ABF
:1020100093FBF1F11144A4B289B2C1F1A001643C77
:10202000FFF7B9FF0F482146FFF7B5FF05AB009357
:10203000286802A904AA03AB00F0E8FE059B009300
:1020400001230193084B0299049A1868039BFEF739
:1020500031FFFEF77DFF002007B030BD04D0011036
:1020600070D0011084D001105CD1011007B502A915
:102070004FF4FA7340F8083B21F8023D06F0F0FAFD
:1020800003B05DF804FBC160026170472DE9FF41B8
:10209000DFF8C080264F274A274E284D00244FF4F2
:1020A000AF738DE8180040468021042305F092FDAF
:1020B0004FF416738DE8180038468021204A042317
:1020C00005F088FD4FF4FA738DE818003046802142
:1020D0001C4A042305F07EFD4FF42F738DE8180091
:1020E000284604238021184A05F074FD02A92246DF
:1020F000404605F047FD03A92246384605F042FD5B
:10210000124B029ADA60039A1A6102A922463046FB
:1021100005F038FD2246284603A905F033FD0C4B97
:10212000029ADA60039A1A6104B0BDE8F08100BF38
:10213000B071011076710110F37101103A72011043
:10214000BB710110FF7101104672011070D00110B7
:1021500084D001106B71011007B502A8012300F8AB
:10216000013D01F0F5FFFFF791FF0B48FFF77EFF00
:102170000A48FFF77BFF0A4B1B680BB1FEF786FB93
:10218000084B186806F051FA0020FFF7E3F9002029
:1021900003B05DF804FB00BF70D0011084D00110C3
:1021A000DCD001100CD001100C4B002119724FF43F
:1021B00048714FF4FA7219614FF000411A60DA6009
:1021C0005960074B1A6001221A724FF42F72DA60BD
:1021D0004FF461721A615960704700BF70D00110EE
:1021E00084D00110002070472DE9F041434B444C4E
:1021F000196801298EB01AD1424A029041238DE814
:102200000C00022303930593B1234FF4A078C82751
:10221000079300264FF47A430893CDF81080069771
:102220000996206838494FF49032642330E0A1F1D8
:102230006403632B43D80A2691FBF6F206FB1212C5
:1022400030321206642342F4B04242F0450291FB60
:10225000F3F503FB1511B1FBF6F1303142EA01420F
:10226000009241220192022203920592B122029031
:102270004FF4A078C827079200264FF47A422068CE
:1022800021490892CDF81080069709964FF49032B4
:1022900002F02BFD054600F18050C5F590318DE828
:1022A000400102972122334600F5002001F0A4FFEF
:1022B0002068154905F57A4202F0DDF91BE021237B
:1022C0008DF82F300023ADF83030ADF832304FF4B8
:1022D000A073ADF83430C823ADF836300DF13603B5
:1022E0000093236801930DF12F000CA90DF1320228
:1022F0000DAB02F039F80EB0BDE8F08114D001103A
:102300005CD10110434D5632000008107FB5134BCD
:102310001B68E3B9ADF81030ADF812304FF4A0737C
:10232000ADF81430C823ADF816300DF11603009344
:102330000B4B21221B688DF80F2001930DF10F002C
:1023400004A90DF1120205AB02F00EF802E0012023
:10235000FFF74AFF002007B05DF804FB14D001101E
:102360005CD1011008B50A460349034608681946BE
:1023700000F09FFC08BD00BF04D00110052838B54F
:10238000054631D81A4C206810B103685B6898473D
:10239000184B1D70013D042D1AD8DFE805F0030825
:1023A0000A0D1100144B18682060002114E0134B33
:1023B00000E0134B1B6809E0124D0121286802E080
:1023C000104D28680021FDF76FFF2B68236005E0A2
:1023D000094B18682060012100F052F92068036859
:1023E0001B689847002038BD4FF0FF3038BD00BF54
:1023F00098D001109CD00110A0D0011048D001103D
:10240000A4D0011000D00110F0B5214F214E224A76
:10241000224D85B0002421460094019438460123C2
:1024200005F0D8FB54238DE81800304610211C4AD3
:10243000012305F0CFFB4FF496438DE818002146A9
:1024400004232846174A05F0C5FB0DF10A01224670
:10245000384605F097FB9DF80A00FFF78FFF2246EC
:102460000DF10B01304605F08DFB0F4B9DF80B1065
:102470001868FFF780FA03A92246284605F082FB78
:102480000A4B0399186800F007FB05B0F0BD00BFC8
:10249000CE7201107B730110DC720110DC7301102D
:1024A00087730110EA73011048D00110A4D0011005
:1024B00010B5084C2046FFF79FFA204600F042F97D
:1024C000204600F0F3FAFDF7F1FEFFF79DFF002034
:1024D00010BD00BF65230010014B1878704700BF86
:1024E0009CD00110014B1868704700BF98D00110B4
:1024F00042698069101A7047F0B50346002494427F
:1025000016D09D695869401B002801DC22460FE067
:10251000DE689F680135701C37F816609D615D6844
:10252000D860A84204BF0020D8600E550134E6E709
:102530001046F0BD044B0020C3F81802034B4FF4C3
:102540000002C3F8802070470010104000E100E056
:102550000C4B4FF48042C3F8142296220A490868B3
:1025600040070BD4013AF9D1C3F8142210220868AD
:10257000400703D4013AFAD1012070470020C3F884
:10258000140270470010104014610F4037B5054623
:1025900090F83D00D0B10E480421002204F029FD3E
:1025A00001A805F05DF82846FFF7D2FF044630B9D0
:1025B000019805F05BF8074B9842F4D900E001243C
:1025C00003480421012204F014FD204603B030BD6D
:1025D00000500C4020A1070038B50F4B04240546DD
:1025E0009C6301200321F022052304F0B9FB21465E
:1025F0000120F022052304F0B3FB01201321034640
:10260000F02204F0ADFB054B4FF400021A6028469F
:10261000FFF7BCFF002038BD0010104000E100E0D3
:1026200038B590F83D30044623B3426B836B9A4231
:1026300016D090F830507DB990F83C300133DBB2C1
:10264000052B80F83C3013D1FFF7A0FF0A4805F0B6
:1026500049FD84F83C500BE0002380F83C3007E053
:10266000064B4FF48042C3F814220022C3F8142210
:10267000636BA363002038BD687401100010104024
:1026800080F83D10044B21B14FF48042C3F818226A
:102690007047C3F81812704700101040F0B5244B73
:1026A00003601026044689B0466020200F46FEF7DE
:1026B0007FFD0025A060E56025616561A561E6619B
:1026C0002020FEF775FD1B4B07930F2320626562E8
:1026D000A5620293E76204231748039502A90495B3
:1026E0000695059304F046FB0825134E013DB3689B
:1026F0000193FAD13046012104F0A0FB30460421B9
:1027000004F08DFC30460421012204F072FC0B4BD6
:1027100083F817530A4B84F8305020466563A5634D
:1027200084F83C5084F83D50C3F8185209B0F0BD0D
:102730005074011000CB280C00500C4000E100E068
:102740000010104038B505464020FEF72FFD294601
:102750000446FFF7A3FF014B1C6038BDA0D0011059
:1027600070B5C56804460E4645B9016803694068FE
:10277000490098474008E06058B1A560A3686268C6
:10278000591C32F81330A1603380E368013BE360E9
:10279000012070BD0269436970B50468D31AE31A59
:1027A000002B0CDDC56846686B1C0132A342C36078
:1027B00026F81510026104D10023C36001E0002057
:1027C00070BD012070BD000090F83D202A4B73B50C
:1027D000044682B3294A4FF48041C2F81412002102
:1027E000C2F8141204229D681A62234BDB6813F0AE
:1027F00002030DD004F11C000DF10601FFF7B0FF3C
:1028000008B9ADF806001C4BBDF806209A60ECE74D
:1028100005F47F42B2F5B44F06D0B2F5B64F04D1FD
:10282000201DA9B2FFF7B6FF012384F83030636B97
:10283000013363631EE004229D681A620E4EF36842
:102840009B0706D504F11C000DF10601FFF788FF78
:1028500060B905F47F43B3F5B64F0BD1201DA9B283
:10286000FFF798FF012384F8303003E0BDF806300D
:10287000B360E3E702B070BD00500C4000101040A0
:10288000014B1868FFF7A0BFA0D001108269C06992
:10289000101A704790F8343013B94268136013600F
:1028A0000020704770B503460024944217D0986901
:1028B000DD69401B002801DC224610E01869DD6854
:1028C000461C1E61285C0855D8691D690130D86115
:1028D0009868854204BF002018610134E5E710467E
:1028E00070BD000008B502200021F022042304F08E
:1028F00037FA02200121F022042304F031FA034BBD
:102900004FF08072C3F88020002008BD00E100E095
:1029100008B502200021F022012304F021FA012150
:102920000B460220F02204F01BFA01200321F022C2
:10293000002304F015FA01200421F022002304F002
:102940000FFA034B4FF080721A60002008BD00BFE1
:1029500000E100E073B504460020626884F83400AA
:10296000936803F00E03042B16D11368E169A26982
:10297000511AA268521A8242DBB22FDD6269E16805
:10298000551C65618B54A36962690133A361A36817
:102990009A4223D1606121E00C2B02D1136801938C
:1029A0001CE0022B1AD11025E66A36B9236B606A47
:1029B000216A9847E06268B1A662A36A626A591CFC
:1029C000A162D25CE36A013BE362012384F8343004
:1029D00063681A60013D15F0FF05E5D102B070BDD6
:1029E000014B1868FFF7B6BFA4D001102DE9FF41D5
:1029F0002026264B036004468660304690460F46EC
:102A0000FEF7D6FB0025E060266225616561A561C1
:102A1000E5613046FEF7CCFB4FF496430193032368
:102A200060628DF809303846194BA56201A9E5624C
:102A3000C4F83080676084F83450039301268DF821
:102A400008508DF80A5004F0B9FB60688DF8025008
:102A500069468DF803508DF800608DF8016004F030
:102A6000B1FC6068314604F0F3FC606829463246E8
:102A700004F080FC60683146324604F07BFC054B74
:102A8000204683F8185304B0BDE8F0817874011033
:102A900000CB280C00E100E008B5034A406804F0D0
:102AA000EBFA002008BD00BF00CB280C38B5054666
:102AB0003820FEF77BFB04492A460446FFF796FFC1
:102AC000024B1C6038BD00BF00100840A4D00110AC
:102AD0002DE9F04188461146044603F0E3F804F579
:102AE000D27604F51A77354630461C3607F046FA9A
:102AF000BE42F9D11423C4F88032A4F87A320523F7
:102B000000266422A4F88432062384F87662A4F8AE
:102B10007822C4F88C62C4F8A081A4F8863284F8C4
:102B200088624FF47A70FEF743FBA4F86C62C4F835
:102B30006802A4F87C62A4F87E6228461C3507F07F
:102B4000B1FABD42F9D12046BDE8F0816429C0F850
:102B5000803288BF64219DF80030A0F87812A0F878
:102B60007A2280F888320020704770B50446D0F889
:102B7000680208B1FEF720FB04F5D27604F51A7559
:102B8000B54204D01C3D284607F0A0FAF8E72046DD
:102B900002F0A4FE204670BD13B59DF8004061F31D
:102BA00002048DF80040BDF8004062F3CB04BDF88C
:102BB0000220ADF8004063F30902ADF80220BDF831
:102BC00010201344BDF80420013963F309021C23CB
:102BD00003FB010000F5D2706946ADF8042007F050
:102BE000BBFA02B010BD112A2DE9F0415BD990F873
:102BF0007632002B57D1B0F87E42B0F8742294425E
:102C000054D2D0F87C322BB94AF6552321F8023B36
:102C1000092400E008244AF656230B80B0F87E32DF
:102C2000D0F870724FF00C0E0EFB03F337F803C0B0
:102C3000A1F804C0B0F87E520EFB0575AB886A8817
:102C40009A1A92B24A81B0F87E520EFB05752B8912
:102C5000ED885B1B9BB28B81B0F87E520EFB057535
:102C60006E8806EB5206B6B2CE80B0F87E520EFBEE
:102C700005751A44ED8805EB5305ADB20D81B0F82A
:102C80007E820EFB087762447F89CF813A44B31875
:102C900015FA83F34B80B0F87E320133A0F87E3210
:102CA0006000BDE8F0810020BDE8F0811846BDE875
:102CB000F0810F2A2DE9F041B0F87C3205460C4630
:102CC00053D9B0F86C62B34206D390F888721FB142
:102CD000BDE8F041FFF787BF95F87602002844D1A0
:102CE000B34243D22BB94AF6552224F8022B0820CE
:102CF00000E00720D5F868624AF6552203EB83030B
:102D0000228036F81380A4F8048002335900A1F120
:102D1000020C36F8133036F80C70DF1B01F1020E8E
:102D2000BFB2314467818B8836F80E10591A89B2C8
:102D3000A1817A1808EB020336F80C2002EB570742
:102D4000BFB2E78017FA83F236F80E3003EB510377
:102D50009BB2238113FA82F36380B5F87C3201338E
:102D6000A5F87C324000BDE8F0810020BDE8F0818C
:102D7000F0B5024619B1B0F86C62002040E0D0F81E
:102D80008C02002841D1B2F86C7203460546BD4260
:102D900012DAD2F868020A2101FB050101358888A0
:102DA0004E880C89861BC888201A7043984284BFBD
:102DB000C2F88C120346EAE7B2F874720025BD42ED
:102DC00012DAD2F870020C2101FB05010135888866
:102DD0004E880C89861BC888201A7043984284BF8D
:102DE000C2F88C120346EAE7D2F88C02F0BD0A243E
:102DF0004443D2F868522B192C5B8C4204D001302A
:102E0000B042F4DB0020F0BD1846F0BD10B5D0F89C
:102E100068420C60B0F86C121160D0F870221A6031
:102E2000029BB0F874221A6010BD002070B50346F2
:102E3000044604EB84069442B6B218D001EB460572
:102E400031F816602EB90130002B08BF2B4680B236
:102E50000AE04BB11E806E885E80AE889E80EE8850
:102E6000DE802D891D810A330134A4B2E1E770BDF3
:102E70002DE9F74F02EB820293B200200093024645
:102E8000009B9A4240D031F8123001EB4204002BF3
:102E900037D0531D009D6688A788B4F806E0B4F8C3
:102EA00008C001959BB2019DAB422AD031F8138036
:102EB0004FEA430B01EB0B05B8F1000F1ED0B5F83C
:102EC00002A0B5F80490B5F806802D89564509D8BA
:102ED0004F4507D3C64505D8AC4503D3002521F897
:102EE0000B5009E0B24509D8B94507D3F04505D8DC
:102EF000654503D300252580013080B205339BB2A0
:102F0000D1E7053292B2BBE703B0BDE8F08F2DE9FF
:102F1000F04F8BB002EB8202039093B20020049337
:102F20000190049B019A9A4200F09380019A019BC0
:102F300031F812405B00002C00F083809C1C0D19BE
:102F400031F804E005951C1D0D1931F804C00695F3
:102F50009C1D08330D19079531F803800C5BCD18C3
:102F6000134605339BB20293049B08950993029B79
:102F7000099A934265D0029B4FEA430931F8133016
:102F800001EB0907002B57D07D88BE88FB883F895D
:102F9000754511D8039AB2F884B2C6EB0E0ADA4529
:102FA0000ADC9C4201D8434503D9BC4204D84745BA
:102FB00002D8059B1D803AE0664511D3039AB2F80A
:102FC00084B2CCEB050ADA450ADC9C4201D84345C1
:102FD00003D9BC4204D8474538D8069B1E8026E05A
:102FE000A34211D8039AB2F884B2C7EB040ADA45B7
:102FF0000ADCAE4501D8654503D9B64504D8664517
:1030000002D8079A138012E0474515D3039AB2F805
:1030100084A2C8EB030353450EDCAE4501D86545D9
:1030200003D9B64508D8664506D8089B1F800023FB
:10303000013021F8093080B2029B05339BB2029324
:1030400095E7019A053293B201936AE7A342C9D981
:10305000DCE70BB0BDE8F08F2DE9F04F87B0888832
:103060000190C8884B880290B2F804905088098972
:1030700003911FFA89F59CB281B20495B2F80880D9
:10308000D58805950FFA84FA0FFA81FCE245BDF860
:103090000460BDF80870BDF80CE0BDF814501FFACC
:1030A00088F21DDB0FFA87FC0FFA85FAD44503DCA2
:1030B0000FFA8EFBDA450BDD0FFA82FAD4450ADCF3
:1030C0000FFA8EFBDA4503DD0FFA85FAE24502DCE2
:1030D000C9EB03001AE00BB20FFA84FC634517DB5F
:1030E0003BB20FFA85FC634546DC0FFA8EF9CC45FE
:1030F0000ADD0FFA82F94B450ADC12B20FFA8EFE96
:10310000724501DD9C4520DC019BC01A80B238E08D
:103110003BB22AB2934218DB23B20AB2934202DCDA
:1031200030B2824209DDBDF91000834209DC0FFA9A
:1031300086FE704501DD9A4203DC029BC8EB03006A
:10314000E4E72DB23FB2BD4213DB24B209B28C4298
:1031500002DC33B2994208DDBDF910309C4208DC34
:1031600036B2B34201DDA14203DC059B039A981AF3
:10317000CCE747F6FF7004E00FFA82F94B45BCDD5F
:10318000CAE700B207B0BDE8F08F70B50E460988F7
:1031900004461546E1B11388E3B1994228D090F86E
:1031A0008832022B04D194F88832022B07D113E025
:1031B00001F0070102F049FE012819D1F3E729784F
:1031C000204601F0070102F040FE012810D103E083
:1031D000084670BD184670BD314620462A46FFF7A6
:1031E0003BFFB4F886128842CCBF0020012070BD9E
:1031F000002070BD10B502203BB1948853884A88E6
:10320000234493FBF0F3888806E01489D388CA88A6
:10321000234493FBF0F308891044C3EB600080B2B1
:10322000030444BF404280B200B210BD0000000061
:10323000F7B5CB8808890E461844D18813890B440A
:103240005B10C3EB600007EE900AF8EEE77A1746D2
:1032500017EE900A09F072FE7B8872880446B888DF
:103260001844B38813445B10C3EB600007EE900A68
:10327000F8EEE77A0D4617EE900A09F05FFE024677
:103280000B462046294610F0BFFB00220C4B09F0EC
:10329000A9FE09A3D3E9002309F0CEFF0AF0D4F870
:1032A00007EE900AFDEEE77ACDED017ABDF9040054
:1032B00003B0F0BDAFF30080000000C0CA21094098
:1032C00000806640AFF300802DE9F04786B080466D
:1032D0009DF838A00D46164699460024B44201AF29
:1032E0000CD00A2C0AD055F82420404649465346B3
:1032F000FFF780FF27F814000134EFE73A462B462A
:10330000002101204C1C1FFA84FEB64504D300287E
:10331000F4D006B0BDE8F0870929F8D0B2F800E093
:1033200032F8021F8E4581BF22F8021C93E8030089
:10333000A2F800E0586084BF1960002021460433E1
:10334000E0E72DE9F04F85B092460024BDF9382022
:1033500001928446894647F6FF78274622B25245B5
:1033600036DA1D460026019932B28A422EDA002250
:1033700011B251450EDA59F821002968884222D04D
:10338000B1F800E001888EEA0101490702F101026B
:10339000EED118E059F824B02A68039360465946E4
:1033A000CDF808C0FFF758FE0FFA88F29042DDF81A
:1033B00008C0039B07DA0F9A1099C2F800B02A6878
:1033C0000A608046012701360435CCE70134C5E7A1
:1033D000384605B0BDE8F08F2DE9F04F0027B2F96F
:1033E00000B08DB0B9463E465E453FDA51F8260042
:1033F000838844881C1B0389C0881B1A634364208C
:1034000000FB03F54FF4FA74B5FBF4F401944FF4A8
:10341000C8745C43B4FBF0F400201C448646764537
:1034200016D051F82EC0BCF80250BCF804A0C5EB71
:103430000A0ABCF80850BCF806C0CCEB050505FB31
:103440000AFA019D554503D8A2459CBF013080B2C0
:103450000EF1010EDE45E2DBB8429ABF4346384624
:103460004FF00109013698460746BDE7B9F1000F54
:1034700001D1A2F800900023B2F900E01E46764583
:1034800001DB002026E0092BFBD851F82640A0885C
:103490006588E788451B2089C01B68434FF0640C92
:1034A0000CFB00F74FF4FA75B7FBF5F747450FD85B
:1034B0004FF4C8754543B5FBFCF5284480459FBFD4
:1034C0000CAD581C05EB830343F8284C98BF83B21E
:1034D0000136D4E7984206DA02AC54F8204041F8AD
:1034E00020400130F6E713800DB0BDE8F08FF0B555
:1034F0000023B2F900608BB01D461846B0429CB262
:1035000017DA0A2B14D051F820704DF823700130CF
:10351000B0420BDA51F82040B7F800E024888EEA78
:103520000404640702D101300125F1E70133E5E726
:103530001C464DB10023A34205DA5DF8230041F893
:1035400023000133F7E714800BB0F0BD7047F0B5EE
:10355000D0F86852B0F86C620020B0420CDA0A244D
:10356000444301302B5B23F00707974202BF03F06F
:1035700007030B432B53F0E7F0BD2DE9F04FB0F8F4
:103580006C32D0F868720A2697B0044606FB0376C0
:103590004FF0000BB7423BD207F10A0807F11405C0
:1035A000A5F10A02B24231D220463946FFF7EDFDBD
:1035B00050B338F80A3C35F80A2C072B11D8072AE3
:1035C00017D80BF101021FFA82FB4FEACB0292B22D
:1035D000134328F80A3C35F80A3C1A4325F80A2C0C
:1035E00012E0072A05D823F00703134325F80A3C05
:1035F0000AE035F80A2C072A06D9072B9EBF22F0CD
:103600000702134328F80A3C0A35C9E74746C1E7D1
:10361000D4F86892B14520D2CA463AF80A7B072FFF
:1036200019D927F00707BFB2D046B04513D2B8F872
:103630000050072D0CD925F00705ADB2AF4207D0D9
:10364000204649464246FFF7A0FD002840F062812F
:1036500008F10A08E9E7D146DCE7D4F86832D4F883
:10366000705203F5777309930023A4F87432012292
:1036700013B25B45D4F8683200F32F8109998D426B
:1036800080F02B8192B2D0000692002280B2ADF879
:103690002E20B34216D3ADF82E2020460CA90DF1F2
:1036A0002E02FFF799FEBDF82EA00FFA8AF3012B28
:1036B00040F30F81002305930493039319461846A2
:1036C0001F4611E011B20929E5DC1F8827F0070722
:1036D000874201BF16AF07EB8101013241F8283C58
:1036E00008BF92B20A33D4E70CAA0FFA87FE52F849
:1036F0002390B9F80220079216AA02EB8E0E079AC1
:103700005EF828ECB9F804C0BEF802E01FFA83F8AE
:10371000964588BF4746B9F8062008920FFA81FE01
:1037200016AA02EB8E0E089A5EF828ECBEF806E0A8
:10373000964588BF414616AA0FFA80FE02EB8E0E10
:1037400001335EF828ECBEF804E0E64538BF404699
:10375000B9F808E0BDF90C9002EB8909039A59F811
:10376000289CB9F80890F14538BF42460392079A61
:10377000C2EB0C0C049A62440492089AC2EB0E0E3F
:10378000059A0FFA83FC72440FFA8AFEF4450592FB
:10379000AADB16AA00B209B202EB810102EB80009B
:1037A000BDF90C2050F8280C16AB0DF158083FB2AB
:1037B00003EB870708EB820257F8283C52F8282CC5
:1037C00051F8287CB3F802C08088F9881289A5F8DE
:1037D00002C0E9804FF06408CCEB000C511AA880BD
:1037E0002A8108FB0CFC049A92FBFEF008FB01F115
:1037F0009CFBF0FC059A92FBFEFE91FBFEF18C45D2
:10380000CCBF012100230DF13008C9BF0091009306
:1038100020464146DEBF204641463B461FFA8AF21B
:10382000FFF752FD204641460DF12E02FFF75FFEE5
:10383000BDF92E30012B4CDD052BC4BF0523ADF89F
:103840002E300021BDF82E300F4608B21AB2904239
:1038500009DA58F82120128802F0070242EAC7026A
:1038600097B20131F1E7013B9BB2002118B2002869
:1038700012DB0DF1580E0EEB8000013B50F828ECE6
:10388000BEF8000000F0070040EAC101002089B244
:10389000AEF800009BB2E9E78F4233BF16AB16AB20
:1038A00003EB820203EB82022BBF29802F8052F8A8
:1038B0002C1C0C9935BF52F82C2C0C9A2046204613
:1038C000FFF7B6FCB4F87432688101330C35A4F804
:1038D0007432069A013292B2CAE603F10A05A5F1E2
:1038E0000A039E4220D994F88832032B04D135F87C
:1038F0000A3C072B0CD913E035F80A1C07290FD80E
:10390000022B0DD02046C9B202F09FFA012807D041
:103910000A35E4E7204639462A46FFF718FE97E6BF
:10392000002325F80A3CF3E717B0BDE8F08F38B55F
:1039300000F5D27400F51A75204606F02DFB2046DE
:103940001C3406F074FBAC42F6D138BD2DE9F04FC3
:1039500089B000230646ADF81830ADF81E30ADF83A
:103960001A30ADF81C301A469A464FF0FF38D6F898
:10397000A001059306A9049204F0F9FD049A059BA1
:103980000028F4D0BDF818404FF6FD718C4200F2CB
:10399000B880002BEBDB54BB7AB103991FFA8BF094
:1039A0000131091A431E89B200919BB2D1B230464F
:1039B0001FFA88F2FFF7F0F80346BAF1050F08F195
:1039C00001080AF1010205D0924600224FF6FF7568
:1039D0001746CCE7524A04931068012101F08DFD8F
:1039E00000224FF6FF7517469246049BBFE7BDF8CD
:1039F0001A000490BDF81E00BDF91C10002804F048
:103A000007094FEAC13108BF01204FF0140E91FBA6
:103A1000F0FC09F1FF310EFB016E0EF1E0010591A2
:103A2000DEF8E010614521DA059949688C451DDA18
:103A3000BDF910100EF1E80CDEF8E8E0C90391FBC7
:103A4000F0F18E4512DADCF804E071450EDAD6F8B2
:103A50006C1188420ADBE410611B1FFA84FC052903
:103A6000ADF818C01CD84F451AD114E0002A3FF415
:103A70007EAF03991FFA8BF00131091A431E89B2F8
:103A800000919BB2D1B230461FFA88F2FFF784F85A
:103A9000034600226BE75ABB77BB3A46AB462EE0A3
:103AA00072B90CF1FF33022200929BB230464946B4
:103AB0001FFA88F2FFF770F8034625464F46E8E7FD
:103AC00000250399CDF810C01FFA8BF00131091AB7
:103AD000431E89B200919BB2D1B230461FFA88F2E0
:103AE000FFF75AF8DDF810C00346002DE5D1D8E7FE
:103AF0004A4502D00125E4E7AB463A460394254601
:103B000035E73046FFF713FFBDF818304FF6FE706B
:103B100083424FF0FF3018BF002009B0BDE8F08F9E
:103B20005CD101102DE9F74F0446FFF70FFF002885
:103B300011DA04F5D27504F51A7628461C3506F01C
:103B4000B1FAB542F9D10023A4F86C32A4F874326A
:103B50004FF0FF30B6E00025012684F87662C4F805
:103B60008C52A4F86C52A4F8745294F88832022B48
:103B700007D02046F1B202F068F9431E584258417E
:103B800000E00120B4F86C82D4F8682208EB8803C6
:103B900001931C2303FB0643019FD3F898314FF098
:103BA0000009DBB3B4F86CC2B4F878E2F44535D25E
:103BB000B4F87AE2F14531D2D3F820E018B1BEF181
:103BC000090F27DD03E0D4F880128E4522DBB3F81D
:103BD00004C0B3F812A0B3F810B0998ACCF3C80CA3
:103BE0001FFA8CFECAEB0E0EBEF1010F12DD02EBC6
:103BF000470E22F81760AEF802B0AEF80410AEF827
:103C000006A0AEF808C0B4F86CE20EF1010EA4F8FC
:103C10006CE205371B6809F10109C2E778B9019B1D
:103C200002EB4307B4F86C22C8EB02022046394687
:103C300092B2FFF76CF910B10544ADB2F2E701366C
:103C4000082E92D12046D4F86812B4F86C22FFF7FF
:103C50000FF994F88832284485B283B3B4F86C2203
:103C6000D4F868320A2101FB0233C4F870322046CE
:103C7000FFF783FC65B12046D4F86812B4F86C22D3
:103C8000FFF7D3F8B4F86C32181AA4F86C0203E00A
:103C900094F88832002BEED10023A4F87C32A4F8EB
:103CA0007E3284F8763204F5D27504F51A7428460B
:103CB0001C3506F0F7F9A542F9D1002002E0002DED
:103CC000EAD0D8E703B0BDE8F08F9142F0B50E46D8
:103CD00038BF16468642069C059F079D38BF06469C
:103CE000914226700C4628BF1446844294BF341B70
:103CF000341A322EE4B206D94FEA042E9EFBF6FEA9
:103D000087F800E009E04FF0000E87F800E026B9E0
:103D100000223A701A702A70F0BD002CF8D0B04220
:103D200004D18A1A120292FBF4F20EE0B1420BBFE8
:103D3000121A421A120212020BBF92FBF4F292FB09
:103D4000F4F202F5007202F58062002AB8BF02F5B3
:103D5000C062062192FBF1F21A702C70F0BDFF29AF
:103D600028BFFF21FF2A28BFFF22FF2842EA0122A5
:103D700028BFFF2042EA0040704710B5C4B21C6063
:103D8000C0F30723C0F307401360086010BD1FB5E0
:103D90000C4602AA01A903ABFFF7EFFF01980299B5
:103DA000039A20442144224404B0BDE81040FFF7A8
:103DB000D6BF00007FB503A904AA05ABFFF7DDFF5E
:103DC000049B039A9FED1B7A934238BF1346059AD2
:103DD000934238BF134607EE903AF8EE677A06EE44
:103DE000102AC7EE277A9DED037AF8EE476A9DED1B
:103DF000047AB8EE477A67EEA66AB8EE466A27EE0E
:103E0000877AFCEEE66A67EE867ABCEEC77ACDED7D
:103E1000016AFCEEE77A9DF804008DED017A9DF8C9
:103E20000410CDED017A9DF8042007B05DF804EB95
:103E3000FFF795BF00007F43014B1878704700BF24
:103E4000C9C20110014B1878704700BFC6C20110EB
:103E5000014B1878704700BFC7C20110014B18789A
:103E6000704700BFC8C20110014B1878704700BFEF
:103E7000D8D0011038B5094D0121286804F036FE6C
:103E800002210402286804F031FE204304020521C7
:103E9000286804F02BFE204338BD00BFECD0011091
:103EA00038B5094D1621286804F020FE10210402BF
:103EB000286804F01BFE204304020021286804F057
:103EC00015FE204338BD00BFECD0011008B5034BF0
:103ED0000178186804F00AFE08BD00BFECD001109C
:103EE00038B50468094DE2B22868052104F0E8FD00
:103EF0002868C4F30722022104F0E2FD28680121AA
:103F0000C4F3074204F0DCFD002038BDECD0011002
:103F100038B50468094DE2B22868002104F0D0FDEC
:103F20002868C4F30722102104F0CAFD286816216E
:103F3000C4F3074204F0C4FD002038BDECD00110EA
:103F400038B504460A4D22782868242104F0B8FDCB
:103F500022782868142A86BF143AD2B2002225217A
:103F600004F0AEFD034B22781A70002038BD00BF6C
:103F7000ECD00110C8C201102DE9F341134C0746E3
:103F8000884620680921102204F09AFD0025454545
:103F900010DA7E19795D2068727804F091FD795D00
:103FA000206804F0A3FD737883421CBF00230193B3
:103FB0000235ECE720680921002204F081FD044865
:103FC000FFF7BEFF02B0BDE8F08100BFECD00110EA
:103FD000C8C201102DE9F041294C07461321206881
:103FE00004F084FD03210546206804F07FFD254A86
:103FF0003B78117899420646904636D0A3B920689E
:10400000132105F0F70204F05BFD2068032106F0A0
:104010007F0204F055FD20680E21402204F050FD7F
:104020002068212103221EE0012B15D120681321D5
:1040300005F0F70204F044FD66F07F0220680321DA
:10404000D2B204F03DFD20680E21482204F038FD74
:1040500020682121332206E0022B0CD145F0080212
:1040600020681321D2B204F02BFD3B7888F8003091
:104070000020BDE8F0814FF0FF30BDE8F08100BFC7
:10408000ECD00110D8D0011038B50B4C0546972163
:10409000206804F02BFD2B7802462BB140F00A0279
:1040A00097212068D2B203E02068972102F0F50240
:1040B00004F006FD002038BDECD0011008B50378EF
:1040C0000A7803490868194604F0FAFC002008BD84
:1040D000ECD0011070B50F4E05783378AB4217D095
:1040E0000D4C382120684DB92A4604F0E9FC2068BF
:1040F0009621E12204F0E4FC357009E0102204F07E
:10410000DFFC20689621F12204F0DAFC01233370F1
:10411000002070BDC6C20110ECD0011038B50A4CA9
:1041200005782378AB420DD0084B1321186825B9C8
:10413000A02204F0C5FC257004E0A52204F0C0FC18
:1041400001232370002038BDC7C20110ECD001103C
:1041500038B50A4D04782B78A34209D00CB9084829
:1041600002E0012C06D107481E21FFF705FF2C7045
:10417000002038BD4FF0FF3038BD00BFC9C201106C
:1041800090740110AE74011038B50C4615490546FF
:104190000AF0DAF820B92046BDE83840FFF7D0BE73
:1041A000284611490AF0D0F850B923781BB9FFF717
:1041B00077FE0E4B18602046BDE83840FFF7AEBFD3
:1041C00028460B490AF0C0F850B923781BB9FFF70D
:1041D00051FE084B18602046BDE83840FFF77ABF13
:1041E00038BD00BFCC740110DE740110E8D001109E
:1041F000F7740110E4D001102DE9F04393B0984614
:10420000BDF86C50BDF87040BDF8687004FB05F354
:1042100006468B424FF0FF30914611904CD8131157
:1042200008D108EB0503B3F5A06F4ADC3B19B3F5E1
:10423000487F13E0012B08D108EB0503B3F5207F7D
:104240003FDC3B19B3F5C87F08E0022B37D108EB00
:104250000503B3F5A07F34DC3B19C82B31DC12A871
:1042600009F00F0300F8053DFFF772FF002828DB77
:10427000154BB3F90020CDF80090042302210193DF
:1042800011AB03910591079109910C9300210F4BFC
:104290000296CDF81080069708950A940B910D911F
:1042A0000E911868012301F02AF8119848B9084BBB
:1042B0001E609D80DC8004E06FF0010001E06FF083
:1042C000020013B0BDE8F083C4C2011060D1011038
:1042D000DCD001102DE9F0478AB08246129D2048BB
:1042E000204F1E468946904641211A882B88069306
:1042F0008DE803009DF85010029153430221039171
:1043000005910893B121002304920791099339463E
:1043100013984FF49032642300F0E7FCB8F80010D3
:10432000009131880191044629889AF80020B9F853
:104330000030029100F18050C4F5903100F500206A
:10434000FFF75AFF33882A8880463946139802FBC4
:10435000034200F090F940460AB0BDE8F08700BF84
:1043600042413831000008101FB5069C0094079C9C
:10437000019401240294FFF7ADFF04B010BD0000CA
:1043800030B5502387B000248DE81800474A4848CC
:1043900001234FF48071012503F01CFC454944487A
:1043A00003F082FC444A01942B4640F2022100951E
:1043B000424803F00FFC3F49404803F075FC00946D
:1043C000019429463E4A3F48042303F003FC3E4A39
:1043D00000942B46019440F202213C4803F0FAFB82
:1043E00034493A4803F060FC394A01942B4640F2C4
:1043F00002210095374803F0EDFB2E49354803F0C4
:1044000053FC04230094019429462D4A324803F0BA
:10441000E1FB224603A9264803F0B4FB22460DF136
:104420000D01264803F0AEFB22460DF10E01274890
:1044300003F0A8FB22460DF10F01264803F0A2FB72
:1044400003A8FFF77DFD0DF10D00FFF767FE9DF856
:104450000D407CB9214D1B482A682AB1042123460E
:1044600003F074FB2C6005E004A903F08BFB04A8A7
:10447000FFF74EFD0DF10E00FFF72CFE9DF80E30FC
:1044800093B99DF80F407CB9154D13482A682AB19D
:104490000421234603F05AFB2C6005E005A903F034
:1044A00071FB05A8FFF71CFD07B030BD0A750110B0
:1044B000CC740110894100107B750110DE7401106D
:1044C000E8840110C2750110CC750110F774011059
:1044D0005C7601103D760110DE760110E8D0011007
:1044E000E4D0011013B50420FCF760FE60210446FF
:1044F00004F0A0FA134B2046A0211C6004F0F6FA49
:1045000028211148FFF738FD02A8002400F8014DCA
:10451000FFF71EFE0D4B0E49186800F040F90D4BD9
:104520000D491868224600F0F7FE0C4BA042188097
:1045300003DBFFF725FF204601E04FF0FF3002B01C
:1045400010BD00BFECD00110B88001105CD101108B
:10455000F07E011060D10110B87C0110C4C20110BE
:10456000024B00221A60DA809A807047DCD001107A
:1045700070470020704710B50023934203DACC5CEB
:10458000C4540133F9E710BD90F83B0070478368CD
:1045900013B14360002383607047F0B5002351F8E6
:1045A000232004689E008F19002A32D0092B30DCAA
:1045B000251D12F8012C0560256815B96FF0020061
:1045C000F0BD12F0800F12D102F00F02012A03D1C8
:1045D0008A5912782A701AE0022A03D18A5912885D
:1045E0002A8014E0042AE9D18A59126802E0A12A3B
:1045F0008A5901D12A600AE012682A6004F108028F
:10460000026062680133002AD8D07C6814600133EC
:10461000C5E7231D036020680028CFD1F0BDF8B5A1
:1046200090F83B3005460E4617460BB98A061FD553
:10463000EC681CB9330605D40020F8BD4FF0FF30FC
:10464000002401E04FF0FF3095F839309C4209DA40
:104650002B682846DB6831463A4698470028EBD05D
:104660000134F1E7002805DA002385F83B30F8BD76
:104670006FF00500F8BD38B504468068636810B96E
:10468000A360616001E099420FD1236AD21AE2600F
:1046900094F83A2062B918212046FFF7C0FF05467A
:1046A0002046FFF774FF284638BD6FF0040038BD80
:1046B000002038BDF8B5858E0E4940352F010446DF
:1046C00038460EF0BFF9064688B100213A4609F097
:1046D00087FDA28E216B3046120109F0E7FC206BAA
:1046E00008B1FCF769FD2663A5860020F8BD6FF0D0
:1046F0000400F8BDC8990110F8B506460F4600251C
:10470000ACB2B28E23B2934209DA1B01326BD0589D
:1047100018B1394609F018FE20B10135F0E74FF61F
:10472000FF7000E0204600B2F8BDF8B504460D4623
:10473000164605B320462946FFF7DEFF002813DAA8
:10474000B4F834E00027B8B203B2734505DB734513
:104750000AD12046FFF7AEFFEBE71A01216B8A581A
:104760000137002AEFD1F2E7226B03B21B01D11807
:10477000D5504E6001E04FF6FF7000B2F8BD38B57D
:1047800005461C46FFF7D1FF0028A1BF2A6B02EBAC
:104790000010C4600020B8BF4FF0FF3038BD38B5FE
:1047A000054601F1080454F8081C39B154F8042CEA
:1047B00023462846FFF7E3FF1834F4E7084638BDE0
:1047C000418570478184704738B504461546FFF728
:1047D00093FF236B2A8803EB00131A8138BD000076
:1047E000437E70B5054613B16FF0040070BD11B97A
:1047F0004469803401E001F18004204608490EF04C
:1048000021F906460028EFD069686A6909F04EFC74
:10481000686808B1FCF7D0FC6E606C61002070BD68
:10482000C89901102DE9F04F8A4685B01F4605460C
:1048300040B190F83A30006A13B100F1040802E088
:10484000804600E080460123C8EB020901933B68E3
:1048500093F800B01A1D3A60BBF1000F00F0DE8043
:104860000BF0BF02012A08F101040AEB08060AF85E
:1048700008B008D13A68111D1268396008F10206C3
:104880000AF80420B0E0022A12D13A68E60748BFCD
:1048900024F0010402F1040148BF023439600AEB3C
:1048A0000401128801F801BCA61C2AF804209BE030
:1048B000042A02D0BBF1640F11D13A68A00718BFD7
:1048C00024F0030402F1040118BF043439600AEB38
:1048D0000401126801F801BC4AF8042016E0142A09
:1048E00016D13A68073222F0070202F10801396056
:1048F000D2E9000108F0A8FDA1071CBF24F00304C1
:1049000004340AEB040202F801BC1060261D6BE0BF
:10491000A12A23D13A68111D396013680293184601
:1049200009F0DCFE421C1619A9F108018E420FD9CC
:1049300015B96FF0040075E0284631460392FFF781
:104940004FFF00286EDBD5F804A0D5F81490039A29
:1049500002990AEB040009F0A9FB45E012065FD5B5
:104960003968081D386008680BF0300130290BF0F9
:104970000F0201BF00230BF08F0B86F800B00193EC
:10498000A3071CBF24F0030404340AEB0401261D12
:1049900001F801BC511E0E4218BF5142019B4AF85A
:1049A00004001CBF0E40B618F3B100FB02F3F4186C
:1049B000A9F1080294420DD90293002DB9D02846DE
:1049C0002146FFF70DFF00282CDBD5F804A0D5F811
:1049D0001490029B3A68111D39600AEB06001168B9
:1049E0001A4609F063FB26462DB1AA7E1AB91BF0C0
:1049F000400F18BF4646A9F108039E4201D8B046B1
:104A000025E7002D95D028463146FFF7E9FE00281E
:104A100008DBD5F804A0D5F81490F0E7404601E093
:104A20006FF0020005B0BDE8F08F0B4610B541688D
:104A300042690446FFF7F6FE0028A1BF236AC01AA8
:104A4000E060002010BD0EB4F3B59DF81C5090F846
:104A50003A60C768182D08BF002302A908BF80F874
:104A60003A3008AB41F8043D0446FFF7DEFF182D4D
:104A700003D094F83A3033B928B9204618210022DF
:104A8000FFF7CDFDE76084F83A6002B0BDE8F04082
:104A900003B070472DE9F3410D880368003518BF56
:104AA00001250E46044629461B68904698473388E0
:104AB00084F83B50E38698F80030003318BF012398
:104AC00000210746A3760091E37E01912046012252
:104AD000FFF7B9FF384602B0BDE8F08170B5B1F913
:104AE0000020838E056B88B000249A4206468DF81C
:104AF0001F4012DA1301E918EB5873B1C96861B1AC
:104B0000A122009201910292C96803910494059434
:104B10002146FFF798FF204610E00DF11F0101919B
:104B2000039113010021A1220092029204910591A8
:104B30003046EB58FFF787FF4FF0FF3008B070BDED
:104B40002DE9F04190460422C26001F0200288B0B5
:104B500004460F4602F0FF05BAB10122A02980F8F1
:104B60003A2004D193E80600FFF72EFE9BE0A1292E
:104B700004D193E80600FFF78DFF94E0A22940F0EE
:104B800090801968FFF7AAFF8DE0182904D1026808
:104B90001946926890479FE0828E904580F29E80F1
:104BA000B8F1000FC0F29A80026B02EB081256684F
:104BB000002E00F093802846C2B2013053F8221034
:104BC0000029F9D1012184F83A1012B92046B047E2
:104BD00069E0012A03D118682146B04763E0022A40
:104BE00004D193E803002246B0475CE0032A04D1D5
:104BF00093E807002346B04755E0042A03D1009408
:104C00000FCBB0474FE0052A05D11A698DE8140093
:104C10000FCBB04747E0062A07D11A6900925A69BC
:104C2000019202940FCBB0473DE0072A09D11A69DF
:104C300000925A6901929A69029203940FCBB0478D
:104C400031E0082A0BD11A6900925A6901929A69D7
:104C50000292DA69039204940FCBB04723E0092A49
:104C60000DD11A6900925A6901929A690292DA6921
:104C700003921A6A049205940FCBB04713E00A2AF4
:104C80000FD11A6900925A6901929A690292DA69FF
:104C900003921A6A04925A6A059206940FCBB0479F
:104CA00001E04FF0FF300023FFB284F83A303B06BA
:104CB00017D56268236AD050236B03EB081307F003
:104CC0003F01204641F04001B3F90820FFF7A7FC5F
:104CD00005462046FFF75BFC284603E04FF0FF3017
:104CE00000E0002008B0BDE8F0810CB413B504ACBE
:104CF00002AB54F8042B43F8044DFFF793FD02B0C8
:104D0000BDE8104002B070472DE9F84307468846D9
:104D1000154602F10A0916460024731B4445DBB20E
:104D20002CD24E452ED03A5D06F8012B110604F127
:104D3000010002F00F0307D45A1E02421EBF5A425E
:104D40001040C018C418E8E702F0BF02A12A05D13C
:104D5000384409F0C3FC02340444DEE782071CBF78
:104D600020F0030004305A1E3C58043010421EBF8D
:104D70005A421040C01803FB0404CEE70020E85458
:104D8000BDE8F8834FF0FF30BDE8F8832DE9F84324
:104D90004FF0000905460F461646C846B94546D2AB
:104DA000B8F10A0F4AD015F8094014F0800F09F144
:104DB000010004F00F020FFA88F10BD1531E0342D9
:104DC0001EBF5442204080182B1846F8213000EBBB
:104DD000020927E004F0BF04A12C08D1284446F8BA
:104DE000210009F07BFC09F1020981441AE08307E4
:104DF0001CBF20F00300043005EB000E2C5846F8D1
:104E000021E00430511E08421CBF5142084008F105
:104E10000103DBB218BF8018291846F8231002FBE3
:104E20000409984608F101035FFA83F8B6E70FFA20
:104E300088F3002046F82300BDE8F8834FF0FF30E8
:104E4000BDE8F8830EB400B58CB001AA0D99FFF748
:104E50009DFF002806DB0CA80EAB40F8303D01A9F1
:104E6000FFF79BFB0CB05DF804EB03B0704710B587
:104E70008CB0144601AAFFF789FF002803DB204607
:104E800001A9FFF78AFB0CB010BD10F8010C7047A8
:104E900010B542180023904204D010F8014B23446F
:104EA0009BB2F8E7581880B210BD000038B54368CF
:104EB00004461971104818606168E06AE3688B6005
:104EC0000368CA801D68638D4022A847002812DB52
:104ED000226AE3681A44402A0CD9637E53B9E06A17
:104EE0006168036840311D68638D403AA84700EA55
:104EF000E07038BD002038BD5555AAAA13B5034649
:104F000009B1592200E09522D86A8DF8072002687D
:104F10005B8D14680DF107010122A0470028B4BF82
:104F20006FF06500002002B010BD00002DE9F341D4
:104F30000446C06A174602688846556803B1A38CC8
:104F40000DF105010122A847051E62DB02D14FF0D9
:104F5000FF355EE000269DF80530E06A1B0643EA57
:104F600016262E4B02689E42238D08D055680DF1FF
:104F700005010122A847051E4BDBECD1E7E7566887
:104F80006168226AB047002841DB236A9D42DEDB6C
:104F900063681B7888F8003065686B883B80276AF7
:104FA0006E68E66039462846FFF772FFC7F1400792
:104FB0008046E06ABE4228BF3E460368B71CD3F86D
:104FC00004C0238D29463A46E047051E21DBBD4239
:104FD000BDDB61680DF1060031440222FFF7CBFA18
:104FE00060683146FFF754FFBDF806304044834205
:104FF00006D1266120460121FFF780FF002508E049
:1050000020460021FFF77AFF6FF0010501E06FF005
:105010006405284602B0BDE8F08100BF5555AAAA34
:105020002DE9F8430446894690461D46E06A6168CA
:1050300003685E680DB1A38C00E02B464022B047A8
:10504000071E1CDB032FF1DD63681B4A19689142C0
:10505000ECD11B7989F800306368DA889968236A93
:10506000A8F80020E1601944636999423E4609D9D5
:105070002046FFF7B5FB002804DABDE8F883384680
:10508000BDE8F883256AE3681D44BD4201D9637E0B
:105090006BB10020BDE8F883E06A616803683144C1
:1050A0005F68238DAA1BB847002803DB0644AE4285
:1050B000F2D3EEE7BDE8F8835555AAAA2DE9F74FDC
:1050C000036AC1681944436903319942044605D90A
:1050D000FFF786FB061E01DA304656E00027B84689
:1050E0002369E568AB4246D2E28EE06A6168ED1A58
:1050F000954228BF154602681944D2F804C0E38CD3
:10510000EA1CE047002838DBAB1CB34238DA2369DD
:1051100061682B440DF1060011F803A00133194416
:105120000222FFF728FAD4F810906068BDF806B0A4
:105130004844691CFFF7ACFE83450FD1D04502BF40
:105140004D4408F10108256120464FF0010108BFD8
:105150005FFA88F80027FFF7D1FEC1E7204600215B
:10516000FFF7CCFE7B1C94F83820DBB29A420AD9B8
:105170000237FFB2B4E7002007E06FF0640004E0FC
:105180004FF0FF3001E06FF0030003B0BDE8F08F97
:105190002DE9F84304460F4690461D469DF82090A1
:1051A000FFF7F5F9267E3EB12046394642464B468A
:1051B000FFF736FF16E001364B4620463946424699
:1051C000FFF7B4FE831C07D194F838309E42F2D327
:1051D0006FF00300BDE8F88308B1BDE8F88320460E
:1051E000FFF76CFFD8B93B78206A13F0400F0ED060
:1051F00063681844042200F8042C6168236A0B4495
:1052000003F8012CE368206A13440438E360636800
:10521000E16818442A46BDE8F843FFF7B7BDBDE88A
:10522000F8832DE9F0414FB290B0002F04460D46AF
:105230009046049303DB90F83B30002B5AD00026B5
:105240002046E660FFF7A3F9204604A9FFF7EDFB2F
:10525000002851DB002FAABF80238DF80D508DF858
:105260000D3020469DF80D104246B8BF3546FFF779
:10527000D6F9002840D1E9073AD4E06A03689B6870
:105280009847012305AE009320460DF10D010DF165
:105290000E023346FFF77CFF70BB9DF80D104A06E7
:1052A00010D42368BDF90E205F6820463346B84706
:1052B000E06A0368DB689847A38C9842E1D96FF0F5
:1052C000640019E0AB070DD5049B1A1D04921A68FF
:1052D000002AF9D0002356F8231042F8231039B1E0
:1052E0000133F8E704A83146FFF757F9002803DB3C
:1052F000002001E06FF0050010B0BDE8F0810CB4B3
:1053000007B504AB33F9042B0193FFF78AFF03B011
:105310005DF804EB02B0704730B5044689B00D4625
:1053200012B1FFF702FA01E04FF6FF7002230022EC
:10533000019300B207AB029004930095039205928B
:105340002046A021A123FFF7DAFF0028ACBFBDF85B
:105350001C004FF6FF7000B209B030BD30B50446F6
:105360008BB00D4609B1C38E00E00B4600930123BC
:105370000193E37E029309AB002204930DF1230312
:105380000593039206922046A1210223FFF7B7FF5F
:10539000002808DB9DF82330099884F83B5000333F
:1053A00018BF0123A3760BB030BD00000B4B10B526
:1053B0000360037F044613B10021FFF7CFFF637E34
:1053C00033B92046FFF7E3F8606808B1FBF7F4FE55
:1053D000206B08B1FBF7F0FE204610BDE8800110FD
:1053E0000B6810B5C16204461B6908460021984746
:1053F000C0F340002076E06A036800211B699847EB
:1054000000F001006076E06A03685B699847237EDC
:10541000E0860BB10C2300E008232362637E63B1B6
:10542000E06A036801211B6998476060E06A0368CD
:1054300002211B699847606105E080206061064990
:105440000DF000FB6060207F28B120460121BDE8FF
:105450001040FFF783BF10BDC899011070B51E46FC
:10546000184B03600446032380F8383080F8393045
:1054700000254FF47A738384C562057645764560CE
:1054800085604FF4FA7063854023E0842085E176DF
:1054900022770D4984F83A5084F83B50A576A386CC
:1054A0004FF480600DF0CEFAA28E206329461201DF
:1054B00008F096FE1EB120463146FFF791FF2046C8
:1054C00070BD00BFE8800110C899011000B58BB015
:1054D0001346009109A9002202910393191D083374
:1054E0000491059301920692A2210223FFF707FF80
:1054F00000B909980BB05DF804FBF0B505468FB014
:105500000E4600240023009328460DF109010DF1F9
:105510000A0203ABFFF73CFE58B92B689DF809104F
:105520005F68BDF90A20284603ABB8470EB10134C5
:10553000E8E720460FB0F0BD37B5C06A13460268F1
:105540000C4655680DF107010122A84700280ADB27
:105550000CD09DF80730592B4FF0000006BF0123F7
:105560002370207004E06FF0640001E04FF0FF3022
:1055700003B030BDF7B504460E46C06A2A4B02A9F7
:10558000154641F8043D036804221F68638DB8473F
:10559000002846DB63681E706168E06AE3684B6060
:1055A00003684D80226A1D68638DA847002838DB98
:1055B0006668216A3046FFF76BFCE568ADF80200CB
:1055C000E06A402D036828BF40251F68638D31467F
:1055D0002A46B847002802DA6FF0650021E06068CB
:1055E0002946FFF755FCBDF8023002A9184421F8FE
:1055F000060DE06A036802221E68638DB04700282A
:10560000EADB20460DF10101A28CFFF795FF00288F
:1056100007DB9DF8013013B12561002001E06FF038
:10562000010003B0F0BD00BF5555AAAA73B5002311
:1056300004468DF804302369E568AB4244D2E28E1B
:10564000E06A6168ED1A954228BF15460268194460
:105650001668638D2A46B047002802DA6FF06500AD
:1056600033E0E06A036801A91E68638D0122B04738
:105670000028F3DB2369606829461844FFF708FC1B
:105680000121064601A8FFF703FC02A9304421F8D6
:10569000020DE06A036802221E68638DB04700288D
:1056A000DCDB20460DF10501E28CFFF745FF002809
:1056B0000BDB9DF80530002BBDD023691D449DF800
:1056C000043025610133B4E7002002B070BD037ED1
:1056D00070B504460E4615461BB1BDE87040FFF795
:1056E000E5BB2A4620463146FFF744FF821CF8D02E
:1056F00020B92046BDE87040FFF798BF70BD09B1E2
:1057000000230362C26982B1036A1168994220DDF5
:10571000926802EB830132F8232049880281013329
:10572000042241818281C2810362002343610361BB
:105730004389B0F9041043F001039AB2038943F09E
:1057400001039BB201FB0233026813448361012011
:1057500070470020704738B500230360C380838002
:10576000C381838104464381038103C984E8030024
:105770001068516804F1080503C5E3612046012162
:10578000FFF7BDFF204638BD002310B50360C3807E
:1057900083800446C38183814381038103C9E2611D
:1057A00084E8030020460121FFF7A9FF204610BD31
:1057B000F0B5838904699C420AD3002303614369DD
:1057C000B0F9044002334361836903EB440383610E
:1057D000C38944699C4233D286690369F518F45C35
:1057E00015F801CCB0F904505D1B16F805E03544FE
:1057F00015F8013C2AB10CEB0E056D1014705570B4
:1058000093700569C1B104EB0C071F44252F02DC1E
:1058100002350561CDE704EB0E061E44252EF7DDAB
:10582000CCEB0404CEEB0303E403DB0394FBF7F4BB
:1058300093FBF6F30C604B60023505610120F0BD6F
:105840000020F0BDC36970B504460E4615465BB135
:10585000FFF7AEFF014658B92046FFF750FF01465B
:1058600030B1204631462A46BDE87040FFF7A0BF60
:10587000084670BD2DE9F743002488460121814682
:105880008DF806408DF805408DF80440FFF737FF8E
:105890002646254627464846002101AAFFF7D2FFA3
:1058A00050B19DF804301F449DF805301D449DF80B
:1058B000063001341E44EEE7B7FBF4F7B5FBF4F510
:1058C000B6FBF4F0B8F1000F01D0C8F800402D028B
:1058D00045EA0745284303B0BDE8F08370472DE94A
:1058E000F04F87B0002408468B46012190469A4627
:1058F00005940494FFF703FF00220023CDE9002361
:10590000CDE90223254626462746A146584604A946
:105910000022FFF797FF844630B3049AD8F800308E
:10592000D8F80C109A42D8F80430C8BF01379A4210
:10593000059BB8BF01368B42D8F81010C8BF01359F
:105940008B42DDE90201B8BF0134801841EBE271FE
:10595000CDE90201DDE90001C01841EBE371CDE9B9
:10596000000109F10109D1E707EE909AF8EE676AA4
:1059700007EE907AB8EE677A07EE906A87EE267A9D
:10598000DDE902014A466346CDF808C08AED007A97
:10599000B8EE677A07EE905A87EE267A8AED017A9A
:1059A000B8EE677A07EE904AF8EE677A87EE267AC5
:1059B000C7EEA67A8AED027ACAED037A07F094FD63
:1059C000DDF808C0C8F808004A46DDE90001634672
:1059D00007F08AFDC8F8140007B0BDE8F08F2DE984
:1059E000FF4100230746884614461361D360536085
:1059F00013601F264FF080456B46384641462246CD
:105A0000FFF76DFFD7ED5E7A9DED007A2368B4EE67
:105A1000E77AF1EE10FA9DED017ACCBF5B195B1BC2
:105A2000B4EEE77A236063689DED027AF1EE10FA36
:105A3000CCBF5B1B5B19B4EEE77A6360E3689DED56
:105A4000037AF1EE10FACCBF5B195B1BE360B4EE96
:105A5000E77A2369F1EE10FACCBF5B1B5B19013EBC
:105A600023614FEA6505C7D104B0BDE8F081013973
:105A7000C9B2062970B55AD84B01C2180344D2697D
:105A80009D68012A01F1600200EB8202D2ED017AE9
:105A900008BF90ED607A4FEA41124FF0140404FB06
:105AA0000104815808BF67EE877A491B07EE105A38
:105AB00006EE901AB8EEC77AF8EEE66AB0EE476ADC
:105AC000A6EEA76A8618D9685869FDEEC66A091A53
:105AD000C4ED386A7268521B06EE902AF8EEE66A48
